{
  "contracts/OAOCircle.sol": {
    "OAOCircle": {
      "abi": [
        {
          "inputs": [
            {
              "internalType": "contract IAIOracle",
              "name": "_aiOracle",
              "type": "address"
            }
          ],
          "stateMutability": "nonpayable",
          "type": "constructor"
        },
        {
          "inputs": [
            {
              "internalType": "contract IAIOracle",
              "name": "expected",
              "type": "address"
            },
            {
              "internalType": "contract IAIOracle",
              "name": "found",
              "type": "address"
            }
          ],
          "name": "UnauthorizedCallbackSource",
          "type": "error"
        },
        {
          "anonymous": false,
          "inputs": [
            {
              "indexed": false,
              "internalType": "uint256",
              "name": "requestId",
              "type": "uint256"
            },
            {
              "indexed": false,
              "internalType": "address",
              "name": "sender",
              "type": "address"
            },
            {
              "indexed": false,
              "internalType": "string",
              "name": "prompt",
              "type": "string"
            }
          ],
          "name": "promptRequest",
          "type": "event"
        },
        {
          "anonymous": false,
          "inputs": [
            {
              "indexed": false,
              "internalType": "uint256",
              "name": "requestId",
              "type": "uint256"
            },
            {
              "indexed": false,
              "internalType": "string",
              "name": "input",
              "type": "string"
            },
            {
              "indexed": false,
              "internalType": "string",
              "name": "output",
              "type": "string"
            },
            {
              "indexed": false,
              "internalType": "bytes",
              "name": "callbackData",
              "type": "bytes"
            }
          ],
          "name": "promptsUpdated",
          "type": "event"
        },
        {
          "inputs": [],
          "name": "AIORACLE_CALLBACK_GAS_LIMIT",
          "outputs": [
            {
              "internalType": "uint64",
              "name": "",
              "type": "uint64"
            }
          ],
          "stateMutability": "view",
          "type": "function"
        },
        {
          "inputs": [],
          "name": "aiOracle",
          "outputs": [
            {
              "internalType": "contract IAIOracle",
              "name": "",
              "type": "address"
            }
          ],
          "stateMutability": "view",
          "type": "function"
        },
        {
          "inputs": [
            {
              "internalType": "uint256",
              "name": "requestId",
              "type": "uint256"
            },
            {
              "internalType": "bytes",
              "name": "output",
              "type": "bytes"
            },
            {
              "internalType": "bytes",
              "name": "callbackData",
              "type": "bytes"
            }
          ],
          "name": "aiOracleCallback",
          "outputs": [],
          "stateMutability": "nonpayable",
          "type": "function"
        },
        {
          "inputs": [
            {
              "internalType": "string",
              "name": "prompt",
              "type": "string"
            }
          ],
          "name": "calculateAIResult",
          "outputs": [],
          "stateMutability": "payable",
          "type": "function"
        },
        {
          "inputs": [
            {
              "internalType": "uint256",
              "name": "modelId",
              "type": "uint256"
            }
          ],
          "name": "estimateFee",
          "outputs": [
            {
              "internalType": "uint256",
              "name": "",
              "type": "uint256"
            }
          ],
          "stateMutability": "view",
          "type": "function"
        },
        {
          "inputs": [
            {
              "internalType": "string",
              "name": "prompt",
              "type": "string"
            }
          ],
          "name": "getAIResult",
          "outputs": [
            {
              "internalType": "string",
              "name": "",
              "type": "string"
            }
          ],
          "stateMutability": "view",
          "type": "function"
        },
        {
          "inputs": [
            {
              "internalType": "string",
              "name": "prompt",
              "type": "string"
            }
          ],
          "name": "inference",
          "outputs": [
            {
              "internalType": "string",
              "name": "",
              "type": "string"
            }
          ],
          "stateMutability": "payable",
          "type": "function"
        },
        {
          "inputs": [
            {
              "internalType": "uint256",
              "name": "requestId",
              "type": "uint256"
            }
          ],
          "name": "isFinalized",
          "outputs": [
            {
              "internalType": "bool",
              "name": "",
              "type": "bool"
            }
          ],
          "stateMutability": "view",
          "type": "function"
        },
        {
          "inputs": [
            {
              "internalType": "string",
              "name": "",
              "type": "string"
            }
          ],
          "name": "prompts",
          "outputs": [
            {
              "internalType": "string",
              "name": "",
              "type": "string"
            }
          ],
          "stateMutability": "view",
          "type": "function"
        },
        {
          "inputs": [
            {
              "internalType": "uint256",
              "name": "",
              "type": "uint256"
            }
          ],
          "name": "requests",
          "outputs": [
            {
              "internalType": "address",
              "name": "sender",
              "type": "address"
            },
            {
              "internalType": "bytes",
              "name": "input",
              "type": "bytes"
            },
            {
              "internalType": "bytes",
              "name": "output",
              "type": "bytes"
            }
          ],
          "stateMutability": "view",
          "type": "function"
        }
      ],
      "evm": {
        "bytecode": {
          "linkReferences": {},
          "object": "60a0604052600b6000553480156200001657600080fd5b5060405162001c7238038062001c7283398181016040528101906200003c9190620000f7565b808073ffffffffffffffffffffffffffffffffffffffff1660808173ffffffffffffffffffffffffffffffffffffffff1681525050505062000129565b600080fd5b600073ffffffffffffffffffffffffffffffffffffffff82169050919050565b6000620000ab826200007e565b9050919050565b6000620000bf826200009e565b9050919050565b620000d181620000b2565b8114620000dd57600080fd5b50565b600081519050620000f181620000c6565b92915050565b60006020828403121562000110576200010f62000079565b5b60006200012084828501620000e0565b91505092915050565b608051611b0a62000168600039600081816102980152818161033d01528181610363015281816106660152818161097001526109c30152611b0a6000f3fe6080604052600436106100915760003560e01c806389b1e7981161005957806389b1e798146101b7578063a2677754146101e2578063a5bcc4b8146101fe578063aff0396b1461022e578063b03478141461026b57610091565b8063127e8e4d1461009657806331b221cd146100d357806333727c4d146100fe5780636a3af9031461013b57806381d12c5814610178575b600080fd5b3480156100a257600080fd5b506100bd60048036038101906100b89190610b13565b610294565b6040516100ca9190610b4f565b60405180910390f35b3480156100df57600080fd5b506100e861033b565b6040516100f59190610be9565b60405180910390f35b34801561010a57600080fd5b5061012560048036038101906101209190610b13565b61035f565b6040516101329190610c1f565b60405180910390f35b34801561014757600080fd5b50610162600480360381019061015d9190610d80565b610402565b60405161016f9190610e48565b60405180910390f35b34801561018457600080fd5b5061019f600480360381019061019a9190610b13565b6104b8565b6040516101ae93929190610ee0565b60405180910390f35b3480156101c357600080fd5b506101cc610612565b6040516101d99190610f48565b60405180910390f35b6101fc60048036038101906101f79190610fc3565b610619565b005b61021860048036038101906102139190610fc3565b6107be565b6040516102259190610e48565b60405180910390f35b34801561023a57600080fd5b5061025560048036038101906102509190610fc3565b6108b6565b6040516102629190610e48565b60405180910390f35b34801561027757600080fd5b50610292600480360381019061028d9190611066565b610969565b005b60007f000000000000000000000000000000000000000000000000000000000000000073ffffffffffffffffffffffffffffffffffffffff1662e1d8d083624c4b406040518363ffffffff1660e01b81526004016102f392919061112c565b602060405180830381865afa158015610310573d6000803e3d6000fd5b505050506040513d601f19601f82011682018060405250810190610334919061116a565b9050919050565b7f000000000000000000000000000000000000000000000000000000000000000081565b60007f000000000000000000000000000000000000000000000000000000000000000073ffffffffffffffffffffffffffffffffffffffff166333727c4d836040518263ffffffff1660e01b81526004016103ba9190610b4f565b602060405180830381865afa1580156103d7573d6000803e3d6000fd5b505050506040513d601f19601f820116820180604052508101906103fb91906111c3565b9050919050565b60028180516020810182018051848252602083016020850120818352809550505050505060009150905080546104379061121f565b80601f01602080910402602001604051908101604052809291908181526020018280546104639061121f565b80156104b05780601f10610485576101008083540402835291602001916104b0565b820191906000526020600020905b81548152906001019060200180831161049357829003601f168201915b505050505081565b60016020528060005260406000206000915090508060000160009054906101000a900473ffffffffffffffffffffffffffffffffffffffff16908060010180546105019061121f565b80601f016020809104026020016040519081016040528092919081815260200182805461052d9061121f565b801561057a5780601f1061054f5761010080835404028352916020019161057a565b820191906000526020600020905b81548152906001019060200180831161055d57829003601f168201915b50505050509080600201805461058f9061121f565b80601f01602080910402602001604051908101604052809291908181526020018280546105bb9061121f565b80156106085780601f106105dd57610100808354040283529160200191610608565b820191906000526020600020905b8154815290600101906020018083116105eb57829003601f168201915b5050505050905083565b624c4b4081565b600082828080601f016020809104026020016040519081016040528093929190818152602001838380828437600081840152601f19601f82011690508083019250505050505050905060007f000000000000000000000000000000000000000000000000000000000000000073ffffffffffffffffffffffffffffffffffffffff16635b953806346000548530624c4b406040518663ffffffff1660e01b81526004016106c99493929190611276565b60206040518083038185885af11580156106e7573d6000803e3d6000fd5b50505050506040513d601f19601f8201168201806040525081019061070c919061116a565b90506000600160008381526020019081526020016000209050828160010190816107369190611477565b50338160000160006101000a81548173ffffffffffffffffffffffffffffffffffffffff021916908373ffffffffffffffffffffffffffffffffffffffff1602179055507f3048471fd20f47ab7542c9a11c26cf561f3a1a599136995c602dc9a4c100e969823387876040516107af9493929190611576565b60405180910390a15050505050565b60603073ffffffffffffffffffffffffffffffffffffffff1663a267775484846040518363ffffffff1660e01b81526004016107fb9291906115b6565b600060405180830381600087803b15801561081557600080fd5b505af1158015610829573d6000803e3d6000fd5b505050503073ffffffffffffffffffffffffffffffffffffffff1663aff0396b84846040518363ffffffff1660e01b81526004016108689291906115b6565b600060405180830381865afa158015610885573d6000803e3d6000fd5b505050506040513d6000823e3d601f19601f820116820180604052508101906108ae919061164a565b905092915050565b6060600283836040516108ca9291906116c3565b908152602001604051809103902080546108e39061121f565b80601f016020809104026020016040519081016040528092919081815260200182805461090f9061121f565b801561095c5780601f106109315761010080835404028352916020019161095c565b820191906000526020600020905b81548152906001019060200180831161093f57829003601f168201915b5050505050905092915050565b60003390507f000000000000000000000000000000000000000000000000000000000000000073ffffffffffffffffffffffffffffffffffffffff168173ffffffffffffffffffffffffffffffffffffffff1614610a20577f0000000000000000000000000000000000000000000000000000000000000000816040517f865c066e000000000000000000000000000000000000000000000000000000008152600401610a179291906116dc565b60405180910390fd5b60006001600088815260200190815260200160002090508585826002019182610a4a929190611710565b508585600283600101604051610a609190611878565b90815260200160405180910390209182610a7b9291906118f5565b507fffdb7f50df453a01154ddfe7d084a16e04da131d32de01add1e88c122759d6fe878260010188888888604051610ab896959493929190611a76565b60405180910390a150505050505050565b6000604051905090565b600080fd5b600080fd5b6000819050919050565b610af081610add565b8114610afb57600080fd5b50565b600081359050610b0d81610ae7565b92915050565b600060208284031215610b2957610b28610ad3565b5b6000610b3784828501610afe565b91505092915050565b610b4981610add565b82525050565b6000602082019050610b646000830184610b40565b92915050565b600073ffffffffffffffffffffffffffffffffffffffff82169050919050565b6000819050919050565b6000610baf610baa610ba584610b6a565b610b8a565b610b6a565b9050919050565b6000610bc182610b94565b9050919050565b6000610bd382610bb6565b9050919050565b610be381610bc8565b82525050565b6000602082019050610bfe6000830184610bda565b92915050565b60008115159050919050565b610c1981610c04565b82525050565b6000602082019050610c346000830184610c10565b92915050565b600080fd5b600080fd5b6000601f19601f8301169050919050565b7f4e487b7100000000000000000000000000000000000000000000000000000000600052604160045260246000fd5b610c8d82610c44565b810181811067ffffffffffffffff82111715610cac57610cab610c55565b5b80604052505050565b6000610cbf610ac9565b9050610ccb8282610c84565b919050565b600067ffffffffffffffff821115610ceb57610cea610c55565b5b610cf482610c44565b9050602081019050919050565b82818337600083830152505050565b6000610d23610d1e84610cd0565b610cb5565b905082815260208101848484011115610d3f57610d3e610c3f565b5b610d4a848285610d01565b509392505050565b600082601f830112610d6757610d66610c3a565b5b8135610d77848260208601610d10565b91505092915050565b600060208284031215610d9657610d95610ad3565b5b600082013567ffffffffffffffff811115610db457610db3610ad8565b5b610dc084828501610d52565b91505092915050565b600081519050919050565b600082825260208201905092915050565b60005b83811015610e03578082015181840152602081019050610de8565b60008484015250505050565b6000610e1a82610dc9565b610e248185610dd4565b9350610e34818560208601610de5565b610e3d81610c44565b840191505092915050565b60006020820190508181036000830152610e628184610e0f565b905092915050565b6000610e7582610b6a565b9050919050565b610e8581610e6a565b82525050565b600081519050919050565b600082825260208201905092915050565b6000610eb282610e8b565b610ebc8185610e96565b9350610ecc818560208601610de5565b610ed581610c44565b840191505092915050565b6000606082019050610ef56000830186610e7c565b8181036020830152610f078185610ea7565b90508181036040830152610f1b8184610ea7565b9050949350505050565b600067ffffffffffffffff82169050919050565b610f4281610f25565b82525050565b6000602082019050610f5d6000830184610f39565b92915050565b600080fd5b600080fd5b60008083601f840112610f8357610f82610c3a565b5b8235905067ffffffffffffffff811115610fa057610f9f610f63565b5b602083019150836001820283011115610fbc57610fbb610f68565b5b9250929050565b60008060208385031215610fda57610fd9610ad3565b5b600083013567ffffffffffffffff811115610ff857610ff7610ad8565b5b61100485828601610f6d565b92509250509250929050565b60008083601f84011261102657611025610c3a565b5b8235905067ffffffffffffffff81111561104357611042610f63565b5b60208301915083600182028301111561105f5761105e610f68565b5b9250929050565b60008060008060006060868803121561108257611081610ad3565b5b600061109088828901610afe565b955050602086013567ffffffffffffffff8111156110b1576110b0610ad8565b5b6110bd88828901611010565b9450945050604086013567ffffffffffffffff8111156110e0576110df610ad8565b5b6110ec88828901611010565b92509250509295509295909350565b600061111661111161110c84610f25565b610b8a565b610add565b9050919050565b611126816110fb565b82525050565b60006040820190506111416000830185610b40565b61114e602083018461111d565b9392505050565b60008151905061116481610ae7565b92915050565b6000602082840312156111805761117f610ad3565b5b600061118e84828501611155565b91505092915050565b6111a081610c04565b81146111ab57600080fd5b50565b6000815190506111bd81611197565b92915050565b6000602082840312156111d9576111d8610ad3565b5b60006111e7848285016111ae565b91505092915050565b7f4e487b7100000000000000000000000000000000000000000000000000000000600052602260045260246000fd5b6000600282049050600182168061123757607f821691505b60208210810361124a576112496111f0565b5b50919050565b50565b6000611260600083610e96565b915061126b82611250565b600082019050919050565b600060a08201905061128b6000830187610b40565b818103602083015261129d8186610ea7565b90506112ac6040830185610e7c565b6112b96060830184610f39565b81810360808301526112ca81611253565b905095945050505050565b60008190508160005260206000209050919050565b60006020601f8301049050919050565b600082821b905092915050565b6000600883026113377fffffffffffffffffffffffffffffffffffffffffffffffffffffffffffffffff826112fa565b61134186836112fa565b95508019841693508086168417925050509392505050565b600061137461136f61136a84610add565b610b8a565b610add565b9050919050565b6000819050919050565b61138e83611359565b6113a261139a8261137b565b848454611307565b825550505050565b600090565b6113b76113aa565b6113c2818484611385565b505050565b5b818110156113e6576113db6000826113af565b6001810190506113c8565b5050565b601f82111561142b576113fc816112d5565b611405846112ea565b81016020851015611414578190505b611428611420856112ea565b8301826113c7565b50505b505050565b600082821c905092915050565b600061144e60001984600802611430565b1980831691505092915050565b6000611467838361143d565b9150826002028217905092915050565b61148082610e8b565b67ffffffffffffffff81111561149957611498610c55565b5b6114a3825461121f565b6114ae8282856113ea565b600060209050601f8311600181146114e157600084156114cf578287015190505b6114d9858261145b565b865550611541565b601f1984166114ef866112d5565b60005b82811015611517578489015182556001820191506020850194506020810190506114f2565b868310156115345784890151611530601f89168261143d565b8355505b6001600288020188555050505b505050505050565b60006115558385610dd4565b9350611562838584610d01565b61156b83610c44565b840190509392505050565b600060608201905061158b6000830187610b40565b6115986020830186610e7c565b81810360408301526115ab818486611549565b905095945050505050565b600060208201905081810360008301526115d1818486611549565b90509392505050565b60006115ed6115e884610cd0565b610cb5565b90508281526020810184848401111561160957611608610c3f565b5b611614848285610de5565b509392505050565b600082601f83011261163157611630610c3a565b5b81516116418482602086016115da565b91505092915050565b6000602082840312156116605761165f610ad3565b5b600082015167ffffffffffffffff81111561167e5761167d610ad8565b5b61168a8482850161161c565b91505092915050565b600081905092915050565b60006116aa8385611693565b93506116b7838584610d01565b82840190509392505050565b60006116d082848661169e565b91508190509392505050565b60006040820190506116f16000830185610bda565b6116fe6020830184610bda565b9392505050565b600082905092915050565b61171a8383611705565b67ffffffffffffffff81111561173357611732610c55565b5b61173d825461121f565b6117488282856113ea565b6000601f8311600181146117775760008415611765578287013590505b61176f858261145b565b8655506117d7565b601f198416611785866112d5565b60005b828110156117ad57848901358255600182019150602085019450602081019050611788565b868310156117ca57848901356117c6601f89168261143d565b8355505b6001600288020188555050505b50505050505050565b60008190508160005260206000209050919050565b600081546118028161121f565b61180c8186611693565b94506001821660008114611827576001811461183c5761186f565b60ff198316865281151582028601935061186f565b611845856117e0565b60005b8381101561186757815481890152600182019150602081019050611848565b838801955050505b50505092915050565b600061188482846117f5565b915081905092915050565b600082905092915050565b60008190508160005260206000209050919050565b601f8211156118f0576118c18161189a565b6118ca846112ea565b810160208510156118d9578190505b6118ed6118e5856112ea565b8301826113c7565b50505b505050565b6118ff838361188f565b67ffffffffffffffff81111561191857611917610c55565b5b611922825461121f565b61192d8282856118af565b6000601f83116001811461195c576000841561194a578287013590505b611954858261145b565b8655506119bc565b601f19841661196a8661189a565b60005b828110156119925784890135825560018201915060208501945060208101905061196d565b868310156119af57848901356119ab601f89168261143d565b8355505b6001600288020188555050505b50505050505050565b600081546119d28161121f565b6119dc8186610dd4565b945060018216600081146119f75760018114611a0d57611a40565b60ff198316865281151560200286019350611a40565b611a16856117e0565b60005b83811015611a3857815481890152600182019150602081019050611a19565b808801955050505b50505092915050565b6000611a558385610e96565b9350611a62838584610d01565b611a6b83610c44565b840190509392505050565b6000608082019050611a8b6000830189610b40565b8181036020830152611a9d81886119c5565b90508181036040830152611ab2818688611549565b90508181036060830152611ac7818486611a49565b905097965050505050505056fea2646970667358221220cefa0902bd2d017e8b937efcf64f8143088629c08dbc2eea62a48a499f76d9d964736f6c63430008180033",
          "opcodes": "PUSH1 0xA0 PUSH1 0x40 MSTORE PUSH1 0xB PUSH1 0x0 SSTORE CALLVALUE DUP1 ISZERO PUSH3 0x16 JUMPI PUSH1 0x0 DUP1 REVERT JUMPDEST POP PUSH1 0x40 MLOAD PUSH3 0x1C72 CODESIZE SUB DUP1 PUSH3 0x1C72 DUP4 CODECOPY DUP2 DUP2 ADD PUSH1 0x40 MSTORE DUP2 ADD SWAP1 PUSH3 0x3C SWAP2 SWAP1 PUSH3 0xF7 JUMP JUMPDEST DUP1 DUP1 PUSH20 0xFFFFFFFFFFFFFFFFFFFFFFFFFFFFFFFFFFFFFFFF AND PUSH1 0x80 DUP2 PUSH20 0xFFFFFFFFFFFFFFFFFFFFFFFFFFFFFFFFFFFFFFFF AND DUP2 MSTORE POP POP POP POP PUSH3 0x129 JUMP JUMPDEST PUSH1 0x0 DUP1 REVERT JUMPDEST PUSH1 0x0 PUSH20 0xFFFFFFFFFFFFFFFFFFFFFFFFFFFFFFFFFFFFFFFF DUP3 AND SWAP1 POP SWAP2 SWAP1 POP JUMP JUMPDEST PUSH1 0x0 PUSH3 0xAB DUP3 PUSH3 0x7E JUMP JUMPDEST SWAP1 POP SWAP2 SWAP1 POP JUMP JUMPDEST PUSH1 0x0 PUSH3 0xBF DUP3 PUSH3 0x9E JUMP JUMPDEST SWAP1 POP SWAP2 SWAP1 POP JUMP JUMPDEST PUSH3 0xD1 DUP2 PUSH3 0xB2 JUMP JUMPDEST DUP2 EQ PUSH3 0xDD JUMPI PUSH1 0x0 DUP1 REVERT JUMPDEST POP JUMP JUMPDEST PUSH1 0x0 DUP2 MLOAD SWAP1 POP PUSH3 0xF1 DUP2 PUSH3 0xC6 JUMP JUMPDEST SWAP3 SWAP2 POP POP JUMP JUMPDEST PUSH1 0x0 PUSH1 0x20 DUP3 DUP5 SUB SLT ISZERO PUSH3 0x110 JUMPI PUSH3 0x10F PUSH3 0x79 JUMP JUMPDEST JUMPDEST PUSH1 0x0 PUSH3 0x120 DUP5 DUP3 DUP6 ADD PUSH3 0xE0 JUMP JUMPDEST SWAP2 POP POP SWAP3 SWAP2 POP POP JUMP JUMPDEST PUSH1 0x80 MLOAD PUSH2 0x1B0A PUSH3 0x168 PUSH1 0x0 CODECOPY PUSH1 0x0 DUP2 DUP2 PUSH2 0x298 ADD MSTORE DUP2 DUP2 PUSH2 0x33D ADD MSTORE DUP2 DUP2 PUSH2 0x363 ADD MSTORE DUP2 DUP2 PUSH2 0x666 ADD MSTORE DUP2 DUP2 PUSH2 0x970 ADD MSTORE PUSH2 0x9C3 ADD MSTORE PUSH2 0x1B0A PUSH1 0x0 RETURN INVALID PUSH1 0x80 PUSH1 0x40 MSTORE PUSH1 0x4 CALLDATASIZE LT PUSH2 0x91 JUMPI PUSH1 0x0 CALLDATALOAD PUSH1 0xE0 SHR DUP1 PUSH4 0x89B1E798 GT PUSH2 0x59 JUMPI DUP1 PUSH4 0x89B1E798 EQ PUSH2 0x1B7 JUMPI DUP1 PUSH4 0xA2677754 EQ PUSH2 0x1E2 JUMPI DUP1 PUSH4 0xA5BCC4B8 EQ PUSH2 0x1FE JUMPI DUP1 PUSH4 0xAFF0396B EQ PUSH2 0x22E JUMPI DUP1 PUSH4 0xB0347814 EQ PUSH2 0x26B JUMPI PUSH2 0x91 JUMP JUMPDEST DUP1 PUSH4 0x127E8E4D EQ PUSH2 0x96 JUMPI DUP1 PUSH4 0x31B221CD EQ PUSH2 0xD3 JUMPI DUP1 PUSH4 0x33727C4D EQ PUSH2 0xFE JUMPI DUP1 PUSH4 0x6A3AF903 EQ PUSH2 0x13B JUMPI DUP1 PUSH4 0x81D12C58 EQ PUSH2 0x178 JUMPI JUMPDEST PUSH1 0x0 DUP1 REVERT JUMPDEST CALLVALUE DUP1 ISZERO PUSH2 0xA2 JUMPI PUSH1 0x0 DUP1 REVERT JUMPDEST POP PUSH2 0xBD PUSH1 0x4 DUP1 CALLDATASIZE SUB DUP2 ADD SWAP1 PUSH2 0xB8 SWAP2 SWAP1 PUSH2 0xB13 JUMP JUMPDEST PUSH2 0x294 JUMP JUMPDEST PUSH1 0x40 MLOAD PUSH2 0xCA SWAP2 SWAP1 PUSH2 0xB4F JUMP JUMPDEST PUSH1 0x40 MLOAD DUP1 SWAP2 SUB SWAP1 RETURN JUMPDEST CALLVALUE DUP1 ISZERO PUSH2 0xDF JUMPI PUSH1 0x0 DUP1 REVERT JUMPDEST POP PUSH2 0xE8 PUSH2 0x33B JUMP JUMPDEST PUSH1 0x40 MLOAD PUSH2 0xF5 SWAP2 SWAP1 PUSH2 0xBE9 JUMP JUMPDEST PUSH1 0x40 MLOAD DUP1 SWAP2 SUB SWAP1 RETURN JUMPDEST CALLVALUE DUP1 ISZERO PUSH2 0x10A JUMPI PUSH1 0x0 DUP1 REVERT JUMPDEST POP PUSH2 0x125 PUSH1 0x4 DUP1 CALLDATASIZE SUB DUP2 ADD SWAP1 PUSH2 0x120 SWAP2 SWAP1 PUSH2 0xB13 JUMP JUMPDEST PUSH2 0x35F JUMP JUMPDEST PUSH1 0x40 MLOAD PUSH2 0x132 SWAP2 SWAP1 PUSH2 0xC1F JUMP JUMPDEST PUSH1 0x40 MLOAD DUP1 SWAP2 SUB SWAP1 RETURN JUMPDEST CALLVALUE DUP1 ISZERO PUSH2 0x147 JUMPI PUSH1 0x0 DUP1 REVERT JUMPDEST POP PUSH2 0x162 PUSH1 0x4 DUP1 CALLDATASIZE SUB DUP2 ADD SWAP1 PUSH2 0x15D SWAP2 SWAP1 PUSH2 0xD80 JUMP JUMPDEST PUSH2 0x402 JUMP JUMPDEST PUSH1 0x40 MLOAD PUSH2 0x16F SWAP2 SWAP1 PUSH2 0xE48 JUMP JUMPDEST PUSH1 0x40 MLOAD DUP1 SWAP2 SUB SWAP1 RETURN JUMPDEST CALLVALUE DUP1 ISZERO PUSH2 0x184 JUMPI PUSH1 0x0 DUP1 REVERT JUMPDEST POP PUSH2 0x19F PUSH1 0x4 DUP1 CALLDATASIZE SUB DUP2 ADD SWAP1 PUSH2 0x19A SWAP2 SWAP1 PUSH2 0xB13 JUMP JUMPDEST PUSH2 0x4B8 JUMP JUMPDEST PUSH1 0x40 MLOAD PUSH2 0x1AE SWAP4 SWAP3 SWAP2 SWAP1 PUSH2 0xEE0 JUMP JUMPDEST PUSH1 0x40 MLOAD DUP1 SWAP2 SUB SWAP1 RETURN JUMPDEST CALLVALUE DUP1 ISZERO PUSH2 0x1C3 JUMPI PUSH1 0x0 DUP1 REVERT JUMPDEST POP PUSH2 0x1CC PUSH2 0x612 JUMP JUMPDEST PUSH1 0x40 MLOAD PUSH2 0x1D9 SWAP2 SWAP1 PUSH2 0xF48 JUMP JUMPDEST PUSH1 0x40 MLOAD DUP1 SWAP2 SUB SWAP1 RETURN JUMPDEST PUSH2 0x1FC PUSH1 0x4 DUP1 CALLDATASIZE SUB DUP2 ADD SWAP1 PUSH2 0x1F7 SWAP2 SWAP1 PUSH2 0xFC3 JUMP JUMPDEST PUSH2 0x619 JUMP JUMPDEST STOP JUMPDEST PUSH2 0x218 PUSH1 0x4 DUP1 CALLDATASIZE SUB DUP2 ADD SWAP1 PUSH2 0x213 SWAP2 SWAP1 PUSH2 0xFC3 JUMP JUMPDEST PUSH2 0x7BE JUMP JUMPDEST PUSH1 0x40 MLOAD PUSH2 0x225 SWAP2 SWAP1 PUSH2 0xE48 JUMP JUMPDEST PUSH1 0x40 MLOAD DUP1 SWAP2 SUB SWAP1 RETURN JUMPDEST CALLVALUE DUP1 ISZERO PUSH2 0x23A JUMPI PUSH1 0x0 DUP1 REVERT JUMPDEST POP PUSH2 0x255 PUSH1 0x4 DUP1 CALLDATASIZE SUB DUP2 ADD SWAP1 PUSH2 0x250 SWAP2 SWAP1 PUSH2 0xFC3 JUMP JUMPDEST PUSH2 0x8B6 JUMP JUMPDEST PUSH1 0x40 MLOAD PUSH2 0x262 SWAP2 SWAP1 PUSH2 0xE48 JUMP JUMPDEST PUSH1 0x40 MLOAD DUP1 SWAP2 SUB SWAP1 RETURN JUMPDEST CALLVALUE DUP1 ISZERO PUSH2 0x277 JUMPI PUSH1 0x0 DUP1 REVERT JUMPDEST POP PUSH2 0x292 PUSH1 0x4 DUP1 CALLDATASIZE SUB DUP2 ADD SWAP1 PUSH2 0x28D SWAP2 SWAP1 PUSH2 0x1066 JUMP JUMPDEST PUSH2 0x969 JUMP JUMPDEST STOP JUMPDEST PUSH1 0x0 PUSH32 0x0 PUSH20 0xFFFFFFFFFFFFFFFFFFFFFFFFFFFFFFFFFFFFFFFF AND PUSH3 0xE1D8D0 DUP4 PUSH3 0x4C4B40 PUSH1 0x40 MLOAD DUP4 PUSH4 0xFFFFFFFF AND PUSH1 0xE0 SHL DUP2 MSTORE PUSH1 0x4 ADD PUSH2 0x2F3 SWAP3 SWAP2 SWAP1 PUSH2 0x112C JUMP JUMPDEST PUSH1 0x20 PUSH1 0x40 MLOAD DUP1 DUP4 SUB DUP2 DUP7 GAS STATICCALL ISZERO DUP1 ISZERO PUSH2 0x310 JUMPI RETURNDATASIZE PUSH1 0x0 DUP1 RETURNDATACOPY RETURNDATASIZE PUSH1 0x0 REVERT JUMPDEST POP POP POP POP PUSH1 0x40 MLOAD RETURNDATASIZE PUSH1 0x1F NOT PUSH1 0x1F DUP3 ADD AND DUP3 ADD DUP1 PUSH1 0x40 MSTORE POP DUP2 ADD SWAP1 PUSH2 0x334 SWAP2 SWAP1 PUSH2 0x116A JUMP JUMPDEST SWAP1 POP SWAP2 SWAP1 POP JUMP JUMPDEST PUSH32 0x0 DUP2 JUMP JUMPDEST PUSH1 0x0 PUSH32 0x0 PUSH20 0xFFFFFFFFFFFFFFFFFFFFFFFFFFFFFFFFFFFFFFFF AND PUSH4 0x33727C4D DUP4 PUSH1 0x40 MLOAD DUP3 PUSH4 0xFFFFFFFF AND PUSH1 0xE0 SHL DUP2 MSTORE PUSH1 0x4 ADD PUSH2 0x3BA SWAP2 SWAP1 PUSH2 0xB4F JUMP JUMPDEST PUSH1 0x20 PUSH1 0x40 MLOAD DUP1 DUP4 SUB DUP2 DUP7 GAS STATICCALL ISZERO DUP1 ISZERO PUSH2 0x3D7 JUMPI RETURNDATASIZE PUSH1 0x0 DUP1 RETURNDATACOPY RETURNDATASIZE PUSH1 0x0 REVERT JUMPDEST POP POP POP POP PUSH1 0x40 MLOAD RETURNDATASIZE PUSH1 0x1F NOT PUSH1 0x1F DUP3 ADD AND DUP3 ADD DUP1 PUSH1 0x40 MSTORE POP DUP2 ADD SWAP1 PUSH2 0x3FB SWAP2 SWAP1 PUSH2 0x11C3 JUMP JUMPDEST SWAP1 POP SWAP2 SWAP1 POP JUMP JUMPDEST PUSH1 0x2 DUP2 DUP1 MLOAD PUSH1 0x20 DUP2 ADD DUP3 ADD DUP1 MLOAD DUP5 DUP3 MSTORE PUSH1 0x20 DUP4 ADD PUSH1 0x20 DUP6 ADD KECCAK256 DUP2 DUP4 MSTORE DUP1 SWAP6 POP POP POP POP POP POP PUSH1 0x0 SWAP2 POP SWAP1 POP DUP1 SLOAD PUSH2 0x437 SWAP1 PUSH2 0x121F JUMP JUMPDEST DUP1 PUSH1 0x1F ADD PUSH1 0x20 DUP1 SWAP2 DIV MUL PUSH1 0x20 ADD PUSH1 0x40 MLOAD SWAP1 DUP2 ADD PUSH1 0x40 MSTORE DUP1 SWAP3 SWAP2 SWAP1 DUP2 DUP2 MSTORE PUSH1 0x20 ADD DUP3 DUP1 SLOAD PUSH2 0x463 SWAP1 PUSH2 0x121F JUMP JUMPDEST DUP1 ISZERO PUSH2 0x4B0 JUMPI DUP1 PUSH1 0x1F LT PUSH2 0x485 JUMPI PUSH2 0x100 DUP1 DUP4 SLOAD DIV MUL DUP4 MSTORE SWAP2 PUSH1 0x20 ADD SWAP2 PUSH2 0x4B0 JUMP JUMPDEST DUP3 ADD SWAP2 SWAP1 PUSH1 0x0 MSTORE PUSH1 0x20 PUSH1 0x0 KECCAK256 SWAP1 JUMPDEST DUP2 SLOAD DUP2 MSTORE SWAP1 PUSH1 0x1 ADD SWAP1 PUSH1 0x20 ADD DUP1 DUP4 GT PUSH2 0x493 JUMPI DUP3 SWAP1 SUB PUSH1 0x1F AND DUP3 ADD SWAP2 JUMPDEST POP POP POP POP POP DUP2 JUMP JUMPDEST PUSH1 0x1 PUSH1 0x20 MSTORE DUP1 PUSH1 0x0 MSTORE PUSH1 0x40 PUSH1 0x0 KECCAK256 PUSH1 0x0 SWAP2 POP SWAP1 POP DUP1 PUSH1 0x0 ADD PUSH1 0x0 SWAP1 SLOAD SWAP1 PUSH2 0x100 EXP SWAP1 DIV PUSH20 0xFFFFFFFFFFFFFFFFFFFFFFFFFFFFFFFFFFFFFFFF AND SWAP1 DUP1 PUSH1 0x1 ADD DUP1 SLOAD PUSH2 0x501 SWAP1 PUSH2 0x121F JUMP JUMPDEST DUP1 PUSH1 0x1F ADD PUSH1 0x20 DUP1 SWAP2 DIV MUL PUSH1 0x20 ADD PUSH1 0x40 MLOAD SWAP1 DUP2 ADD PUSH1 0x40 MSTORE DUP1 SWAP3 SWAP2 SWAP1 DUP2 DUP2 MSTORE PUSH1 0x20 ADD DUP3 DUP1 SLOAD PUSH2 0x52D SWAP1 PUSH2 0x121F JUMP JUMPDEST DUP1 ISZERO PUSH2 0x57A JUMPI DUP1 PUSH1 0x1F LT PUSH2 0x54F JUMPI PUSH2 0x100 DUP1 DUP4 SLOAD DIV MUL DUP4 MSTORE SWAP2 PUSH1 0x20 ADD SWAP2 PUSH2 0x57A JUMP JUMPDEST DUP3 ADD SWAP2 SWAP1 PUSH1 0x0 MSTORE PUSH1 0x20 PUSH1 0x0 KECCAK256 SWAP1 JUMPDEST DUP2 SLOAD DUP2 MSTORE SWAP1 PUSH1 0x1 ADD SWAP1 PUSH1 0x20 ADD DUP1 DUP4 GT PUSH2 0x55D JUMPI DUP3 SWAP1 SUB PUSH1 0x1F AND DUP3 ADD SWAP2 JUMPDEST POP POP POP POP POP SWAP1 DUP1 PUSH1 0x2 ADD DUP1 SLOAD PUSH2 0x58F SWAP1 PUSH2 0x121F JUMP JUMPDEST DUP1 PUSH1 0x1F ADD PUSH1 0x20 DUP1 SWAP2 DIV MUL PUSH1 0x20 ADD PUSH1 0x40 MLOAD SWAP1 DUP2 ADD PUSH1 0x40 MSTORE DUP1 SWAP3 SWAP2 SWAP1 DUP2 DUP2 MSTORE PUSH1 0x20 ADD DUP3 DUP1 SLOAD PUSH2 0x5BB SWAP1 PUSH2 0x121F JUMP JUMPDEST DUP1 ISZERO PUSH2 0x608 JUMPI DUP1 PUSH1 0x1F LT PUSH2 0x5DD JUMPI PUSH2 0x100 DUP1 DUP4 SLOAD DIV MUL DUP4 MSTORE SWAP2 PUSH1 0x20 ADD SWAP2 PUSH2 0x608 JUMP JUMPDEST DUP3 ADD SWAP2 SWAP1 PUSH1 0x0 MSTORE PUSH1 0x20 PUSH1 0x0 KECCAK256 SWAP1 JUMPDEST DUP2 SLOAD DUP2 MSTORE SWAP1 PUSH1 0x1 ADD SWAP1 PUSH1 0x20 ADD DUP1 DUP4 GT PUSH2 0x5EB JUMPI DUP3 SWAP1 SUB PUSH1 0x1F AND DUP3 ADD SWAP2 JUMPDEST POP POP POP POP POP SWAP1 POP DUP4 JUMP JUMPDEST PUSH3 0x4C4B40 DUP2 JUMP JUMPDEST PUSH1 0x0 DUP3 DUP3 DUP1 DUP1 PUSH1 0x1F ADD PUSH1 0x20 DUP1 SWAP2 DIV MUL PUSH1 0x20 ADD PUSH1 0x40 MLOAD SWAP1 DUP2 ADD PUSH1 0x40 MSTORE DUP1 SWAP4 SWAP3 SWAP2 SWAP1 DUP2 DUP2 MSTORE PUSH1 0x20 ADD DUP4 DUP4 DUP1 DUP3 DUP5 CALLDATACOPY PUSH1 0x0 DUP2 DUP5 ADD MSTORE PUSH1 0x1F NOT PUSH1 0x1F DUP3 ADD AND SWAP1 POP DUP1 DUP4 ADD SWAP3 POP POP POP POP POP POP POP SWAP1 POP PUSH1 0x0 PUSH32 0x0 PUSH20 0xFFFFFFFFFFFFFFFFFFFFFFFFFFFFFFFFFFFFFFFF AND PUSH4 0x5B953806 CALLVALUE PUSH1 0x0 SLOAD DUP6 ADDRESS PUSH3 0x4C4B40 PUSH1 0x40 MLOAD DUP7 PUSH4 0xFFFFFFFF AND PUSH1 0xE0 SHL DUP2 MSTORE PUSH1 0x4 ADD PUSH2 0x6C9 SWAP5 SWAP4 SWAP3 SWAP2 SWAP1 PUSH2 0x1276 JUMP JUMPDEST PUSH1 0x20 PUSH1 0x40 MLOAD DUP1 DUP4 SUB DUP2 DUP6 DUP9 GAS CALL ISZERO DUP1 ISZERO PUSH2 0x6E7 JUMPI RETURNDATASIZE PUSH1 0x0 DUP1 RETURNDATACOPY RETURNDATASIZE PUSH1 0x0 REVERT JUMPDEST POP POP POP POP POP PUSH1 0x40 MLOAD RETURNDATASIZE PUSH1 0x1F NOT PUSH1 0x1F DUP3 ADD AND DUP3 ADD DUP1 PUSH1 0x40 MSTORE POP DUP2 ADD SWAP1 PUSH2 0x70C SWAP2 SWAP1 PUSH2 0x116A JUMP JUMPDEST SWAP1 POP PUSH1 0x0 PUSH1 0x1 PUSH1 0x0 DUP4 DUP2 MSTORE PUSH1 0x20 ADD SWAP1 DUP2 MSTORE PUSH1 0x20 ADD PUSH1 0x0 KECCAK256 SWAP1 POP DUP3 DUP2 PUSH1 0x1 ADD SWAP1 DUP2 PUSH2 0x736 SWAP2 SWAP1 PUSH2 0x1477 JUMP JUMPDEST POP CALLER DUP2 PUSH1 0x0 ADD PUSH1 0x0 PUSH2 0x100 EXP DUP2 SLOAD DUP2 PUSH20 0xFFFFFFFFFFFFFFFFFFFFFFFFFFFFFFFFFFFFFFFF MUL NOT AND SWAP1 DUP4 PUSH20 0xFFFFFFFFFFFFFFFFFFFFFFFFFFFFFFFFFFFFFFFF AND MUL OR SWAP1 SSTORE POP PUSH32 0x3048471FD20F47AB7542C9A11C26CF561F3A1A599136995C602DC9A4C100E969 DUP3 CALLER DUP8 DUP8 PUSH1 0x40 MLOAD PUSH2 0x7AF SWAP5 SWAP4 SWAP3 SWAP2 SWAP1 PUSH2 0x1576 JUMP JUMPDEST PUSH1 0x40 MLOAD DUP1 SWAP2 SUB SWAP1 LOG1 POP POP POP POP POP JUMP JUMPDEST PUSH1 0x60 ADDRESS PUSH20 0xFFFFFFFFFFFFFFFFFFFFFFFFFFFFFFFFFFFFFFFF AND PUSH4 0xA2677754 DUP5 DUP5 PUSH1 0x40 MLOAD DUP4 PUSH4 0xFFFFFFFF AND PUSH1 0xE0 SHL DUP2 MSTORE PUSH1 0x4 ADD PUSH2 0x7FB SWAP3 SWAP2 SWAP1 PUSH2 0x15B6 JUMP JUMPDEST PUSH1 0x0 PUSH1 0x40 MLOAD DUP1 DUP4 SUB DUP2 PUSH1 0x0 DUP8 DUP1 EXTCODESIZE ISZERO DUP1 ISZERO PUSH2 0x815 JUMPI PUSH1 0x0 DUP1 REVERT JUMPDEST POP GAS CALL ISZERO DUP1 ISZERO PUSH2 0x829 JUMPI RETURNDATASIZE PUSH1 0x0 DUP1 RETURNDATACOPY RETURNDATASIZE PUSH1 0x0 REVERT JUMPDEST POP POP POP POP ADDRESS PUSH20 0xFFFFFFFFFFFFFFFFFFFFFFFFFFFFFFFFFFFFFFFF AND PUSH4 0xAFF0396B DUP5 DUP5 PUSH1 0x40 MLOAD DUP4 PUSH4 0xFFFFFFFF AND PUSH1 0xE0 SHL DUP2 MSTORE PUSH1 0x4 ADD PUSH2 0x868 SWAP3 SWAP2 SWAP1 PUSH2 0x15B6 JUMP JUMPDEST PUSH1 0x0 PUSH1 0x40 MLOAD DUP1 DUP4 SUB DUP2 DUP7 GAS STATICCALL ISZERO DUP1 ISZERO PUSH2 0x885 JUMPI RETURNDATASIZE PUSH1 0x0 DUP1 RETURNDATACOPY RETURNDATASIZE PUSH1 0x0 REVERT JUMPDEST POP POP POP POP PUSH1 0x40 MLOAD RETURNDATASIZE PUSH1 0x0 DUP3 RETURNDATACOPY RETURNDATASIZE PUSH1 0x1F NOT PUSH1 0x1F DUP3 ADD AND DUP3 ADD DUP1 PUSH1 0x40 MSTORE POP DUP2 ADD SWAP1 PUSH2 0x8AE SWAP2 SWAP1 PUSH2 0x164A JUMP JUMPDEST SWAP1 POP SWAP3 SWAP2 POP POP JUMP JUMPDEST PUSH1 0x60 PUSH1 0x2 DUP4 DUP4 PUSH1 0x40 MLOAD PUSH2 0x8CA SWAP3 SWAP2 SWAP1 PUSH2 0x16C3 JUMP JUMPDEST SWAP1 DUP2 MSTORE PUSH1 0x20 ADD PUSH1 0x40 MLOAD DUP1 SWAP2 SUB SWAP1 KECCAK256 DUP1 SLOAD PUSH2 0x8E3 SWAP1 PUSH2 0x121F JUMP JUMPDEST DUP1 PUSH1 0x1F ADD PUSH1 0x20 DUP1 SWAP2 DIV MUL PUSH1 0x20 ADD PUSH1 0x40 MLOAD SWAP1 DUP2 ADD PUSH1 0x40 MSTORE DUP1 SWAP3 SWAP2 SWAP1 DUP2 DUP2 MSTORE PUSH1 0x20 ADD DUP3 DUP1 SLOAD PUSH2 0x90F SWAP1 PUSH2 0x121F JUMP JUMPDEST DUP1 ISZERO PUSH2 0x95C JUMPI DUP1 PUSH1 0x1F LT PUSH2 0x931 JUMPI PUSH2 0x100 DUP1 DUP4 SLOAD DIV MUL DUP4 MSTORE SWAP2 PUSH1 0x20 ADD SWAP2 PUSH2 0x95C JUMP JUMPDEST DUP3 ADD SWAP2 SWAP1 PUSH1 0x0 MSTORE PUSH1 0x20 PUSH1 0x0 KECCAK256 SWAP1 JUMPDEST DUP2 SLOAD DUP2 MSTORE SWAP1 PUSH1 0x1 ADD SWAP1 PUSH1 0x20 ADD DUP1 DUP4 GT PUSH2 0x93F JUMPI DUP3 SWAP1 SUB PUSH1 0x1F AND DUP3 ADD SWAP2 JUMPDEST POP POP POP POP POP SWAP1 POP SWAP3 SWAP2 POP POP JUMP JUMPDEST PUSH1 0x0 CALLER SWAP1 POP PUSH32 0x0 PUSH20 0xFFFFFFFFFFFFFFFFFFFFFFFFFFFFFFFFFFFFFFFF AND DUP2 PUSH20 0xFFFFFFFFFFFFFFFFFFFFFFFFFFFFFFFFFFFFFFFF AND EQ PUSH2 0xA20 JUMPI PUSH32 0x0 DUP2 PUSH1 0x40 MLOAD PUSH32 0x865C066E00000000000000000000000000000000000000000000000000000000 DUP2 MSTORE PUSH1 0x4 ADD PUSH2 0xA17 SWAP3 SWAP2 SWAP1 PUSH2 0x16DC JUMP JUMPDEST PUSH1 0x40 MLOAD DUP1 SWAP2 SUB SWAP1 REVERT JUMPDEST PUSH1 0x0 PUSH1 0x1 PUSH1 0x0 DUP9 DUP2 MSTORE PUSH1 0x20 ADD SWAP1 DUP2 MSTORE PUSH1 0x20 ADD PUSH1 0x0 KECCAK256 SWAP1 POP DUP6 DUP6 DUP3 PUSH1 0x2 ADD SWAP2 DUP3 PUSH2 0xA4A SWAP3 SWAP2 SWAP1 PUSH2 0x1710 JUMP JUMPDEST POP DUP6 DUP6 PUSH1 0x2 DUP4 PUSH1 0x1 ADD PUSH1 0x40 MLOAD PUSH2 0xA60 SWAP2 SWAP1 PUSH2 0x1878 JUMP JUMPDEST SWAP1 DUP2 MSTORE PUSH1 0x20 ADD PUSH1 0x40 MLOAD DUP1 SWAP2 SUB SWAP1 KECCAK256 SWAP2 DUP3 PUSH2 0xA7B SWAP3 SWAP2 SWAP1 PUSH2 0x18F5 JUMP JUMPDEST POP PUSH32 0xFFDB7F50DF453A01154DDFE7D084A16E04DA131D32DE01ADD1E88C122759D6FE DUP8 DUP3 PUSH1 0x1 ADD DUP9 DUP9 DUP9 DUP9 PUSH1 0x40 MLOAD PUSH2 0xAB8 SWAP7 SWAP6 SWAP5 SWAP4 SWAP3 SWAP2 SWAP1 PUSH2 0x1A76 JUMP JUMPDEST PUSH1 0x40 MLOAD DUP1 SWAP2 SUB SWAP1 LOG1 POP POP POP POP POP POP POP JUMP JUMPDEST PUSH1 0x0 PUSH1 0x40 MLOAD SWAP1 POP SWAP1 JUMP JUMPDEST PUSH1 0x0 DUP1 REVERT JUMPDEST PUSH1 0x0 DUP1 REVERT JUMPDEST PUSH1 0x0 DUP2 SWAP1 POP SWAP2 SWAP1 POP JUMP JUMPDEST PUSH2 0xAF0 DUP2 PUSH2 0xADD JUMP JUMPDEST DUP2 EQ PUSH2 0xAFB JUMPI PUSH1 0x0 DUP1 REVERT JUMPDEST POP JUMP JUMPDEST PUSH1 0x0 DUP2 CALLDATALOAD SWAP1 POP PUSH2 0xB0D DUP2 PUSH2 0xAE7 JUMP JUMPDEST SWAP3 SWAP2 POP POP JUMP JUMPDEST PUSH1 0x0 PUSH1 0x20 DUP3 DUP5 SUB SLT ISZERO PUSH2 0xB29 JUMPI PUSH2 0xB28 PUSH2 0xAD3 JUMP JUMPDEST JUMPDEST PUSH1 0x0 PUSH2 0xB37 DUP5 DUP3 DUP6 ADD PUSH2 0xAFE JUMP JUMPDEST SWAP2 POP POP SWAP3 SWAP2 POP POP JUMP JUMPDEST PUSH2 0xB49 DUP2 PUSH2 0xADD JUMP JUMPDEST DUP3 MSTORE POP POP JUMP JUMPDEST PUSH1 0x0 PUSH1 0x20 DUP3 ADD SWAP1 POP PUSH2 0xB64 PUSH1 0x0 DUP4 ADD DUP5 PUSH2 0xB40 JUMP JUMPDEST SWAP3 SWAP2 POP POP JUMP JUMPDEST PUSH1 0x0 PUSH20 0xFFFFFFFFFFFFFFFFFFFFFFFFFFFFFFFFFFFFFFFF DUP3 AND SWAP1 POP SWAP2 SWAP1 POP JUMP JUMPDEST PUSH1 0x0 DUP2 SWAP1 POP SWAP2 SWAP1 POP JUMP JUMPDEST PUSH1 0x0 PUSH2 0xBAF PUSH2 0xBAA PUSH2 0xBA5 DUP5 PUSH2 0xB6A JUMP JUMPDEST PUSH2 0xB8A JUMP JUMPDEST PUSH2 0xB6A JUMP JUMPDEST SWAP1 POP SWAP2 SWAP1 POP JUMP JUMPDEST PUSH1 0x0 PUSH2 0xBC1 DUP3 PUSH2 0xB94 JUMP JUMPDEST SWAP1 POP SWAP2 SWAP1 POP JUMP JUMPDEST PUSH1 0x0 PUSH2 0xBD3 DUP3 PUSH2 0xBB6 JUMP JUMPDEST SWAP1 POP SWAP2 SWAP1 POP JUMP JUMPDEST PUSH2 0xBE3 DUP2 PUSH2 0xBC8 JUMP JUMPDEST DUP3 MSTORE POP POP JUMP JUMPDEST PUSH1 0x0 PUSH1 0x20 DUP3 ADD SWAP1 POP PUSH2 0xBFE PUSH1 0x0 DUP4 ADD DUP5 PUSH2 0xBDA JUMP JUMPDEST SWAP3 SWAP2 POP POP JUMP JUMPDEST PUSH1 0x0 DUP2 ISZERO ISZERO SWAP1 POP SWAP2 SWAP1 POP JUMP JUMPDEST PUSH2 0xC19 DUP2 PUSH2 0xC04 JUMP JUMPDEST DUP3 MSTORE POP POP JUMP JUMPDEST PUSH1 0x0 PUSH1 0x20 DUP3 ADD SWAP1 POP PUSH2 0xC34 PUSH1 0x0 DUP4 ADD DUP5 PUSH2 0xC10 JUMP JUMPDEST SWAP3 SWAP2 POP POP JUMP JUMPDEST PUSH1 0x0 DUP1 REVERT JUMPDEST PUSH1 0x0 DUP1 REVERT JUMPDEST PUSH1 0x0 PUSH1 0x1F NOT PUSH1 0x1F DUP4 ADD AND SWAP1 POP SWAP2 SWAP1 POP JUMP JUMPDEST PUSH32 0x4E487B7100000000000000000000000000000000000000000000000000000000 PUSH1 0x0 MSTORE PUSH1 0x41 PUSH1 0x4 MSTORE PUSH1 0x24 PUSH1 0x0 REVERT JUMPDEST PUSH2 0xC8D DUP3 PUSH2 0xC44 JUMP JUMPDEST DUP2 ADD DUP2 DUP2 LT PUSH8 0xFFFFFFFFFFFFFFFF DUP3 GT OR ISZERO PUSH2 0xCAC JUMPI PUSH2 0xCAB PUSH2 0xC55 JUMP JUMPDEST JUMPDEST DUP1 PUSH1 0x40 MSTORE POP POP POP JUMP JUMPDEST PUSH1 0x0 PUSH2 0xCBF PUSH2 0xAC9 JUMP JUMPDEST SWAP1 POP PUSH2 0xCCB DUP3 DUP3 PUSH2 0xC84 JUMP JUMPDEST SWAP2 SWAP1 POP JUMP JUMPDEST PUSH1 0x0 PUSH8 0xFFFFFFFFFFFFFFFF DUP3 GT ISZERO PUSH2 0xCEB JUMPI PUSH2 0xCEA PUSH2 0xC55 JUMP JUMPDEST JUMPDEST PUSH2 0xCF4 DUP3 PUSH2 0xC44 JUMP JUMPDEST SWAP1 POP PUSH1 0x20 DUP2 ADD SWAP1 POP SWAP2 SWAP1 POP JUMP JUMPDEST DUP3 DUP2 DUP4 CALLDATACOPY PUSH1 0x0 DUP4 DUP4 ADD MSTORE POP POP POP JUMP JUMPDEST PUSH1 0x0 PUSH2 0xD23 PUSH2 0xD1E DUP5 PUSH2 0xCD0 JUMP JUMPDEST PUSH2 0xCB5 JUMP JUMPDEST SWAP1 POP DUP3 DUP2 MSTORE PUSH1 0x20 DUP2 ADD DUP5 DUP5 DUP5 ADD GT ISZERO PUSH2 0xD3F JUMPI PUSH2 0xD3E PUSH2 0xC3F JUMP JUMPDEST JUMPDEST PUSH2 0xD4A DUP5 DUP3 DUP6 PUSH2 0xD01 JUMP JUMPDEST POP SWAP4 SWAP3 POP POP POP JUMP JUMPDEST PUSH1 0x0 DUP3 PUSH1 0x1F DUP4 ADD SLT PUSH2 0xD67 JUMPI PUSH2 0xD66 PUSH2 0xC3A JUMP JUMPDEST JUMPDEST DUP2 CALLDATALOAD PUSH2 0xD77 DUP5 DUP3 PUSH1 0x20 DUP7 ADD PUSH2 0xD10 JUMP JUMPDEST SWAP2 POP POP SWAP3 SWAP2 POP POP JUMP JUMPDEST PUSH1 0x0 PUSH1 0x20 DUP3 DUP5 SUB SLT ISZERO PUSH2 0xD96 JUMPI PUSH2 0xD95 PUSH2 0xAD3 JUMP JUMPDEST JUMPDEST PUSH1 0x0 DUP3 ADD CALLDATALOAD PUSH8 0xFFFFFFFFFFFFFFFF DUP2 GT ISZERO PUSH2 0xDB4 JUMPI PUSH2 0xDB3 PUSH2 0xAD8 JUMP JUMPDEST JUMPDEST PUSH2 0xDC0 DUP5 DUP3 DUP6 ADD PUSH2 0xD52 JUMP JUMPDEST SWAP2 POP POP SWAP3 SWAP2 POP POP JUMP JUMPDEST PUSH1 0x0 DUP2 MLOAD SWAP1 POP SWAP2 SWAP1 POP JUMP JUMPDEST PUSH1 0x0 DUP3 DUP3 MSTORE PUSH1 0x20 DUP3 ADD SWAP1 POP SWAP3 SWAP2 POP POP JUMP JUMPDEST PUSH1 0x0 JUMPDEST DUP4 DUP2 LT ISZERO PUSH2 0xE03 JUMPI DUP1 DUP3 ADD MLOAD DUP2 DUP5 ADD MSTORE PUSH1 0x20 DUP2 ADD SWAP1 POP PUSH2 0xDE8 JUMP JUMPDEST PUSH1 0x0 DUP5 DUP5 ADD MSTORE POP POP POP POP JUMP JUMPDEST PUSH1 0x0 PUSH2 0xE1A DUP3 PUSH2 0xDC9 JUMP JUMPDEST PUSH2 0xE24 DUP2 DUP6 PUSH2 0xDD4 JUMP JUMPDEST SWAP4 POP PUSH2 0xE34 DUP2 DUP6 PUSH1 0x20 DUP7 ADD PUSH2 0xDE5 JUMP JUMPDEST PUSH2 0xE3D DUP2 PUSH2 0xC44 JUMP JUMPDEST DUP5 ADD SWAP2 POP POP SWAP3 SWAP2 POP POP JUMP JUMPDEST PUSH1 0x0 PUSH1 0x20 DUP3 ADD SWAP1 POP DUP2 DUP2 SUB PUSH1 0x0 DUP4 ADD MSTORE PUSH2 0xE62 DUP2 DUP5 PUSH2 0xE0F JUMP JUMPDEST SWAP1 POP SWAP3 SWAP2 POP POP JUMP JUMPDEST PUSH1 0x0 PUSH2 0xE75 DUP3 PUSH2 0xB6A JUMP JUMPDEST SWAP1 POP SWAP2 SWAP1 POP JUMP JUMPDEST PUSH2 0xE85 DUP2 PUSH2 0xE6A JUMP JUMPDEST DUP3 MSTORE POP POP JUMP JUMPDEST PUSH1 0x0 DUP2 MLOAD SWAP1 POP SWAP2 SWAP1 POP JUMP JUMPDEST PUSH1 0x0 DUP3 DUP3 MSTORE PUSH1 0x20 DUP3 ADD SWAP1 POP SWAP3 SWAP2 POP POP JUMP JUMPDEST PUSH1 0x0 PUSH2 0xEB2 DUP3 PUSH2 0xE8B JUMP JUMPDEST PUSH2 0xEBC DUP2 DUP6 PUSH2 0xE96 JUMP JUMPDEST SWAP4 POP PUSH2 0xECC DUP2 DUP6 PUSH1 0x20 DUP7 ADD PUSH2 0xDE5 JUMP JUMPDEST PUSH2 0xED5 DUP2 PUSH2 0xC44 JUMP JUMPDEST DUP5 ADD SWAP2 POP POP SWAP3 SWAP2 POP POP JUMP JUMPDEST PUSH1 0x0 PUSH1 0x60 DUP3 ADD SWAP1 POP PUSH2 0xEF5 PUSH1 0x0 DUP4 ADD DUP7 PUSH2 0xE7C JUMP JUMPDEST DUP2 DUP2 SUB PUSH1 0x20 DUP4 ADD MSTORE PUSH2 0xF07 DUP2 DUP6 PUSH2 0xEA7 JUMP JUMPDEST SWAP1 POP DUP2 DUP2 SUB PUSH1 0x40 DUP4 ADD MSTORE PUSH2 0xF1B DUP2 DUP5 PUSH2 0xEA7 JUMP JUMPDEST SWAP1 POP SWAP5 SWAP4 POP POP POP POP JUMP JUMPDEST PUSH1 0x0 PUSH8 0xFFFFFFFFFFFFFFFF DUP3 AND SWAP1 POP SWAP2 SWAP1 POP JUMP JUMPDEST PUSH2 0xF42 DUP2 PUSH2 0xF25 JUMP JUMPDEST DUP3 MSTORE POP POP JUMP JUMPDEST PUSH1 0x0 PUSH1 0x20 DUP3 ADD SWAP1 POP PUSH2 0xF5D PUSH1 0x0 DUP4 ADD DUP5 PUSH2 0xF39 JUMP JUMPDEST SWAP3 SWAP2 POP POP JUMP JUMPDEST PUSH1 0x0 DUP1 REVERT JUMPDEST PUSH1 0x0 DUP1 REVERT JUMPDEST PUSH1 0x0 DUP1 DUP4 PUSH1 0x1F DUP5 ADD SLT PUSH2 0xF83 JUMPI PUSH2 0xF82 PUSH2 0xC3A JUMP JUMPDEST JUMPDEST DUP3 CALLDATALOAD SWAP1 POP PUSH8 0xFFFFFFFFFFFFFFFF DUP2 GT ISZERO PUSH2 0xFA0 JUMPI PUSH2 0xF9F PUSH2 0xF63 JUMP JUMPDEST JUMPDEST PUSH1 0x20 DUP4 ADD SWAP2 POP DUP4 PUSH1 0x1 DUP3 MUL DUP4 ADD GT ISZERO PUSH2 0xFBC JUMPI PUSH2 0xFBB PUSH2 0xF68 JUMP JUMPDEST JUMPDEST SWAP3 POP SWAP3 SWAP1 POP JUMP JUMPDEST PUSH1 0x0 DUP1 PUSH1 0x20 DUP4 DUP6 SUB SLT ISZERO PUSH2 0xFDA JUMPI PUSH2 0xFD9 PUSH2 0xAD3 JUMP JUMPDEST JUMPDEST PUSH1 0x0 DUP4 ADD CALLDATALOAD PUSH8 0xFFFFFFFFFFFFFFFF DUP2 GT ISZERO PUSH2 0xFF8 JUMPI PUSH2 0xFF7 PUSH2 0xAD8 JUMP JUMPDEST JUMPDEST PUSH2 0x1004 DUP6 DUP3 DUP7 ADD PUSH2 0xF6D JUMP JUMPDEST SWAP3 POP SWAP3 POP POP SWAP3 POP SWAP3 SWAP1 POP JUMP JUMPDEST PUSH1 0x0 DUP1 DUP4 PUSH1 0x1F DUP5 ADD SLT PUSH2 0x1026 JUMPI PUSH2 0x1025 PUSH2 0xC3A JUMP JUMPDEST JUMPDEST DUP3 CALLDATALOAD SWAP1 POP PUSH8 0xFFFFFFFFFFFFFFFF DUP2 GT ISZERO PUSH2 0x1043 JUMPI PUSH2 0x1042 PUSH2 0xF63 JUMP JUMPDEST JUMPDEST PUSH1 0x20 DUP4 ADD SWAP2 POP DUP4 PUSH1 0x1 DUP3 MUL DUP4 ADD GT ISZERO PUSH2 0x105F JUMPI PUSH2 0x105E PUSH2 0xF68 JUMP JUMPDEST JUMPDEST SWAP3 POP SWAP3 SWAP1 POP JUMP JUMPDEST PUSH1 0x0 DUP1 PUSH1 0x0 DUP1 PUSH1 0x0 PUSH1 0x60 DUP7 DUP9 SUB SLT ISZERO PUSH2 0x1082 JUMPI PUSH2 0x1081 PUSH2 0xAD3 JUMP JUMPDEST JUMPDEST PUSH1 0x0 PUSH2 0x1090 DUP9 DUP3 DUP10 ADD PUSH2 0xAFE JUMP JUMPDEST SWAP6 POP POP PUSH1 0x20 DUP7 ADD CALLDATALOAD PUSH8 0xFFFFFFFFFFFFFFFF DUP2 GT ISZERO PUSH2 0x10B1 JUMPI PUSH2 0x10B0 PUSH2 0xAD8 JUMP JUMPDEST JUMPDEST PUSH2 0x10BD DUP9 DUP3 DUP10 ADD PUSH2 0x1010 JUMP JUMPDEST SWAP5 POP SWAP5 POP POP PUSH1 0x40 DUP7 ADD CALLDATALOAD PUSH8 0xFFFFFFFFFFFFFFFF DUP2 GT ISZERO PUSH2 0x10E0 JUMPI PUSH2 0x10DF PUSH2 0xAD8 JUMP JUMPDEST JUMPDEST PUSH2 0x10EC DUP9 DUP3 DUP10 ADD PUSH2 0x1010 JUMP JUMPDEST SWAP3 POP SWAP3 POP POP SWAP3 SWAP6 POP SWAP3 SWAP6 SWAP1 SWAP4 POP JUMP JUMPDEST PUSH1 0x0 PUSH2 0x1116 PUSH2 0x1111 PUSH2 0x110C DUP5 PUSH2 0xF25 JUMP JUMPDEST PUSH2 0xB8A JUMP JUMPDEST PUSH2 0xADD JUMP JUMPDEST SWAP1 POP SWAP2 SWAP1 POP JUMP JUMPDEST PUSH2 0x1126 DUP2 PUSH2 0x10FB JUMP JUMPDEST DUP3 MSTORE POP POP JUMP JUMPDEST PUSH1 0x0 PUSH1 0x40 DUP3 ADD SWAP1 POP PUSH2 0x1141 PUSH1 0x0 DUP4 ADD DUP6 PUSH2 0xB40 JUMP JUMPDEST PUSH2 0x114E PUSH1 0x20 DUP4 ADD DUP5 PUSH2 0x111D JUMP JUMPDEST SWAP4 SWAP3 POP POP POP JUMP JUMPDEST PUSH1 0x0 DUP2 MLOAD SWAP1 POP PUSH2 0x1164 DUP2 PUSH2 0xAE7 JUMP JUMPDEST SWAP3 SWAP2 POP POP JUMP JUMPDEST PUSH1 0x0 PUSH1 0x20 DUP3 DUP5 SUB SLT ISZERO PUSH2 0x1180 JUMPI PUSH2 0x117F PUSH2 0xAD3 JUMP JUMPDEST JUMPDEST PUSH1 0x0 PUSH2 0x118E DUP5 DUP3 DUP6 ADD PUSH2 0x1155 JUMP JUMPDEST SWAP2 POP POP SWAP3 SWAP2 POP POP JUMP JUMPDEST PUSH2 0x11A0 DUP2 PUSH2 0xC04 JUMP JUMPDEST DUP2 EQ PUSH2 0x11AB JUMPI PUSH1 0x0 DUP1 REVERT JUMPDEST POP JUMP JUMPDEST PUSH1 0x0 DUP2 MLOAD SWAP1 POP PUSH2 0x11BD DUP2 PUSH2 0x1197 JUMP JUMPDEST SWAP3 SWAP2 POP POP JUMP JUMPDEST PUSH1 0x0 PUSH1 0x20 DUP3 DUP5 SUB SLT ISZERO PUSH2 0x11D9 JUMPI PUSH2 0x11D8 PUSH2 0xAD3 JUMP JUMPDEST JUMPDEST PUSH1 0x0 PUSH2 0x11E7 DUP5 DUP3 DUP6 ADD PUSH2 0x11AE JUMP JUMPDEST SWAP2 POP POP SWAP3 SWAP2 POP POP JUMP JUMPDEST PUSH32 0x4E487B7100000000000000000000000000000000000000000000000000000000 PUSH1 0x0 MSTORE PUSH1 0x22 PUSH1 0x4 MSTORE PUSH1 0x24 PUSH1 0x0 REVERT JUMPDEST PUSH1 0x0 PUSH1 0x2 DUP3 DIV SWAP1 POP PUSH1 0x1 DUP3 AND DUP1 PUSH2 0x1237 JUMPI PUSH1 0x7F DUP3 AND SWAP2 POP JUMPDEST PUSH1 0x20 DUP3 LT DUP2 SUB PUSH2 0x124A JUMPI PUSH2 0x1249 PUSH2 0x11F0 JUMP JUMPDEST JUMPDEST POP SWAP2 SWAP1 POP JUMP JUMPDEST POP JUMP JUMPDEST PUSH1 0x0 PUSH2 0x1260 PUSH1 0x0 DUP4 PUSH2 0xE96 JUMP JUMPDEST SWAP2 POP PUSH2 0x126B DUP3 PUSH2 0x1250 JUMP JUMPDEST PUSH1 0x0 DUP3 ADD SWAP1 POP SWAP2 SWAP1 POP JUMP JUMPDEST PUSH1 0x0 PUSH1 0xA0 DUP3 ADD SWAP1 POP PUSH2 0x128B PUSH1 0x0 DUP4 ADD DUP8 PUSH2 0xB40 JUMP JUMPDEST DUP2 DUP2 SUB PUSH1 0x20 DUP4 ADD MSTORE PUSH2 0x129D DUP2 DUP7 PUSH2 0xEA7 JUMP JUMPDEST SWAP1 POP PUSH2 0x12AC PUSH1 0x40 DUP4 ADD DUP6 PUSH2 0xE7C JUMP JUMPDEST PUSH2 0x12B9 PUSH1 0x60 DUP4 ADD DUP5 PUSH2 0xF39 JUMP JUMPDEST DUP2 DUP2 SUB PUSH1 0x80 DUP4 ADD MSTORE PUSH2 0x12CA DUP2 PUSH2 0x1253 JUMP JUMPDEST SWAP1 POP SWAP6 SWAP5 POP POP POP POP POP JUMP JUMPDEST PUSH1 0x0 DUP2 SWAP1 POP DUP2 PUSH1 0x0 MSTORE PUSH1 0x20 PUSH1 0x0 KECCAK256 SWAP1 POP SWAP2 SWAP1 POP JUMP JUMPDEST PUSH1 0x0 PUSH1 0x20 PUSH1 0x1F DUP4 ADD DIV SWAP1 POP SWAP2 SWAP1 POP JUMP JUMPDEST PUSH1 0x0 DUP3 DUP3 SHL SWAP1 POP SWAP3 SWAP2 POP POP JUMP JUMPDEST PUSH1 0x0 PUSH1 0x8 DUP4 MUL PUSH2 0x1337 PUSH32 0xFFFFFFFFFFFFFFFFFFFFFFFFFFFFFFFFFFFFFFFFFFFFFFFFFFFFFFFFFFFFFFFF DUP3 PUSH2 0x12FA JUMP JUMPDEST PUSH2 0x1341 DUP7 DUP4 PUSH2 0x12FA JUMP JUMPDEST SWAP6 POP DUP1 NOT DUP5 AND SWAP4 POP DUP1 DUP7 AND DUP5 OR SWAP3 POP POP POP SWAP4 SWAP3 POP POP POP JUMP JUMPDEST PUSH1 0x0 PUSH2 0x1374 PUSH2 0x136F PUSH2 0x136A DUP5 PUSH2 0xADD JUMP JUMPDEST PUSH2 0xB8A JUMP JUMPDEST PUSH2 0xADD JUMP JUMPDEST SWAP1 POP SWAP2 SWAP1 POP JUMP JUMPDEST PUSH1 0x0 DUP2 SWAP1 POP SWAP2 SWAP1 POP JUMP JUMPDEST PUSH2 0x138E DUP4 PUSH2 0x1359 JUMP JUMPDEST PUSH2 0x13A2 PUSH2 0x139A DUP3 PUSH2 0x137B JUMP JUMPDEST DUP5 DUP5 SLOAD PUSH2 0x1307 JUMP JUMPDEST DUP3 SSTORE POP POP POP POP JUMP JUMPDEST PUSH1 0x0 SWAP1 JUMP JUMPDEST PUSH2 0x13B7 PUSH2 0x13AA JUMP JUMPDEST PUSH2 0x13C2 DUP2 DUP5 DUP5 PUSH2 0x1385 JUMP JUMPDEST POP POP POP JUMP JUMPDEST JUMPDEST DUP2 DUP2 LT ISZERO PUSH2 0x13E6 JUMPI PUSH2 0x13DB PUSH1 0x0 DUP3 PUSH2 0x13AF JUMP JUMPDEST PUSH1 0x1 DUP2 ADD SWAP1 POP PUSH2 0x13C8 JUMP JUMPDEST POP POP JUMP JUMPDEST PUSH1 0x1F DUP3 GT ISZERO PUSH2 0x142B JUMPI PUSH2 0x13FC DUP2 PUSH2 0x12D5 JUMP JUMPDEST PUSH2 0x1405 DUP5 PUSH2 0x12EA JUMP JUMPDEST DUP2 ADD PUSH1 0x20 DUP6 LT ISZERO PUSH2 0x1414 JUMPI DUP2 SWAP1 POP JUMPDEST PUSH2 0x1428 PUSH2 0x1420 DUP6 PUSH2 0x12EA JUMP JUMPDEST DUP4 ADD DUP3 PUSH2 0x13C7 JUMP JUMPDEST POP POP JUMPDEST POP POP POP JUMP JUMPDEST PUSH1 0x0 DUP3 DUP3 SHR SWAP1 POP SWAP3 SWAP2 POP POP JUMP JUMPDEST PUSH1 0x0 PUSH2 0x144E PUSH1 0x0 NOT DUP5 PUSH1 0x8 MUL PUSH2 0x1430 JUMP JUMPDEST NOT DUP1 DUP4 AND SWAP2 POP POP SWAP3 SWAP2 POP POP JUMP JUMPDEST PUSH1 0x0 PUSH2 0x1467 DUP4 DUP4 PUSH2 0x143D JUMP JUMPDEST SWAP2 POP DUP3 PUSH1 0x2 MUL DUP3 OR SWAP1 POP SWAP3 SWAP2 POP POP JUMP JUMPDEST PUSH2 0x1480 DUP3 PUSH2 0xE8B JUMP JUMPDEST PUSH8 0xFFFFFFFFFFFFFFFF DUP2 GT ISZERO PUSH2 0x1499 JUMPI PUSH2 0x1498 PUSH2 0xC55 JUMP JUMPDEST JUMPDEST PUSH2 0x14A3 DUP3 SLOAD PUSH2 0x121F JUMP JUMPDEST PUSH2 0x14AE DUP3 DUP3 DUP6 PUSH2 0x13EA JUMP JUMPDEST PUSH1 0x0 PUSH1 0x20 SWAP1 POP PUSH1 0x1F DUP4 GT PUSH1 0x1 DUP2 EQ PUSH2 0x14E1 JUMPI PUSH1 0x0 DUP5 ISZERO PUSH2 0x14CF JUMPI DUP3 DUP8 ADD MLOAD SWAP1 POP JUMPDEST PUSH2 0x14D9 DUP6 DUP3 PUSH2 0x145B JUMP JUMPDEST DUP7 SSTORE POP PUSH2 0x1541 JUMP JUMPDEST PUSH1 0x1F NOT DUP5 AND PUSH2 0x14EF DUP7 PUSH2 0x12D5 JUMP JUMPDEST PUSH1 0x0 JUMPDEST DUP3 DUP2 LT ISZERO PUSH2 0x1517 JUMPI DUP5 DUP10 ADD MLOAD DUP3 SSTORE PUSH1 0x1 DUP3 ADD SWAP2 POP PUSH1 0x20 DUP6 ADD SWAP5 POP PUSH1 0x20 DUP2 ADD SWAP1 POP PUSH2 0x14F2 JUMP JUMPDEST DUP7 DUP4 LT ISZERO PUSH2 0x1534 JUMPI DUP5 DUP10 ADD MLOAD PUSH2 0x1530 PUSH1 0x1F DUP10 AND DUP3 PUSH2 0x143D JUMP JUMPDEST DUP4 SSTORE POP JUMPDEST PUSH1 0x1 PUSH1 0x2 DUP9 MUL ADD DUP9 SSTORE POP POP POP JUMPDEST POP POP POP POP POP POP JUMP JUMPDEST PUSH1 0x0 PUSH2 0x1555 DUP4 DUP6 PUSH2 0xDD4 JUMP JUMPDEST SWAP4 POP PUSH2 0x1562 DUP4 DUP6 DUP5 PUSH2 0xD01 JUMP JUMPDEST PUSH2 0x156B DUP4 PUSH2 0xC44 JUMP JUMPDEST DUP5 ADD SWAP1 POP SWAP4 SWAP3 POP POP POP JUMP JUMPDEST PUSH1 0x0 PUSH1 0x60 DUP3 ADD SWAP1 POP PUSH2 0x158B PUSH1 0x0 DUP4 ADD DUP8 PUSH2 0xB40 JUMP JUMPDEST PUSH2 0x1598 PUSH1 0x20 DUP4 ADD DUP7 PUSH2 0xE7C JUMP JUMPDEST DUP2 DUP2 SUB PUSH1 0x40 DUP4 ADD MSTORE PUSH2 0x15AB DUP2 DUP5 DUP7 PUSH2 0x1549 JUMP JUMPDEST SWAP1 POP SWAP6 SWAP5 POP POP POP POP POP JUMP JUMPDEST PUSH1 0x0 PUSH1 0x20 DUP3 ADD SWAP1 POP DUP2 DUP2 SUB PUSH1 0x0 DUP4 ADD MSTORE PUSH2 0x15D1 DUP2 DUP5 DUP7 PUSH2 0x1549 JUMP JUMPDEST SWAP1 POP SWAP4 SWAP3 POP POP POP JUMP JUMPDEST PUSH1 0x0 PUSH2 0x15ED PUSH2 0x15E8 DUP5 PUSH2 0xCD0 JUMP JUMPDEST PUSH2 0xCB5 JUMP JUMPDEST SWAP1 POP DUP3 DUP2 MSTORE PUSH1 0x20 DUP2 ADD DUP5 DUP5 DUP5 ADD GT ISZERO PUSH2 0x1609 JUMPI PUSH2 0x1608 PUSH2 0xC3F JUMP JUMPDEST JUMPDEST PUSH2 0x1614 DUP5 DUP3 DUP6 PUSH2 0xDE5 JUMP JUMPDEST POP SWAP4 SWAP3 POP POP POP JUMP JUMPDEST PUSH1 0x0 DUP3 PUSH1 0x1F DUP4 ADD SLT PUSH2 0x1631 JUMPI PUSH2 0x1630 PUSH2 0xC3A JUMP JUMPDEST JUMPDEST DUP2 MLOAD PUSH2 0x1641 DUP5 DUP3 PUSH1 0x20 DUP7 ADD PUSH2 0x15DA JUMP JUMPDEST SWAP2 POP POP SWAP3 SWAP2 POP POP JUMP JUMPDEST PUSH1 0x0 PUSH1 0x20 DUP3 DUP5 SUB SLT ISZERO PUSH2 0x1660 JUMPI PUSH2 0x165F PUSH2 0xAD3 JUMP JUMPDEST JUMPDEST PUSH1 0x0 DUP3 ADD MLOAD PUSH8 0xFFFFFFFFFFFFFFFF DUP2 GT ISZERO PUSH2 0x167E JUMPI PUSH2 0x167D PUSH2 0xAD8 JUMP JUMPDEST JUMPDEST PUSH2 0x168A DUP5 DUP3 DUP6 ADD PUSH2 0x161C JUMP JUMPDEST SWAP2 POP POP SWAP3 SWAP2 POP POP JUMP JUMPDEST PUSH1 0x0 DUP2 SWAP1 POP SWAP3 SWAP2 POP POP JUMP JUMPDEST PUSH1 0x0 PUSH2 0x16AA DUP4 DUP6 PUSH2 0x1693 JUMP JUMPDEST SWAP4 POP PUSH2 0x16B7 DUP4 DUP6 DUP5 PUSH2 0xD01 JUMP JUMPDEST DUP3 DUP5 ADD SWAP1 POP SWAP4 SWAP3 POP POP POP JUMP JUMPDEST PUSH1 0x0 PUSH2 0x16D0 DUP3 DUP5 DUP7 PUSH2 0x169E JUMP JUMPDEST SWAP2 POP DUP2 SWAP1 POP SWAP4 SWAP3 POP POP POP JUMP JUMPDEST PUSH1 0x0 PUSH1 0x40 DUP3 ADD SWAP1 POP PUSH2 0x16F1 PUSH1 0x0 DUP4 ADD DUP6 PUSH2 0xBDA JUMP JUMPDEST PUSH2 0x16FE PUSH1 0x20 DUP4 ADD DUP5 PUSH2 0xBDA JUMP JUMPDEST SWAP4 SWAP3 POP POP POP JUMP JUMPDEST PUSH1 0x0 DUP3 SWAP1 POP SWAP3 SWAP2 POP POP JUMP JUMPDEST PUSH2 0x171A DUP4 DUP4 PUSH2 0x1705 JUMP JUMPDEST PUSH8 0xFFFFFFFFFFFFFFFF DUP2 GT ISZERO PUSH2 0x1733 JUMPI PUSH2 0x1732 PUSH2 0xC55 JUMP JUMPDEST JUMPDEST PUSH2 0x173D DUP3 SLOAD PUSH2 0x121F JUMP JUMPDEST PUSH2 0x1748 DUP3 DUP3 DUP6 PUSH2 0x13EA JUMP JUMPDEST PUSH1 0x0 PUSH1 0x1F DUP4 GT PUSH1 0x1 DUP2 EQ PUSH2 0x1777 JUMPI PUSH1 0x0 DUP5 ISZERO PUSH2 0x1765 JUMPI DUP3 DUP8 ADD CALLDATALOAD SWAP1 POP JUMPDEST PUSH2 0x176F DUP6 DUP3 PUSH2 0x145B JUMP JUMPDEST DUP7 SSTORE POP PUSH2 0x17D7 JUMP JUMPDEST PUSH1 0x1F NOT DUP5 AND PUSH2 0x1785 DUP7 PUSH2 0x12D5 JUMP JUMPDEST PUSH1 0x0 JUMPDEST DUP3 DUP2 LT ISZERO PUSH2 0x17AD JUMPI DUP5 DUP10 ADD CALLDATALOAD DUP3 SSTORE PUSH1 0x1 DUP3 ADD SWAP2 POP PUSH1 0x20 DUP6 ADD SWAP5 POP PUSH1 0x20 DUP2 ADD SWAP1 POP PUSH2 0x1788 JUMP JUMPDEST DUP7 DUP4 LT ISZERO PUSH2 0x17CA JUMPI DUP5 DUP10 ADD CALLDATALOAD PUSH2 0x17C6 PUSH1 0x1F DUP10 AND DUP3 PUSH2 0x143D JUMP JUMPDEST DUP4 SSTORE POP JUMPDEST PUSH1 0x1 PUSH1 0x2 DUP9 MUL ADD DUP9 SSTORE POP POP POP JUMPDEST POP POP POP POP POP POP POP JUMP JUMPDEST PUSH1 0x0 DUP2 SWAP1 POP DUP2 PUSH1 0x0 MSTORE PUSH1 0x20 PUSH1 0x0 KECCAK256 SWAP1 POP SWAP2 SWAP1 POP JUMP JUMPDEST PUSH1 0x0 DUP2 SLOAD PUSH2 0x1802 DUP2 PUSH2 0x121F JUMP JUMPDEST PUSH2 0x180C DUP2 DUP7 PUSH2 0x1693 JUMP JUMPDEST SWAP5 POP PUSH1 0x1 DUP3 AND PUSH1 0x0 DUP2 EQ PUSH2 0x1827 JUMPI PUSH1 0x1 DUP2 EQ PUSH2 0x183C JUMPI PUSH2 0x186F JUMP JUMPDEST PUSH1 0xFF NOT DUP4 AND DUP7 MSTORE DUP2 ISZERO ISZERO DUP3 MUL DUP7 ADD SWAP4 POP PUSH2 0x186F JUMP JUMPDEST PUSH2 0x1845 DUP6 PUSH2 0x17E0 JUMP JUMPDEST PUSH1 0x0 JUMPDEST DUP4 DUP2 LT ISZERO PUSH2 0x1867 JUMPI DUP2 SLOAD DUP2 DUP10 ADD MSTORE PUSH1 0x1 DUP3 ADD SWAP2 POP PUSH1 0x20 DUP2 ADD SWAP1 POP PUSH2 0x1848 JUMP JUMPDEST DUP4 DUP9 ADD SWAP6 POP POP POP JUMPDEST POP POP POP SWAP3 SWAP2 POP POP JUMP JUMPDEST PUSH1 0x0 PUSH2 0x1884 DUP3 DUP5 PUSH2 0x17F5 JUMP JUMPDEST SWAP2 POP DUP2 SWAP1 POP SWAP3 SWAP2 POP POP JUMP JUMPDEST PUSH1 0x0 DUP3 SWAP1 POP SWAP3 SWAP2 POP POP JUMP JUMPDEST PUSH1 0x0 DUP2 SWAP1 POP DUP2 PUSH1 0x0 MSTORE PUSH1 0x20 PUSH1 0x0 KECCAK256 SWAP1 POP SWAP2 SWAP1 POP JUMP JUMPDEST PUSH1 0x1F DUP3 GT ISZERO PUSH2 0x18F0 JUMPI PUSH2 0x18C1 DUP2 PUSH2 0x189A JUMP JUMPDEST PUSH2 0x18CA DUP5 PUSH2 0x12EA JUMP JUMPDEST DUP2 ADD PUSH1 0x20 DUP6 LT ISZERO PUSH2 0x18D9 JUMPI DUP2 SWAP1 POP JUMPDEST PUSH2 0x18ED PUSH2 0x18E5 DUP6 PUSH2 0x12EA JUMP JUMPDEST DUP4 ADD DUP3 PUSH2 0x13C7 JUMP JUMPDEST POP POP JUMPDEST POP POP POP JUMP JUMPDEST PUSH2 0x18FF DUP4 DUP4 PUSH2 0x188F JUMP JUMPDEST PUSH8 0xFFFFFFFFFFFFFFFF DUP2 GT ISZERO PUSH2 0x1918 JUMPI PUSH2 0x1917 PUSH2 0xC55 JUMP JUMPDEST JUMPDEST PUSH2 0x1922 DUP3 SLOAD PUSH2 0x121F JUMP JUMPDEST PUSH2 0x192D DUP3 DUP3 DUP6 PUSH2 0x18AF JUMP JUMPDEST PUSH1 0x0 PUSH1 0x1F DUP4 GT PUSH1 0x1 DUP2 EQ PUSH2 0x195C JUMPI PUSH1 0x0 DUP5 ISZERO PUSH2 0x194A JUMPI DUP3 DUP8 ADD CALLDATALOAD SWAP1 POP JUMPDEST PUSH2 0x1954 DUP6 DUP3 PUSH2 0x145B JUMP JUMPDEST DUP7 SSTORE POP PUSH2 0x19BC JUMP JUMPDEST PUSH1 0x1F NOT DUP5 AND PUSH2 0x196A DUP7 PUSH2 0x189A JUMP JUMPDEST PUSH1 0x0 JUMPDEST DUP3 DUP2 LT ISZERO PUSH2 0x1992 JUMPI DUP5 DUP10 ADD CALLDATALOAD DUP3 SSTORE PUSH1 0x1 DUP3 ADD SWAP2 POP PUSH1 0x20 DUP6 ADD SWAP5 POP PUSH1 0x20 DUP2 ADD SWAP1 POP PUSH2 0x196D JUMP JUMPDEST DUP7 DUP4 LT ISZERO PUSH2 0x19AF JUMPI DUP5 DUP10 ADD CALLDATALOAD PUSH2 0x19AB PUSH1 0x1F DUP10 AND DUP3 PUSH2 0x143D JUMP JUMPDEST DUP4 SSTORE POP JUMPDEST PUSH1 0x1 PUSH1 0x2 DUP9 MUL ADD DUP9 SSTORE POP POP POP JUMPDEST POP POP POP POP POP POP POP JUMP JUMPDEST PUSH1 0x0 DUP2 SLOAD PUSH2 0x19D2 DUP2 PUSH2 0x121F JUMP JUMPDEST PUSH2 0x19DC DUP2 DUP7 PUSH2 0xDD4 JUMP JUMPDEST SWAP5 POP PUSH1 0x1 DUP3 AND PUSH1 0x0 DUP2 EQ PUSH2 0x19F7 JUMPI PUSH1 0x1 DUP2 EQ PUSH2 0x1A0D JUMPI PUSH2 0x1A40 JUMP JUMPDEST PUSH1 0xFF NOT DUP4 AND DUP7 MSTORE DUP2 ISZERO ISZERO PUSH1 0x20 MUL DUP7 ADD SWAP4 POP PUSH2 0x1A40 JUMP JUMPDEST PUSH2 0x1A16 DUP6 PUSH2 0x17E0 JUMP JUMPDEST PUSH1 0x0 JUMPDEST DUP4 DUP2 LT ISZERO PUSH2 0x1A38 JUMPI DUP2 SLOAD DUP2 DUP10 ADD MSTORE PUSH1 0x1 DUP3 ADD SWAP2 POP PUSH1 0x20 DUP2 ADD SWAP1 POP PUSH2 0x1A19 JUMP JUMPDEST DUP1 DUP9 ADD SWAP6 POP POP POP JUMPDEST POP POP POP SWAP3 SWAP2 POP POP JUMP JUMPDEST PUSH1 0x0 PUSH2 0x1A55 DUP4 DUP6 PUSH2 0xE96 JUMP JUMPDEST SWAP4 POP PUSH2 0x1A62 DUP4 DUP6 DUP5 PUSH2 0xD01 JUMP JUMPDEST PUSH2 0x1A6B DUP4 PUSH2 0xC44 JUMP JUMPDEST DUP5 ADD SWAP1 POP SWAP4 SWAP3 POP POP POP JUMP JUMPDEST PUSH1 0x0 PUSH1 0x80 DUP3 ADD SWAP1 POP PUSH2 0x1A8B PUSH1 0x0 DUP4 ADD DUP10 PUSH2 0xB40 JUMP JUMPDEST DUP2 DUP2 SUB PUSH1 0x20 DUP4 ADD MSTORE PUSH2 0x1A9D DUP2 DUP9 PUSH2 0x19C5 JUMP JUMPDEST SWAP1 POP DUP2 DUP2 SUB PUSH1 0x40 DUP4 ADD MSTORE PUSH2 0x1AB2 DUP2 DUP7 DUP9 PUSH2 0x1549 JUMP JUMPDEST SWAP1 POP DUP2 DUP2 SUB PUSH1 0x60 DUP4 ADD MSTORE PUSH2 0x1AC7 DUP2 DUP5 DUP7 PUSH2 0x1A49 JUMP JUMPDEST SWAP1 POP SWAP8 SWAP7 POP POP POP POP POP POP POP JUMP INVALID LOG2 PUSH5 0x6970667358 0x22 SLT KECCAK256 0xCE STATICCALL MULMOD MUL 0xBD 0x2D ADD PUSH31 0x8B937EFCF64F8143088629C08DBC2EEA62A48A499F76D9D964736F6C634300 ADDMOD XOR STOP CALLER "
        },
        "methodIdentifiers": {
          "AIORACLE_CALLBACK_GAS_LIMIT()": "89b1e798",
          "aiOracle()": "31b221cd",
          "aiOracleCallback(uint256,bytes,bytes)": "b0347814",
          "calculateAIResult(string)": "a2677754",
          "estimateFee(uint256)": "127e8e4d",
          "getAIResult(string)": "aff0396b",
          "inference(string)": "a5bcc4b8",
          "isFinalized(uint256)": "33727c4d",
          "prompts(string)": "6a3af903",
          "requests(uint256)": "81d12c58"
        }
      }
    }
  }
}