{
  "_format": "hh-sol-artifact-1",
  "contractName": "AIOracle",
  "sourceName": "OAO/contracts/AIOracle.sol",
  "abi": [
    {
      "anonymous": false,
      "inputs": [
        {
          "indexed": true,
          "internalType": "address",
          "name": "account",
          "type": "address"
        },
        {
          "indexed": true,
          "internalType": "uint256",
          "name": "requestId",
          "type": "uint256"
        },
        {
          "indexed": false,
          "internalType": "uint256",
          "name": "modelId",
          "type": "uint256"
        },
        {
          "indexed": false,
          "internalType": "bytes",
          "name": "input",
          "type": "bytes"
        },
        {
          "indexed": false,
          "internalType": "address",
          "name": "callbackContract",
          "type": "address"
        },
        {
          "indexed": false,
          "internalType": "uint64",
          "name": "gasLimit",
          "type": "uint64"
        },
        {
          "indexed": false,
          "internalType": "bytes",
          "name": "callbackData",
          "type": "bytes"
        }
      ],
      "name": "AICallbackRequest",
      "type": "event"
    },
    {
      "anonymous": false,
      "inputs": [
        {
          "indexed": true,
          "internalType": "address",
          "name": "invoker",
          "type": "address"
        },
        {
          "indexed": true,
          "internalType": "uint256",
          "name": "requestId",
          "type": "uint256"
        },
        {
          "indexed": false,
          "internalType": "bytes",
          "name": "output",
          "type": "bytes"
        }
      ],
      "name": "AICallbackResult",
      "type": "event"
    },
    {
      "inputs": [
        {
          "internalType": "address",
          "name": "_address",
          "type": "address"
        }
      ],
      "name": "addToBlacklist",
      "outputs": [],
      "stateMutability": "nonpayable",
      "type": "function"
    },
    {
      "inputs": [
        {
          "internalType": "address",
          "name": "",
          "type": "address"
        }
      ],
      "name": "blacklist",
      "outputs": [
        {
          "internalType": "bool",
          "name": "",
          "type": "bool"
        }
      ],
      "stateMutability": "view",
      "type": "function"
    },
    {
      "inputs": [],
      "name": "callbackFunctionSelector",
      "outputs": [
        {
          "internalType": "bytes4",
          "name": "",
          "type": "bytes4"
        }
      ],
      "stateMutability": "pure",
      "type": "function"
    },
    {
      "inputs": [
        {
          "internalType": "uint256",
          "name": "modelId",
          "type": "uint256"
        }
      ],
      "name": "claimModelRevenue",
      "outputs": [],
      "stateMutability": "nonpayable",
      "type": "function"
    },
    {
      "inputs": [
        {
          "internalType": "uint256",
          "name": "modelId",
          "type": "uint256"
        },
        {
          "internalType": "uint256",
          "name": "gasLimit",
          "type": "uint256"
        }
      ],
      "name": "estimateFee",
      "outputs": [
        {
          "internalType": "uint256",
          "name": "",
          "type": "uint256"
        }
      ],
      "stateMutability": "view",
      "type": "function"
    },
    {
      "inputs": [],
      "name": "gasPrice",
      "outputs": [
        {
          "internalType": "uint256",
          "name": "",
          "type": "uint256"
        }
      ],
      "stateMutability": "view",
      "type": "function"
    },
    {
      "inputs": [
        {
          "internalType": "uint256",
          "name": "modelId",
          "type": "uint256"
        }
      ],
      "name": "getModel",
      "outputs": [
        {
          "components": [
            {
              "internalType": "bytes32",
              "name": "modelHash",
              "type": "bytes32"
            },
            {
              "internalType": "bytes32",
              "name": "programHash",
              "type": "bytes32"
            },
            {
              "internalType": "uint256",
              "name": "fee",
              "type": "uint256"
            },
            {
              "internalType": "address",
              "name": "receiver",
              "type": "address"
            },
            {
              "internalType": "uint256",
              "name": "receiverPercentage",
              "type": "uint256"
            },
            {
              "internalType": "uint256",
              "name": "accumulateRevenue",
              "type": "uint256"
            }
          ],
          "internalType": "struct AIOracle.ModelData",
          "name": "",
          "type": "tuple"
        }
      ],
      "stateMutability": "view",
      "type": "function"
    },
    {
      "inputs": [
        {
          "internalType": "uint256",
          "name": "requestId",
          "type": "uint256"
        },
        {
          "internalType": "bytes",
          "name": "output",
          "type": "bytes"
        }
      ],
      "name": "invokeCallback",
      "outputs": [],
      "stateMutability": "nonpayable",
      "type": "function"
    },
    {
      "inputs": [
        {
          "internalType": "uint256",
          "name": "requestId",
          "type": "uint256"
        }
      ],
      "name": "isFinalized",
      "outputs": [
        {
          "internalType": "bool",
          "name": "",
          "type": "bool"
        }
      ],
      "stateMutability": "view",
      "type": "function"
    },
    {
      "inputs": [
        {
          "internalType": "uint256",
          "name": "",
          "type": "uint256"
        }
      ],
      "name": "modelIDs",
      "outputs": [
        {
          "internalType": "uint256",
          "name": "",
          "type": "uint256"
        }
      ],
      "stateMutability": "view",
      "type": "function"
    },
    {
      "inputs": [],
      "name": "numberOfModels",
      "outputs": [
        {
          "internalType": "uint256",
          "name": "",
          "type": "uint256"
        }
      ],
      "stateMutability": "view",
      "type": "function"
    },
    {
      "inputs": [],
      "name": "opml",
      "outputs": [
        {
          "internalType": "contract IOpml",
          "name": "",
          "type": "address"
        }
      ],
      "stateMutability": "pure",
      "type": "function"
    },
    {
      "inputs": [
        {
          "internalType": "uint256",
          "name": "",
          "type": "uint256"
        }
      ],
      "name": "outputOfRequest",
      "outputs": [
        {
          "internalType": "bytes",
          "name": "",
          "type": "bytes"
        }
      ],
      "stateMutability": "view",
      "type": "function"
    },
    {
      "inputs": [],
      "name": "owner",
      "outputs": [
        {
          "internalType": "address",
          "name": "",
          "type": "address"
        }
      ],
      "stateMutability": "pure",
      "type": "function"
    },
    {
      "inputs": [
        {
          "internalType": "address",
          "name": "_address",
          "type": "address"
        }
      ],
      "name": "removeFromBlacklist",
      "outputs": [],
      "stateMutability": "nonpayable",
      "type": "function"
    },
    {
      "inputs": [
        {
          "internalType": "uint256",
          "name": "modelId",
          "type": "uint256"
        }
      ],
      "name": "removeModel",
      "outputs": [],
      "stateMutability": "nonpayable",
      "type": "function"
    },
    {
      "inputs": [
        {
          "internalType": "uint256",
          "name": "modelId",
          "type": "uint256"
        },
        {
          "internalType": "bytes",
          "name": "input",
          "type": "bytes"
        },
        {
          "internalType": "address",
          "name": "callbackContract",
          "type": "address"
        },
        {
          "internalType": "uint64",
          "name": "gasLimit",
          "type": "uint64"
        },
        {
          "internalType": "bytes",
          "name": "callbackData",
          "type": "bytes"
        }
      ],
      "name": "requestCallback",
      "outputs": [
        {
          "internalType": "uint256",
          "name": "",
          "type": "uint256"
        }
      ],
      "stateMutability": "payable",
      "type": "function"
    },
    {
      "inputs": [
        {
          "internalType": "uint256",
          "name": "",
          "type": "uint256"
        }
      ],
      "name": "requests",
      "outputs": [
        {
          "internalType": "address",
          "name": "account",
          "type": "address"
        },
        {
          "internalType": "uint256",
          "name": "requestId",
          "type": "uint256"
        },
        {
          "internalType": "uint256",
          "name": "modelId",
          "type": "uint256"
        },
        {
          "internalType": "bytes",
          "name": "input",
          "type": "bytes"
        },
        {
          "internalType": "address",
          "name": "callbackContract",
          "type": "address"
        },
        {
          "internalType": "uint64",
          "name": "gasLimit",
          "type": "uint64"
        },
        {
          "internalType": "bytes",
          "name": "callbackData",
          "type": "bytes"
        }
      ],
      "stateMutability": "view",
      "type": "function"
    },
    {
      "inputs": [],
      "name": "resetGasPrice",
      "outputs": [],
      "stateMutability": "nonpayable",
      "type": "function"
    },
    {
      "inputs": [],
      "name": "resetModelIDs",
      "outputs": [],
      "stateMutability": "nonpayable",
      "type": "function"
    },
    {
      "inputs": [],
      "name": "server",
      "outputs": [
        {
          "internalType": "address",
          "name": "",
          "type": "address"
        }
      ],
      "stateMutability": "pure",
      "type": "function"
    },
    {
      "inputs": [
        {
          "internalType": "uint256",
          "name": "modelId",
          "type": "uint256"
        },
        {
          "internalType": "uint256",
          "name": "_fee",
          "type": "uint256"
        }
      ],
      "name": "setModelFee",
      "outputs": [],
      "stateMutability": "nonpayable",
      "type": "function"
    },
    {
      "inputs": [
        {
          "internalType": "uint256",
          "name": "modelId",
          "type": "uint256"
        },
        {
          "internalType": "address",
          "name": "receiver",
          "type": "address"
        }
      ],
      "name": "setModelReceiver",
      "outputs": [],
      "stateMutability": "nonpayable",
      "type": "function"
    },
    {
      "inputs": [
        {
          "internalType": "uint256",
          "name": "modelId",
          "type": "uint256"
        },
        {
          "internalType": "uint256",
          "name": "receiverPercentage",
          "type": "uint256"
        }
      ],
      "name": "setModelReceiverPercentage",
      "outputs": [],
      "stateMutability": "nonpayable",
      "type": "function"
    },
    {
      "inputs": [
        {
          "internalType": "uint256",
          "name": "modelId",
          "type": "uint256"
        },
        {
          "internalType": "bytes32",
          "name": "modelHash",
          "type": "bytes32"
        },
        {
          "internalType": "bytes32",
          "name": "programHash",
          "type": "bytes32"
        },
        {
          "internalType": "uint256",
          "name": "fee",
          "type": "uint256"
        },
        {
          "internalType": "address",
          "name": "receiver",
          "type": "address"
        },
        {
          "internalType": "uint256",
          "name": "receiverPercentage",
          "type": "uint256"
        }
      ],
      "name": "updateModel",
      "outputs": [],
      "stateMutability": "nonpayable",
      "type": "function"
    },
    {
      "inputs": [
        {
          "internalType": "uint256",
          "name": "requestId",
          "type": "uint256"
        }
      ],
      "name": "updateResult",
      "outputs": [],
      "stateMutability": "nonpayable",
      "type": "function"
    },
    {
      "inputs": [
        {
          "internalType": "uint256",
          "name": "modelId",
          "type": "uint256"
        },
        {
          "internalType": "bytes32",
          "name": "modelHash",
          "type": "bytes32"
        },
        {
          "internalType": "bytes32",
          "name": "programHash",
          "type": "bytes32"
        },
        {
          "internalType": "uint256",
          "name": "fee",
          "type": "uint256"
        },
        {
          "internalType": "address",
          "name": "receiver",
          "type": "address"
        },
        {
          "internalType": "uint256",
          "name": "receiverPercentage",
          "type": "uint256"
        }
      ],
      "name": "uploadModel",
      "outputs": [],
      "stateMutability": "nonpayable",
      "type": "function"
    },
    {
      "inputs": [],
      "name": "withdraw",
      "outputs": [],
      "stateMutability": "nonpayable",
      "type": "function"
    }
  ],
  "bytecode": "0x608060405234801561001057600080fd5b50613e87806100206000396000f3fe6080604052600436106101b55760003560e01c80636c124d74116100ec578063ace04ec71161008a578063e857f74711610064578063e857f747146105e7578063f9f92be414610612578063fd922a421461064f578063fe173b971461067a576101b5565b8063ace04ec71461056a578063b109752314610581578063b70b5ccc146105be576101b5565b806381d12c58116100c657806381d12c58146104a857806382dcc26d146104eb5780638da5cb5b146105145780639a6a794f1461053f576101b5565b80636c124d741461042b5780636d36169414610454578063754592b214610491576101b5565b8063537df3b6116101595780635638101b116101335780635638101b146103805780635b953806146103a9578063699ecb83146103d95780636b0641a314610402576101b5565b8063537df3b61461030557806354c33b101461032e57806355d15d9314610357576101b5565b8063349c413611610195578063349c41361461025d5780633ccfd60b1461029a57806344337ea1146102b157806349163731146102da576101b5565b806277f244146101ba578062e1d8d0146101e357806333727c4d14610220575b600080fd5b3480156101c657600080fd5b506101e160048036038101906101dc91906127f9565b6106a5565b005b3480156101ef57600080fd5b5061020a60048036038101906102059190612839565b6107db565b6040516102179190612888565b60405180910390f35b34801561022c57600080fd5b50610247600480360381019061024291906128a3565b61087c565b60405161025491906128eb565b60405180910390f35b34801561026957600080fd5b50610284600480360381019061027f91906128a3565b610906565b6040516102919190612888565b60405180910390f35b3480156102a657600080fd5b506102af61092a565b005b3480156102bd57600080fd5b506102d860048036038101906102d39190612906565b610afe565b005b3480156102e657600080fd5b506102ef610bcd565b6040516102fc919061296e565b60405180910390f35b34801561031157600080fd5b5061032c60048036038101906103279190612906565b610bdc565b005b34801561033a57600080fd5b50610355600480360381019061035091906129bf565b610cab565b005b34801561036357600080fd5b5061037e60048036038101906103799190612ab1565b610e4d565b005b34801561038c57600080fd5b506103a760048036038101906103a291906128a3565b6111b7565b005b6103c360048036038101906103be9190612c92565b6112f4565b6040516103d09190612888565b60405180910390f35b3480156103e557600080fd5b5061040060048036038101906103fb9190612839565b6115a3565b005b34801561040e57600080fd5b50610429600480360381019061042491906128a3565b6116e3565b005b34801561043757600080fd5b50610452600480360381019061044d9190612839565b6118b2565b005b34801561046057600080fd5b5061047b600480360381019061047691906128a3565b6119ae565b6040516104889190612ded565b60405180910390f35b34801561049d57600080fd5b506104a6611acb565b005b3480156104b457600080fd5b506104cf60048036038101906104ca91906128a3565b611b4a565b6040516104e29796959493929190612ea5565b60405180910390f35b3480156104f757600080fd5b50610512600480360381019061050d91906128a3565b611cf0565b005b34801561052057600080fd5b5061052961202f565b6040516105369190612f22565b60405180910390f35b34801561054b57600080fd5b5061055461204b565b6040516105619190612f9c565b60405180910390f35b34801561057657600080fd5b5061057f612067565b005b34801561058d57600080fd5b506105a860048036038101906105a391906128a3565b6120ec565b6040516105b59190612fb7565b60405180910390f35b3480156105ca57600080fd5b506105e560048036038101906105e091906129bf565b61218c565b005b3480156105f357600080fd5b506105fc6123f6565b6040516106099190612888565b60405180910390f35b34801561061e57600080fd5b5061063960048036038101906106349190612906565b612403565b60405161064691906128eb565b60405180910390f35b34801561065b57600080fd5b50610664612423565b6040516106719190612f22565b60405180910390f35b34801561068657600080fd5b5061068f61243f565b60405161069c9190612888565b60405180910390f35b6106ad61202f565b73ffffffffffffffffffffffffffffffffffffffff163373ffffffffffffffffffffffffffffffffffffffff161461071a576040517f08c379a000000000000000000000000000000000000000000000000000000000815260040161071190613036565b60405180910390fd5b816004600082815260200190815260200160002060009054906101000a900460ff1661077b576040517f08c379a0000000000000000000000000000000000000000000000000000000008152600401610772906130a2565b60405180910390fd5b6000600360008581526020019081526020016000209050828160030160006101000a81548173ffffffffffffffffffffffffffffffffffffffff021916908373ffffffffffffffffffffffffffffffffffffffff16021790555050505050565b6000826004600082815260200190815260200160002060009054906101000a900460ff1661083e576040517f08c379a0000000000000000000000000000000000000000000000000000000008152600401610835906130a2565b60405180910390fd5b60006003600086815260200190815260200160002090508360055461086391906130f1565b81600201546108729190613133565b9250505092915050565b600061088661204b565b73ffffffffffffffffffffffffffffffffffffffff166333727c4d836040518263ffffffff1660e01b81526004016108be9190612888565b602060405180830381865afa1580156108db573d6000803e3d6000fd5b505050506040513d601f19601f820116820180604052508101906108ff9190613193565b9050919050565b6006818154811061091657600080fd5b906000526020600020016000915090505481565b61093261202f565b73ffffffffffffffffffffffffffffffffffffffff163373ffffffffffffffffffffffffffffffffffffffff161461099f576040517f08c379a000000000000000000000000000000000000000000000000000000000815260040161099690613036565b60405180910390fd5b600080600090505b600680549050811015610aa2576000600682815481106109ca576109c96131c0565b5b906000526020600020015490506000600360008381526020019081526020016000206040518060c00160405290816000820154815260200160018201548152602001600282015481526020016003820160009054906101000a900473ffffffffffffffffffffffffffffffffffffffff1673ffffffffffffffffffffffffffffffffffffffff1673ffffffffffffffffffffffffffffffffffffffff1681526020016004820154815260200160058201548152505090508060a0015184610a919190613133565b9350505080806001019150506109a7565b5060008147610ab191906131ef565b90503373ffffffffffffffffffffffffffffffffffffffff166108fc829081150290604051600060405180830381858888f19350505050158015610af9573d6000803e3d6000fd5b505050565b610b0661202f565b73ffffffffffffffffffffffffffffffffffffffff163373ffffffffffffffffffffffffffffffffffffffff1614610b73576040517f08c379a0000000000000000000000000000000000000000000000000000000008152600401610b6a90613036565b60405180910390fd5b60016000808373ffffffffffffffffffffffffffffffffffffffff1673ffffffffffffffffffffffffffffffffffffffff16815260200190815260200160002060006101000a81548160ff02191690831515021790555050565b600063b034781460e01b905090565b610be461202f565b73ffffffffffffffffffffffffffffffffffffffff163373ffffffffffffffffffffffffffffffffffffffff1614610c51576040517f08c379a0000000000000000000000000000000000000000000000000000000008152600401610c4890613036565b60405180910390fd5b60008060008373ffffffffffffffffffffffffffffffffffffffff1673ffffffffffffffffffffffffffffffffffffffff16815260200190815260200160002060006101000a81548160ff02191690831515021790555050565b610cb361202f565b73ffffffffffffffffffffffffffffffffffffffff163373ffffffffffffffffffffffffffffffffffffffff1614610d20576040517f08c379a0000000000000000000000000000000000000000000000000000000008152600401610d1790613036565b60405180910390fd5b856004600082815260200190815260200160002060009054906101000a900460ff16610d81576040517f08c379a0000000000000000000000000000000000000000000000000000000008152600401610d78906130a2565b60405180910390fd5b6064821115610dc5576040517f08c379a0000000000000000000000000000000000000000000000000000000008152600401610dbc9061326f565b60405180910390fd5b6000600360008981526020019081526020016000209050868160000181905550858160010181905550848160020181905550838160030160006101000a81548173ffffffffffffffffffffffffffffffffffffffff021916908373ffffffffffffffffffffffffffffffffffffffff1602179055508281600401819055505050505050505050565b610e55612423565b73ffffffffffffffffffffffffffffffffffffffff163373ffffffffffffffffffffffffffffffffffffffff1614610ec2576040517f08c379a0000000000000000000000000000000000000000000000000000000008152600401610eb9906132db565b60405180910390fd5b6000600160008581526020019081526020016000209050610ee161204b565b73ffffffffffffffffffffffffffffffffffffffff1663480f07c88585856040518463ffffffff1660e01b8152600401610f1d93929190613328565b600060405180830381600087803b158015610f3757600080fd5b505af1158015610f4b573d6000803e3d6000fd5b50505050600073ffffffffffffffffffffffffffffffffffffffff168160040160009054906101000a900473ffffffffffffffffffffffffffffffffffffffff1673ffffffffffffffffffffffffffffffffffffffff1614611136576000610fb1610bcd565b8260010154858585600501604051602401610fcf9493929190613453565b604051602081830303815290604052907bffffffffffffffffffffffffffffffffffffffffffffffffffffffff19166020820180517bffffffffffffffffffffffffffffffffffffffffffffffffffffffff838183161783525050505090506000808360040160009054906101000a900473ffffffffffffffffffffffffffffffffffffffff1673ffffffffffffffffffffffffffffffffffffffff168460040160149054906101000a900467ffffffffffffffff1667ffffffffffffffff168460405161109d91906134d6565b60006040518083038160008787f1925050503d80600081146110db576040519150601f19603f3d011682016040523d82523d6000602084013e6110e0565b606091505b509150915081611125576040517f08c379a000000000000000000000000000000000000000000000000000000000815260040161111c90613539565b60405180910390fd5b8161113257805160208201fd5b5050505b82826002600087815260200190815260200160002091826111589291906136f1565b50833373ffffffffffffffffffffffffffffffffffffffff167fec2650f3d0548c85cc72c3ecef74483fd06aed05d55ea3ff47edc79cadafe04485856040516111a29291906137c1565b60405180910390a33a60058190555050505050565b806004600082815260200190815260200160002060009054906101000a900460ff16611218576040517f08c379a000000000000000000000000000000000000000000000000000000000815260040161120f906130a2565b60405180910390fd5b60006003600084815260200190815260200160002090506000816005015411611276576040517f08c379a000000000000000000000000000000000000000000000000000000000815260040161126d90613831565b60405180910390fd5b8060030160009054906101000a900473ffffffffffffffffffffffffffffffffffffffff1673ffffffffffffffffffffffffffffffffffffffff166108fc82600501549081150290604051600060405180830381858888f193505050501580156112e4573d6000803e3d6000fd5b5060008160050181905550505050565b600061130286868686612445565b6000600360008881526020019081526020016000206040518060c00160405290816000820154815260200160018201548152602001600282015481526020016003820160009054906101000a900473ffffffffffffffffffffffffffffffffffffffff1673ffffffffffffffffffffffffffffffffffffffff1673ffffffffffffffffffffffffffffffffffffffff16815260200160048201548152602001600582015481525050905060006113b661204b565b73ffffffffffffffffffffffffffffffffffffffff1663c61b0b76836000015184602001518a6040518463ffffffff1660e01b81526004016113fa93929190613860565b6020604051808303816000875af1158015611419573d6000803e3d6000fd5b505050506040513d601f19601f8201168201806040525081019061143d91906138b3565b90506000600160008381526020019081526020016000209050338160000160006101000a81548173ffffffffffffffffffffffffffffffffffffffff021916908373ffffffffffffffffffffffffffffffffffffffff160217905550818160010181905550888160020181905550878160030190816114bc91906138e0565b50868160040160006101000a81548173ffffffffffffffffffffffffffffffffffffffff021916908373ffffffffffffffffffffffffffffffffffffffff160217905550858160040160146101000a81548167ffffffffffffffff021916908367ffffffffffffffff1602179055508481600501908161153c91906138e0565b50813373ffffffffffffffffffffffffffffffffffffffff167f849aa5adc3bf6a75cb08afbf31d88d1528c274e5d84e3d4355d23d8e9ebd649b8b8b8b8b8b60405161158c9594939291906139b2565b60405180910390a381935050505095945050505050565b6115ab61202f565b73ffffffffffffffffffffffffffffffffffffffff163373ffffffffffffffffffffffffffffffffffffffff1614611618576040517f08c379a000000000000000000000000000000000000000000000000000000000815260040161160f90613036565b60405180910390fd5b816004600082815260200190815260200160002060009054906101000a900460ff16611679576040517f08c379a0000000000000000000000000000000000000000000000000000000008152600401611670906130a2565b60405180910390fd5b60648211156116bd576040517f08c379a00000000000000000000000000000000000000000000000000000000081526004016116b49061326f565b60405180910390fd5b600060036000858152602001908152602001600020905082816004018190555050505050565b6116eb61202f565b73ffffffffffffffffffffffffffffffffffffffff163373ffffffffffffffffffffffffffffffffffffffff1614611758576040517f08c379a000000000000000000000000000000000000000000000000000000000815260040161174f90613036565b60405180910390fd5b806004600082815260200190815260200160002060009054906101000a900460ff166117b9576040517f08c379a00000000000000000000000000000000000000000000000000000000081526004016117b0906130a2565b60405180910390fd5b60006004600084815260200190815260200160002060006101000a81548160ff02191690831515021790555060005b6006805490508110156118ad5760006006828154811061180b5761180a6131c0565b5b9060005260206000200154905083810361189f576006600160068054905061183391906131ef565b81548110611844576118436131c0565b5b906000526020600020015460068381548110611863576118626131c0565b5b9060005260206000200181905550600680548061188357611882613a13565b5b60019003818190600052602060002001600090559055506118ad565b5080806001019150506117e8565b505050565b6118ba61202f565b73ffffffffffffffffffffffffffffffffffffffff163373ffffffffffffffffffffffffffffffffffffffff1614611927576040517f08c379a000000000000000000000000000000000000000000000000000000000815260040161191e90613036565b60405180910390fd5b816004600082815260200190815260200160002060009054906101000a900460ff16611988576040517f08c379a000000000000000000000000000000000000000000000000000000000815260040161197f906130a2565b60405180910390fd5b600060036000858152602001908152602001600020905082816002018190555050505050565b6119b66126c1565b816004600082815260200190815260200160002060009054906101000a900460ff16611a17576040517f08c379a0000000000000000000000000000000000000000000000000000000008152600401611a0e906130a2565b60405180910390fd5b6000600360008581526020019081526020016000206040518060c00160405290816000820154815260200160018201548152602001600282015481526020016003820160009054906101000a900473ffffffffffffffffffffffffffffffffffffffff1673ffffffffffffffffffffffffffffffffffffffff1673ffffffffffffffffffffffffffffffffffffffff1681526020016004820154815260200160058201548152505090508092505050919050565b611ad361202f565b73ffffffffffffffffffffffffffffffffffffffff163373ffffffffffffffffffffffffffffffffffffffff1614611b40576040517f08c379a0000000000000000000000000000000000000000000000000000000008152600401611b3790613036565b60405180910390fd5b6000600581905550565b60016020528060005260406000206000915090508060000160009054906101000a900473ffffffffffffffffffffffffffffffffffffffff1690806001015490806002015490806003018054611b9f90613389565b80601f0160208091040260200160405190810160405280929190818152602001828054611bcb90613389565b8015611c185780601f10611bed57610100808354040283529160200191611c18565b820191906000526020600020905b815481529060010190602001808311611bfb57829003601f168201915b5050505050908060040160009054906101000a900473ffffffffffffffffffffffffffffffffffffffff16908060040160149054906101000a900467ffffffffffffffff1690806005018054611c6d90613389565b80601f0160208091040260200160405190810160405280929190818152602001828054611c9990613389565b8015611ce65780601f10611cbb57610100808354040283529160200191611ce6565b820191906000526020600020905b815481529060010190602001808311611cc957829003601f168201915b5050505050905087565b60006001600083815260200190815260200160002090506000611d1161204b565b73ffffffffffffffffffffffffffffffffffffffff166317861f87846040518263ffffffff1660e01b8152600401611d499190612888565b600060405180830381865afa158015611d66573d6000803e3d6000fd5b505050506040513d6000823e3d601f19601f82011682018060405250810190611d8f9190613ab2565b90506000815111611dd5576040517f08c379a0000000000000000000000000000000000000000000000000000000008152600401611dcc90613b47565b60405180910390fd5b600073ffffffffffffffffffffffffffffffffffffffff168260040160009054906101000a900473ffffffffffffffffffffffffffffffffffffffff1673ffffffffffffffffffffffffffffffffffffffff1614611fba576000611e37610bcd565b83600101548385600501604051602401611e5393929190613b67565b604051602081830303815290604052907bffffffffffffffffffffffffffffffffffffffffffffffffffffffff19166020820180517bffffffffffffffffffffffffffffffffffffffffffffffffffffffff838183161783525050505090506000808460040160009054906101000a900473ffffffffffffffffffffffffffffffffffffffff1673ffffffffffffffffffffffffffffffffffffffff168560040160149054906101000a900467ffffffffffffffff1667ffffffffffffffff1684604051611f2191906134d6565b60006040518083038160008787f1925050503d8060008114611f5f576040519150601f19603f3d011682016040523d82523d6000602084013e611f64565b606091505b509150915081611fa9576040517f08c379a0000000000000000000000000000000000000000000000000000000008152600401611fa090613539565b60405180910390fd5b81611fb657805160208201fd5b5050505b80600260008581526020019081526020016000209081611fda91906138e0565b50823373ffffffffffffffffffffffffffffffffffffffff167fec2650f3d0548c85cc72c3ecef74483fd06aed05d55ea3ff47edc79cadafe044836040516120229190612fb7565b60405180910390a3505050565b600073f5aeb5a4b35be7af7dbfdb765f99bcf479c917bd905090565b600073a8a416519cd5dd60c1dc97b195443d3263a6cb60905090565b61206f61202f565b73ffffffffffffffffffffffffffffffffffffffff163373ffffffffffffffffffffffffffffffffffffffff16146120dc576040517f08c379a00000000000000000000000000000000000000000000000000000000081526004016120d390613036565b60405180910390fd5b600660006120ea9190612713565b565b6002602052806000526040600020600091509050805461210b90613389565b80601f016020809104026020016040519081016040528092919081815260200182805461213790613389565b80156121845780601f1061215957610100808354040283529160200191612184565b820191906000526020600020905b81548152906001019060200180831161216757829003601f168201915b505050505081565b61219461202f565b73ffffffffffffffffffffffffffffffffffffffff163373ffffffffffffffffffffffffffffffffffffffff1614612201576040517f08c379a00000000000000000000000000000000000000000000000000000000081526004016121f890613036565b60405180910390fd5b6004600087815260200190815260200160002060009054906101000a900460ff1615612262576040517f08c379a000000000000000000000000000000000000000000000000000000000815260040161225990613bf8565b60405180910390fd5b60648111156122a6576040517f08c379a000000000000000000000000000000000000000000000000000000000815260040161229d9061326f565b60405180910390fd5b60016004600088815260200190815260200160002060006101000a81548160ff02191690831515021790555060068690806001815401808255809150506001900390600052602060002001600090919091909150556000600360008881526020019081526020016000209050858160000181905550848160010181905550838160020181905550828160030160006101000a81548173ffffffffffffffffffffffffffffffffffffffff021916908373ffffffffffffffffffffffffffffffffffffffff16021790555081816004018190555061238161204b565b73ffffffffffffffffffffffffffffffffffffffff16635c3d151987876040518363ffffffff1660e01b81526004016123bb929190613c18565b600060405180830381600087803b1580156123d557600080fd5b505af11580156123e9573d6000803e3d6000fd5b5050505050505050505050565b6000600680549050905090565b60006020528060005260406000206000915054906101000a900460ff1681565b600073f5aeb5a4b35be7af7dbfdb765f99bcf479c917bd905090565b60055481565b836004600082815260200190815260200160002060009054906101000a900460ff166124a6576040517f08c379a000000000000000000000000000000000000000000000000000000000815260040161249d906130a2565b60405180910390fd5b826000808273ffffffffffffffffffffffffffffffffffffffff1673ffffffffffffffffffffffffffffffffffffffff16815260200190815260200160002060009054906101000a900460ff1615612533576040517f08c379a000000000000000000000000000000000000000000000000000000000815260040161252a90613c8d565b60405180910390fd5b60006003600088815260200190815260200160002090508367ffffffffffffffff1660055461256291906130f1565b81600201546125719190613133565b3410156125b3576040517f08c379a00000000000000000000000000000000000000000000000000000000081526004016125aa90613cf9565b60405180910390fd5b6064816004015482600201546125c991906130f1565b6125d39190613d48565b8160050160008282546125e69190613133565b925050819055506000865111612631576040517f08c379a000000000000000000000000000000000000000000000000000000000815260040161262890613dc5565b60405180910390fd5b60008073ffffffffffffffffffffffffffffffffffffffff168673ffffffffffffffffffffffffffffffffffffffff1614905060008567ffffffffffffffff16141515811515146126b7576040517f08c379a00000000000000000000000000000000000000000000000000000000081526004016126ae90613e31565b60405180910390fd5b5050505050505050565b6040518060c00160405280600080191681526020016000801916815260200160008152602001600073ffffffffffffffffffffffffffffffffffffffff16815260200160008152602001600081525090565b50805460008255906000526020600020908101906127319190612734565b50565b5b8082111561274d576000816000905550600101612735565b5090565b6000604051905090565b600080fd5b600080fd5b6000819050919050565b61277881612765565b811461278357600080fd5b50565b6000813590506127958161276f565b92915050565b600073ffffffffffffffffffffffffffffffffffffffff82169050919050565b60006127c68261279b565b9050919050565b6127d6816127bb565b81146127e157600080fd5b50565b6000813590506127f3816127cd565b92915050565b600080604083850312156128105761280f61275b565b5b600061281e85828601612786565b925050602061282f858286016127e4565b9150509250929050565b600080604083850312156128505761284f61275b565b5b600061285e85828601612786565b925050602061286f85828601612786565b9150509250929050565b61288281612765565b82525050565b600060208201905061289d6000830184612879565b92915050565b6000602082840312156128b9576128b861275b565b5b60006128c784828501612786565b91505092915050565b60008115159050919050565b6128e5816128d0565b82525050565b600060208201905061290060008301846128dc565b92915050565b60006020828403121561291c5761291b61275b565b5b600061292a848285016127e4565b91505092915050565b60007fffffffff0000000000000000000000000000000000000000000000000000000082169050919050565b61296881612933565b82525050565b6000602082019050612983600083018461295f565b92915050565b6000819050919050565b61299c81612989565b81146129a757600080fd5b50565b6000813590506129b981612993565b92915050565b60008060008060008060c087890312156129dc576129db61275b565b5b60006129ea89828a01612786565b96505060206129fb89828a016129aa565b9550506040612a0c89828a016129aa565b9450506060612a1d89828a01612786565b9350506080612a2e89828a016127e4565b92505060a0612a3f89828a01612786565b9150509295509295509295565b600080fd5b600080fd5b600080fd5b60008083601f840112612a7157612a70612a4c565b5b8235905067ffffffffffffffff811115612a8e57612a8d612a51565b5b602083019150836001820283011115612aaa57612aa9612a56565b5b9250929050565b600080600060408486031215612aca57612ac961275b565b5b6000612ad886828701612786565b935050602084013567ffffffffffffffff811115612af957612af8612760565b5b612b0586828701612a5b565b92509250509250925092565b600080fd5b6000601f19601f8301169050919050565b7f4e487b7100000000000000000000000000000000000000000000000000000000600052604160045260246000fd5b612b5f82612b16565b810181811067ffffffffffffffff82111715612b7e57612b7d612b27565b5b80604052505050565b6000612b91612751565b9050612b9d8282612b56565b919050565b600067ffffffffffffffff821115612bbd57612bbc612b27565b5b612bc682612b16565b9050602081019050919050565b82818337600083830152505050565b6000612bf5612bf084612ba2565b612b87565b905082815260208101848484011115612c1157612c10612b11565b5b612c1c848285612bd3565b509392505050565b600082601f830112612c3957612c38612a4c565b5b8135612c49848260208601612be2565b91505092915050565b600067ffffffffffffffff82169050919050565b612c6f81612c52565b8114612c7a57600080fd5b50565b600081359050612c8c81612c66565b92915050565b600080600080600060a08688031215612cae57612cad61275b565b5b6000612cbc88828901612786565b955050602086013567ffffffffffffffff811115612cdd57612cdc612760565b5b612ce988828901612c24565b9450506040612cfa888289016127e4565b9350506060612d0b88828901612c7d565b925050608086013567ffffffffffffffff811115612d2c57612d2b612760565b5b612d3888828901612c24565b9150509295509295909350565b612d4e81612989565b82525050565b612d5d81612765565b82525050565b612d6c816127bb565b82525050565b60c082016000820151612d886000850182612d45565b506020820151612d9b6020850182612d45565b506040820151612dae6040850182612d54565b506060820151612dc16060850182612d63565b506080820151612dd46080850182612d54565b5060a0820151612de760a0850182612d54565b50505050565b600060c082019050612e026000830184612d72565b92915050565b612e11816127bb565b82525050565b600081519050919050565b600082825260208201905092915050565b60005b83811015612e51578082015181840152602081019050612e36565b60008484015250505050565b6000612e6882612e17565b612e728185612e22565b9350612e82818560208601612e33565b612e8b81612b16565b840191505092915050565b612e9f81612c52565b82525050565b600060e082019050612eba600083018a612e08565b612ec76020830189612879565b612ed46040830188612879565b8181036060830152612ee68187612e5d565b9050612ef56080830186612e08565b612f0260a0830185612e96565b81810360c0830152612f148184612e5d565b905098975050505050505050565b6000602082019050612f376000830184612e08565b92915050565b6000819050919050565b6000612f62612f5d612f588461279b565b612f3d565b61279b565b9050919050565b6000612f7482612f47565b9050919050565b6000612f8682612f69565b9050919050565b612f9681612f7b565b82525050565b6000602082019050612fb16000830184612f8d565b92915050565b60006020820190508181036000830152612fd18184612e5d565b905092915050565b600082825260208201905092915050565b7f4e6f7420746865206f776e657200000000000000000000000000000000000000600082015250565b6000613020600d83612fd9565b915061302b82612fea565b602082019050919050565b6000602082019050818103600083015261304f81613013565b9050919050565b7f6d6f64656c20646f6573206e6f74206578697374000000000000000000000000600082015250565b600061308c601483612fd9565b915061309782613056565b602082019050919050565b600060208201905081810360008301526130bb8161307f565b9050919050565b7f4e487b7100000000000000000000000000000000000000000000000000000000600052601160045260246000fd5b60006130fc82612765565b915061310783612765565b925082820261311581612765565b9150828204841483151761312c5761312b6130c2565b5b5092915050565b600061313e82612765565b915061314983612765565b9250828201905080821115613161576131606130c2565b5b92915050565b613170816128d0565b811461317b57600080fd5b50565b60008151905061318d81613167565b92915050565b6000602082840312156131a9576131a861275b565b5b60006131b78482850161317e565b91505092915050565b7f4e487b7100000000000000000000000000000000000000000000000000000000600052603260045260246000fd5b60006131fa82612765565b915061320583612765565b925082820390508181111561321d5761321c6130c2565b5b92915050565b7f70657263656e746167652073686f756c64206265203c3d203130300000000000600082015250565b6000613259601b83612fd9565b915061326482613223565b602082019050919050565b600060208201905081810360008301526132888161324c565b9050919050565b7f4f6e6c7920736572766572000000000000000000000000000000000000000000600082015250565b60006132c5600b83612fd9565b91506132d08261328f565b602082019050919050565b600060208201905081810360008301526132f4816132b8565b9050919050565b60006133078385612e22565b9350613314838584612bd3565b61331d83612b16565b840190509392505050565b600060408201905061333d6000830186612879565b81810360208301526133508184866132fb565b9050949350505050565b7f4e487b7100000000000000000000000000000000000000000000000000000000600052602260045260246000fd5b600060028204905060018216806133a157607f821691505b6020821081036133b4576133b361335a565b5b50919050565b60008190508160005260206000209050919050565b600081546133dc81613389565b6133e68186612e22565b9450600182166000811461340157600181146134175761344a565b60ff19831686528115156020028601935061344a565b613420856133ba565b60005b8381101561344257815481890152600182019150602081019050613423565b808801955050505b50505092915050565b60006060820190506134686000830187612879565b818103602083015261347b8185876132fb565b9050818103604083015261348f81846133cf565b905095945050505050565b600081905092915050565b60006134b082612e17565b6134ba818561349a565b93506134ca818560208601612e33565b80840191505092915050565b60006134e282846134a5565b915081905092915050565b7f6661696c656420746f2063616c6c2073656c6563746f72000000000000000000600082015250565b6000613523601783612fd9565b915061352e826134ed565b602082019050919050565b6000602082019050818103600083015261355281613516565b9050919050565b600082905092915050565b60006020601f8301049050919050565b600082821b905092915050565b6000600883026135b17fffffffffffffffffffffffffffffffffffffffffffffffffffffffffffffffff82613574565b6135bb8683613574565b95508019841693508086168417925050509392505050565b60006135ee6135e96135e484612765565b612f3d565b612765565b9050919050565b6000819050919050565b613608836135d3565b61361c613614826135f5565b848454613581565b825550505050565b600090565b613631613624565b61363c8184846135ff565b505050565b5b8181101561366057613655600082613629565b600181019050613642565b5050565b601f8211156136a557613676816133ba565b61367f84613564565b8101602085101561368e578190505b6136a261369a85613564565b830182613641565b50505b505050565b600082821c905092915050565b60006136c8600019846008026136aa565b1980831691505092915050565b60006136e183836136b7565b9150826002028217905092915050565b6136fb8383613559565b67ffffffffffffffff81111561371457613713612b27565b5b61371e8254613389565b613729828285613664565b6000601f8311600181146137585760008415613746578287013590505b61375085826136d5565b8655506137b8565b601f198416613766866133ba565b60005b8281101561378e57848901358255600182019150602085019450602081019050613769565b868310156137ab57848901356137a7601f8916826136b7565b8355505b6001600288020188555050505b50505050505050565b600060208201905081810360008301526137dc8184866132fb565b90509392505050565b7f616363756d756c61746520726576656e75652069732030000000000000000000600082015250565b600061381b601783612fd9565b9150613826826137e5565b602082019050919050565b6000602082019050818103600083015261384a8161380e565b9050919050565b61385a81612989565b82525050565b60006060820190506138756000830186613851565b6138826020830185613851565b81810360408301526138948184612e5d565b9050949350505050565b6000815190506138ad8161276f565b92915050565b6000602082840312156138c9576138c861275b565b5b60006138d78482850161389e565b91505092915050565b6138e982612e17565b67ffffffffffffffff81111561390257613901612b27565b5b61390c8254613389565b613917828285613664565b600060209050601f83116001811461394a5760008415613938578287015190505b61394285826136d5565b8655506139aa565b601f198416613958866133ba565b60005b828110156139805784890151825560018201915060208501945060208101905061395b565b8683101561399d5784890151613999601f8916826136b7565b8355505b6001600288020188555050505b505050505050565b600060a0820190506139c76000830188612879565b81810360208301526139d98187612e5d565b90506139e86040830186612e08565b6139f56060830185612e96565b8181036080830152613a078184612e5d565b90509695505050505050565b7f4e487b7100000000000000000000000000000000000000000000000000000000600052603160045260246000fd5b6000613a55613a5084612ba2565b612b87565b905082815260208101848484011115613a7157613a70612b11565b5b613a7c848285612e33565b509392505050565b600082601f830112613a9957613a98612a4c565b5b8151613aa9848260208601613a42565b91505092915050565b600060208284031215613ac857613ac761275b565b5b600082015167ffffffffffffffff811115613ae657613ae5612760565b5b613af284828501613a84565b91505092915050565b7f6f7574707574206e6f742075706c6f6164656400000000000000000000000000600082015250565b6000613b31601383612fd9565b9150613b3c82613afb565b602082019050919050565b60006020820190508181036000830152613b6081613b24565b9050919050565b6000606082019050613b7c6000830186612879565b8181036020830152613b8e8185612e5d565b90508181036040830152613ba281846133cf565b9050949350505050565b7f6d6f64656c20616c726561647920657869737473000000000000000000000000600082015250565b6000613be2601483612fd9565b9150613bed82613bac565b602082019050919050565b60006020820190508181036000830152613c1181613bd5565b9050919050565b6000604082019050613c2d6000830185613851565b613c3a6020830184613851565b9392505050565b7f496e20626c61636b6c6973740000000000000000000000000000000000000000600082015250565b6000613c77600c83612fd9565b9150613c8282613c41565b602082019050919050565b60006020820190508181036000830152613ca681613c6a565b9050919050565b7f696e73756666696369656e742066656500000000000000000000000000000000600082015250565b6000613ce3601083612fd9565b9150613cee82613cad565b602082019050919050565b60006020820190508181036000830152613d1281613cd6565b9050919050565b7f4e487b7100000000000000000000000000000000000000000000000000000000600052601260045260246000fd5b6000613d5382612765565b9150613d5e83612765565b925082613d6e57613d6d613d19565b5b828204905092915050565b7f696e707574206e6f742075706c6f616465640000000000000000000000000000600082015250565b6000613daf601283612fd9565b9150613dba82613d79565b602082019050919050565b60006020820190508181036000830152613dde81613da2565b9050919050565b7f6761734c696d69742063616e6e6f742062652030000000000000000000000000600082015250565b6000613e1b601483612fd9565b9150613e2682613de5565b602082019050919050565b60006020820190508181036000830152613e4a81613e0e565b905091905056fea264697066735822122015ac85a1a8abb3f733b5c096f0522f2222b976232f0d44c809c20a54878d84b664736f6c63430008180033",
  "linkReferences": {},
  "deployedLinkReferences": {}
}