{
  "contractName": "AIOracle",
  "abi": [
    {
      "anonymous": false,
      "inputs": [
        {
          "indexed": true,
          "internalType": "address",
          "name": "account",
          "type": "address"
        },
        {
          "indexed": true,
          "internalType": "uint256",
          "name": "requestId",
          "type": "uint256"
        },
        {
          "indexed": false,
          "internalType": "uint256",
          "name": "modelId",
          "type": "uint256"
        },
        {
          "indexed": false,
          "internalType": "bytes",
          "name": "input",
          "type": "bytes"
        },
        {
          "indexed": false,
          "internalType": "address",
          "name": "callbackContract",
          "type": "address"
        },
        {
          "indexed": false,
          "internalType": "uint64",
          "name": "gasLimit",
          "type": "uint64"
        },
        {
          "indexed": false,
          "internalType": "bytes",
          "name": "callbackData",
          "type": "bytes"
        }
      ],
      "name": "AICallbackRequest",
      "type": "event"
    },
    {
      "anonymous": false,
      "inputs": [
        {
          "indexed": true,
          "internalType": "address",
          "name": "invoker",
          "type": "address"
        },
        {
          "indexed": true,
          "internalType": "uint256",
          "name": "requestId",
          "type": "uint256"
        },
        {
          "indexed": false,
          "internalType": "bytes",
          "name": "output",
          "type": "bytes"
        }
      ],
      "name": "AICallbackResult",
      "type": "event"
    },
    {
      "inputs": [
        {
          "internalType": "address",
          "name": "",
          "type": "address"
        }
      ],
      "name": "blacklist",
      "outputs": [
        {
          "internalType": "bool",
          "name": "",
          "type": "bool"
        }
      ],
      "stateMutability": "view",
      "type": "function"
    },
    {
      "inputs": [],
      "name": "gasPrice",
      "outputs": [
        {
          "internalType": "uint256",
          "name": "",
          "type": "uint256"
        }
      ],
      "stateMutability": "view",
      "type": "function"
    },
    {
      "inputs": [
        {
          "internalType": "uint256",
          "name": "",
          "type": "uint256"
        }
      ],
      "name": "modelIDs",
      "outputs": [
        {
          "internalType": "uint256",
          "name": "",
          "type": "uint256"
        }
      ],
      "stateMutability": "view",
      "type": "function"
    },
    {
      "inputs": [
        {
          "internalType": "uint256",
          "name": "",
          "type": "uint256"
        }
      ],
      "name": "outputOfRequest",
      "outputs": [
        {
          "internalType": "bytes",
          "name": "",
          "type": "bytes"
        }
      ],
      "stateMutability": "view",
      "type": "function"
    },
    {
      "inputs": [
        {
          "internalType": "uint256",
          "name": "",
          "type": "uint256"
        }
      ],
      "name": "requests",
      "outputs": [
        {
          "internalType": "address",
          "name": "account",
          "type": "address"
        },
        {
          "internalType": "uint256",
          "name": "requestId",
          "type": "uint256"
        },
        {
          "internalType": "uint256",
          "name": "modelId",
          "type": "uint256"
        },
        {
          "internalType": "bytes",
          "name": "input",
          "type": "bytes"
        },
        {
          "internalType": "address",
          "name": "callbackContract",
          "type": "address"
        },
        {
          "internalType": "uint64",
          "name": "gasLimit",
          "type": "uint64"
        },
        {
          "internalType": "bytes",
          "name": "callbackData",
          "type": "bytes"
        }
      ],
      "stateMutability": "view",
      "type": "function"
    },
    {
      "inputs": [],
      "name": "opml",
      "outputs": [
        {
          "internalType": "contract IOpml",
          "name": "",
          "type": "address"
        }
      ],
      "stateMutability": "pure",
      "type": "function"
    },
    {
      "inputs": [],
      "name": "owner",
      "outputs": [
        {
          "internalType": "address",
          "name": "",
          "type": "address"
        }
      ],
      "stateMutability": "pure",
      "type": "function"
    },
    {
      "inputs": [],
      "name": "server",
      "outputs": [
        {
          "internalType": "address",
          "name": "",
          "type": "address"
        }
      ],
      "stateMutability": "pure",
      "type": "function"
    },
    {
      "inputs": [],
      "name": "callbackFunctionSelector",
      "outputs": [
        {
          "internalType": "bytes4",
          "name": "",
          "type": "bytes4"
        }
      ],
      "stateMutability": "pure",
      "type": "function"
    },
    {
      "inputs": [
        {
          "internalType": "address",
          "name": "_address",
          "type": "address"
        }
      ],
      "name": "addToBlacklist",
      "outputs": [],
      "stateMutability": "nonpayable",
      "type": "function"
    },
    {
      "inputs": [
        {
          "internalType": "address",
          "name": "_address",
          "type": "address"
        }
      ],
      "name": "removeFromBlacklist",
      "outputs": [],
      "stateMutability": "nonpayable",
      "type": "function"
    },
    {
      "inputs": [],
      "name": "resetGasPrice",
      "outputs": [],
      "stateMutability": "nonpayable",
      "type": "function"
    },
    {
      "inputs": [],
      "name": "resetModelIDs",
      "outputs": [],
      "stateMutability": "nonpayable",
      "type": "function"
    },
    {
      "inputs": [],
      "name": "numberOfModels",
      "outputs": [
        {
          "internalType": "uint256",
          "name": "",
          "type": "uint256"
        }
      ],
      "stateMutability": "view",
      "type": "function"
    },
    {
      "inputs": [
        {
          "internalType": "uint256",
          "name": "modelId",
          "type": "uint256"
        }
      ],
      "name": "removeModel",
      "outputs": [],
      "stateMutability": "nonpayable",
      "type": "function"
    },
    {
      "inputs": [],
      "name": "withdraw",
      "outputs": [],
      "stateMutability": "nonpayable",
      "type": "function"
    },
    {
      "inputs": [
        {
          "internalType": "uint256",
          "name": "modelId",
          "type": "uint256"
        },
        {
          "internalType": "uint256",
          "name": "_fee",
          "type": "uint256"
        }
      ],
      "name": "setModelFee",
      "outputs": [],
      "stateMutability": "nonpayable",
      "type": "function"
    },
    {
      "inputs": [
        {
          "internalType": "uint256",
          "name": "modelId",
          "type": "uint256"
        },
        {
          "internalType": "address",
          "name": "receiver",
          "type": "address"
        }
      ],
      "name": "setModelReceiver",
      "outputs": [],
      "stateMutability": "nonpayable",
      "type": "function"
    },
    {
      "inputs": [
        {
          "internalType": "uint256",
          "name": "modelId",
          "type": "uint256"
        },
        {
          "internalType": "uint256",
          "name": "receiverPercentage",
          "type": "uint256"
        }
      ],
      "name": "setModelReceiverPercentage",
      "outputs": [],
      "stateMutability": "nonpayable",
      "type": "function"
    },
    {
      "inputs": [
        {
          "internalType": "uint256",
          "name": "modelId",
          "type": "uint256"
        }
      ],
      "name": "getModel",
      "outputs": [
        {
          "components": [
            {
              "internalType": "bytes32",
              "name": "modelHash",
              "type": "bytes32"
            },
            {
              "internalType": "bytes32",
              "name": "programHash",
              "type": "bytes32"
            },
            {
              "internalType": "uint256",
              "name": "fee",
              "type": "uint256"
            },
            {
              "internalType": "address",
              "name": "receiver",
              "type": "address"
            },
            {
              "internalType": "uint256",
              "name": "receiverPercentage",
              "type": "uint256"
            },
            {
              "internalType": "uint256",
              "name": "accumulateRevenue",
              "type": "uint256"
            }
          ],
          "internalType": "struct AIOracle.ModelData",
          "name": "",
          "type": "tuple"
        }
      ],
      "stateMutability": "view",
      "type": "function"
    },
    {
      "inputs": [
        {
          "internalType": "uint256",
          "name": "modelId",
          "type": "uint256"
        },
        {
          "internalType": "uint256",
          "name": "gasLimit",
          "type": "uint256"
        }
      ],
      "name": "estimateFee",
      "outputs": [
        {
          "internalType": "uint256",
          "name": "",
          "type": "uint256"
        }
      ],
      "stateMutability": "view",
      "type": "function"
    },
    {
      "inputs": [
        {
          "internalType": "uint256",
          "name": "modelId",
          "type": "uint256"
        },
        {
          "internalType": "bytes32",
          "name": "modelHash",
          "type": "bytes32"
        },
        {
          "internalType": "bytes32",
          "name": "programHash",
          "type": "bytes32"
        },
        {
          "internalType": "uint256",
          "name": "fee",
          "type": "uint256"
        },
        {
          "internalType": "address",
          "name": "receiver",
          "type": "address"
        },
        {
          "internalType": "uint256",
          "name": "receiverPercentage",
          "type": "uint256"
        }
      ],
      "name": "uploadModel",
      "outputs": [],
      "stateMutability": "nonpayable",
      "type": "function"
    },
    {
      "inputs": [
        {
          "internalType": "uint256",
          "name": "modelId",
          "type": "uint256"
        },
        {
          "internalType": "bytes32",
          "name": "modelHash",
          "type": "bytes32"
        },
        {
          "internalType": "bytes32",
          "name": "programHash",
          "type": "bytes32"
        },
        {
          "internalType": "uint256",
          "name": "fee",
          "type": "uint256"
        },
        {
          "internalType": "address",
          "name": "receiver",
          "type": "address"
        },
        {
          "internalType": "uint256",
          "name": "receiverPercentage",
          "type": "uint256"
        }
      ],
      "name": "updateModel",
      "outputs": [],
      "stateMutability": "nonpayable",
      "type": "function"
    },
    {
      "inputs": [
        {
          "internalType": "uint256",
          "name": "requestId",
          "type": "uint256"
        }
      ],
      "name": "isFinalized",
      "outputs": [
        {
          "internalType": "bool",
          "name": "",
          "type": "bool"
        }
      ],
      "stateMutability": "view",
      "type": "function"
    },
    {
      "inputs": [
        {
          "internalType": "uint256",
          "name": "modelId",
          "type": "uint256"
        },
        {
          "internalType": "bytes",
          "name": "input",
          "type": "bytes"
        },
        {
          "internalType": "address",
          "name": "callbackContract",
          "type": "address"
        },
        {
          "internalType": "uint64",
          "name": "gasLimit",
          "type": "uint64"
        },
        {
          "internalType": "bytes",
          "name": "callbackData",
          "type": "bytes"
        }
      ],
      "name": "requestCallback",
      "outputs": [
        {
          "internalType": "uint256",
          "name": "",
          "type": "uint256"
        }
      ],
      "stateMutability": "payable",
      "type": "function"
    },
    {
      "inputs": [
        {
          "internalType": "uint256",
          "name": "modelId",
          "type": "uint256"
        }
      ],
      "name": "claimModelRevenue",
      "outputs": [],
      "stateMutability": "nonpayable",
      "type": "function"
    },
    {
      "inputs": [
        {
          "internalType": "uint256",
          "name": "requestId",
          "type": "uint256"
        }
      ],
      "name": "updateResult",
      "outputs": [],
      "stateMutability": "nonpayable",
      "type": "function"
    },
    {
      "inputs": [
        {
          "internalType": "uint256",
          "name": "requestId",
          "type": "uint256"
        },
        {
          "internalType": "bytes",
          "name": "output",
          "type": "bytes"
        }
      ],
      "name": "invokeCallback",
      "outputs": [],
      "stateMutability": "nonpayable",
      "type": "function"
    }
  ],
  "bytecode": "0x608060405234801561000f575f80fd5b50613d1a8061001d5f395ff3fe6080604052600436106101b4575f3560e01c80636c124d74116100eb578063ace04ec711610089578063e857f74711610063578063e857f747146105ce578063f9f92be4146105f8578063fd922a4214610634578063fe173b971461065e576101b4565b8063ace04ec714610554578063b10975231461056a578063b70b5ccc146105a6576101b4565b806381d12c58116100c557806381d12c581461049657806382dcc26d146104d85780638da5cb5b146105005780639a6a794f1461052a576101b4565b80636c124d741461041c5780636d36169414610444578063754592b214610480576101b4565b8063537df3b6116101585780635638101b116101325780635638101b146103745780635b9538061461039c578063699ecb83146103cc5780636b0641a3146103f4576101b4565b8063537df3b6146102fc57806354c33b101461032457806355d15d931461034c576101b4565b8063349c413611610194578063349c4136146102585780633ccfd60b1461029457806344337ea1146102aa57806349163731146102d2576101b4565b806277f244146101b8578062e1d8d0146101e057806333727c4d1461021c575b5f80fd5b3480156101c3575f80fd5b506101de60048036038101906101d991906126fd565b610688565b005b3480156101eb575f80fd5b506102066004803603810190610201919061273b565b6107b7565b6040516102139190612788565b60405180910390f35b348015610227575f80fd5b50610242600480360381019061023d91906127a1565b610851565b60405161024f91906127e6565b60405180910390f35b348015610263575f80fd5b5061027e600480360381019061027991906127a1565b6108d8565b60405161028b9190612788565b60405180910390f35b34801561029f575f80fd5b506102a86108f8565b005b3480156102b5575f80fd5b506102d060048036038101906102cb91906127ff565b610ac4565b005b3480156102dd575f80fd5b506102e6610b90565b6040516102f39190612864565b60405180910390f35b348015610307575f80fd5b50610322600480360381019061031d91906127ff565b610b9e565b005b34801561032f575f80fd5b5061034a600480360381019061034591906128b0565b610c69565b005b348015610357575f80fd5b50610372600480360381019061036d919061299a565b610e03565b005b34801561037f575f80fd5b5061039a600480360381019061039591906127a1565b61115a565b005b6103b660048036038101906103b19190612b6c565b61128b565b6040516103c39190612788565b60405180910390f35b3480156103d7575f80fd5b506103f260048036038101906103ed919061273b565b611529565b005b3480156103ff575f80fd5b5061041a600480360381019061041591906127a1565b611663565b005b348015610427575f80fd5b50610442600480360381019061043d919061273b565b611826565b005b34801561044f575f80fd5b5061046a600480360381019061046591906127a1565b61191c565b6040516104779190612cc1565b60405180910390f35b34801561048b575f80fd5b50610494611a31565b005b3480156104a1575f80fd5b506104bc60048036038101906104b791906127a1565b611aaf565b6040516104cf9796959493929190612d72565b60405180910390f35b3480156104e3575f80fd5b506104fe60048036038101906104f991906127a1565b611c4b565b005b34801561050b575f80fd5b50610514611f76565b6040516105219190612ded565b60405180910390f35b348015610535575f80fd5b5061053e611f91565b60405161054b9190612e61565b60405180910390f35b34801561055f575f80fd5b50610568611fac565b005b348015610575575f80fd5b50610590600480360381019061058b91906127a1565b612030565b60405161059d9190612e7a565b60405180910390f35b3480156105b1575f80fd5b506105cc60048036038101906105c791906128b0565b6120cb565b005b3480156105d9575f80fd5b506105e2612322565b6040516105ef9190612788565b60405180910390f35b348015610603575f80fd5b5061061e600480360381019061061991906127ff565b61232e565b60405161062b91906127e6565b60405180910390f35b34801561063f575f80fd5b5061064861234a565b6040516106559190612ded565b60405180910390f35b348015610669575f80fd5b50610672612365565b60405161067f9190612788565b60405180910390f35b610690611f76565b73ffffffffffffffffffffffffffffffffffffffff163373ffffffffffffffffffffffffffffffffffffffff16146106fd576040517f08c379a00000000000000000000000000000000000000000000000000000000081526004016106f490612ef4565b60405180910390fd5b8160045f8281526020019081526020015f205f9054906101000a900460ff1661075b576040517f08c379a000000000000000000000000000000000000000000000000000000000815260040161075290612f5c565b60405180910390fd5b5f60035f8581526020019081526020015f20905082816003015f6101000a81548173ffffffffffffffffffffffffffffffffffffffff021916908373ffffffffffffffffffffffffffffffffffffffff16021790555050505050565b5f8260045f8281526020019081526020015f205f9054906101000a900460ff16610816576040517f08c379a000000000000000000000000000000000000000000000000000000000815260040161080d90612f5c565b60405180910390fd5b5f60035f8681526020019081526020015f209050836005546108389190612fa7565b81600201546108479190612fe8565b9250505092915050565b5f61085a611f91565b73ffffffffffffffffffffffffffffffffffffffff166333727c4d836040518263ffffffff1660e01b81526004016108929190612788565b602060405180830381865afa1580156108ad573d5f803e3d5ffd5b505050506040513d601f19601f820116820180604052508101906108d19190613045565b9050919050565b600681815481106108e7575f80fd5b905f5260205f20015f915090505481565b610900611f76565b73ffffffffffffffffffffffffffffffffffffffff163373ffffffffffffffffffffffffffffffffffffffff161461096d576040517f08c379a000000000000000000000000000000000000000000000000000000000815260040161096490612ef4565b60405180910390fd5b5f805f90505b600680549050811015610a6c575f6006828154811061099557610994613070565b5b905f5260205f20015490505f60035f8381526020019081526020015f206040518060c00160405290815f82015481526020016001820154815260200160028201548152602001600382015f9054906101000a900473ffffffffffffffffffffffffffffffffffffffff1673ffffffffffffffffffffffffffffffffffffffff1673ffffffffffffffffffffffffffffffffffffffff1681526020016004820154815260200160058201548152505090508060a0015184610a559190612fe8565b935050508080610a649061309d565b915050610973565b505f8147610a7a91906130e4565b90503373ffffffffffffffffffffffffffffffffffffffff166108fc8290811502906040515f60405180830381858888f19350505050158015610abf573d5f803e3d5ffd5b505050565b610acc611f76565b73ffffffffffffffffffffffffffffffffffffffff163373ffffffffffffffffffffffffffffffffffffffff1614610b39576040517f08c379a0000000000000000000000000000000000000000000000000000000008152600401610b3090612ef4565b60405180910390fd5b60015f808373ffffffffffffffffffffffffffffffffffffffff1673ffffffffffffffffffffffffffffffffffffffff1681526020019081526020015f205f6101000a81548160ff02191690831515021790555050565b5f63b034781460e01b905090565b610ba6611f76565b73ffffffffffffffffffffffffffffffffffffffff163373ffffffffffffffffffffffffffffffffffffffff1614610c13576040517f08c379a0000000000000000000000000000000000000000000000000000000008152600401610c0a90612ef4565b60405180910390fd5b5f805f8373ffffffffffffffffffffffffffffffffffffffff1673ffffffffffffffffffffffffffffffffffffffff1681526020019081526020015f205f6101000a81548160ff02191690831515021790555050565b610c71611f76565b73ffffffffffffffffffffffffffffffffffffffff163373ffffffffffffffffffffffffffffffffffffffff1614610cde576040517f08c379a0000000000000000000000000000000000000000000000000000000008152600401610cd590612ef4565b60405180910390fd5b8560045f8281526020019081526020015f205f9054906101000a900460ff16610d3c576040517f08c379a0000000000000000000000000000000000000000000000000000000008152600401610d3390612f5c565b60405180910390fd5b6064821115610d80576040517f08c379a0000000000000000000000000000000000000000000000000000000008152600401610d7790613161565b60405180910390fd5b5f60035f8981526020019081526020015f20905086815f018190555085816001018190555084816002018190555083816003015f6101000a81548173ffffffffffffffffffffffffffffffffffffffff021916908373ffffffffffffffffffffffffffffffffffffffff1602179055508281600401819055505050505050505050565b610e0b61234a565b73ffffffffffffffffffffffffffffffffffffffff163373ffffffffffffffffffffffffffffffffffffffff1614610e78576040517f08c379a0000000000000000000000000000000000000000000000000000000008152600401610e6f906131c9565b60405180910390fd5b5f60015f8581526020019081526020015f209050610e94611f91565b73ffffffffffffffffffffffffffffffffffffffff1663480f07c88585856040518463ffffffff1660e01b8152600401610ed093929190613213565b5f604051808303815f87803b158015610ee7575f80fd5b505af1158015610ef9573d5f803e3d5ffd5b505050505f73ffffffffffffffffffffffffffffffffffffffff16816004015f9054906101000a900473ffffffffffffffffffffffffffffffffffffffff1673ffffffffffffffffffffffffffffffffffffffff16146110db575f610f5c610b90565b8260010154858585600501604051602401610f7a9493929190613333565b604051602081830303815290604052907bffffffffffffffffffffffffffffffffffffffffffffffffffffffff19166020820180517bffffffffffffffffffffffffffffffffffffffffffffffffffffffff838183161783525050505090505f80836004015f9054906101000a900473ffffffffffffffffffffffffffffffffffffffff1673ffffffffffffffffffffffffffffffffffffffff168460040160149054906101000a900467ffffffffffffffff1667ffffffffffffffff168460405161104691906133b2565b5f604051808303815f8787f1925050503d805f8114611080576040519150601f19603f3d011682016040523d82523d5f602084013e611085565b606091505b5091509150816110ca576040517f08c379a00000000000000000000000000000000000000000000000000000000081526004016110c190613412565b60405180910390fd5b816110d757805160208201fd5b5050505b828260025f8781526020019081526020015f2091826110fb9291906135bc565b50833373ffffffffffffffffffffffffffffffffffffffff167fec2650f3d0548c85cc72c3ecef74483fd06aed05d55ea3ff47edc79cadafe0448585604051611145929190613689565b60405180910390a33a60058190555050505050565b8060045f8281526020019081526020015f205f9054906101000a900460ff166111b8576040517f08c379a00000000000000000000000000000000000000000000000000000000081526004016111af90612f5c565b60405180910390fd5b5f60035f8481526020019081526020015f2090505f816005015411611212576040517f08c379a0000000000000000000000000000000000000000000000000000000008152600401611209906136f5565b60405180910390fd5b806003015f9054906101000a900473ffffffffffffffffffffffffffffffffffffffff1673ffffffffffffffffffffffffffffffffffffffff166108fc826005015490811502906040515f60405180830381858888f1935050505015801561127c573d5f803e3d5ffd5b505f8160050181905550505050565b5f6112988686868661236b565b5f60035f8881526020019081526020015f206040518060c00160405290815f82015481526020016001820154815260200160028201548152602001600382015f9054906101000a900473ffffffffffffffffffffffffffffffffffffffff1673ffffffffffffffffffffffffffffffffffffffff1673ffffffffffffffffffffffffffffffffffffffff1681526020016004820154815260200160058201548152505090505f611346611f91565b73ffffffffffffffffffffffffffffffffffffffff1663c61b0b76835f015184602001518a6040518463ffffffff1660e01b815260040161138993929190613722565b6020604051808303815f875af11580156113a5573d5f803e3d5ffd5b505050506040513d601f19601f820116820180604052508101906113c99190613772565b90505f60015f8381526020019081526020015f20905033815f015f6101000a81548173ffffffffffffffffffffffffffffffffffffffff021916908373ffffffffffffffffffffffffffffffffffffffff16021790555081816001018190555088816002018190555087816003019081611443919061379d565b5086816004015f6101000a81548173ffffffffffffffffffffffffffffffffffffffff021916908373ffffffffffffffffffffffffffffffffffffffff160217905550858160040160146101000a81548167ffffffffffffffff021916908367ffffffffffffffff160217905550848160050190816114c2919061379d565b50813373ffffffffffffffffffffffffffffffffffffffff167f849aa5adc3bf6a75cb08afbf31d88d1528c274e5d84e3d4355d23d8e9ebd649b8b8b8b8b8b60405161151295949392919061386c565b60405180910390a381935050505095945050505050565b611531611f76565b73ffffffffffffffffffffffffffffffffffffffff163373ffffffffffffffffffffffffffffffffffffffff161461159e576040517f08c379a000000000000000000000000000000000000000000000000000000000815260040161159590612ef4565b60405180910390fd5b8160045f8281526020019081526020015f205f9054906101000a900460ff166115fc576040517f08c379a00000000000000000000000000000000000000000000000000000000081526004016115f390612f5c565b60405180910390fd5b6064821115611640576040517f08c379a000000000000000000000000000000000000000000000000000000000815260040161163790613161565b60405180910390fd5b5f60035f8581526020019081526020015f20905082816004018190555050505050565b61166b611f76565b73ffffffffffffffffffffffffffffffffffffffff163373ffffffffffffffffffffffffffffffffffffffff16146116d8576040517f08c379a00000000000000000000000000000000000000000000000000000000081526004016116cf90612ef4565b60405180910390fd5b8060045f8281526020019081526020015f205f9054906101000a900460ff16611736576040517f08c379a000000000000000000000000000000000000000000000000000000000815260040161172d90612f5c565b60405180910390fd5b5f60045f8481526020019081526020015f205f6101000a81548160ff0219169083151502179055505f5b600680549050811015611821575f6006828154811061178257611781613070565b5b905f5260205f200154905083810361180d57600660016006805490506117a891906130e4565b815481106117b9576117b8613070565b5b905f5260205f200154600683815481106117d6576117d5613070565b5b905f5260205f20018190555060068054806117f4576117f36138cb565b5b600190038181905f5260205f20015f9055905550611821565b5080806118199061309d565b915050611760565b505050565b61182e611f76565b73ffffffffffffffffffffffffffffffffffffffff163373ffffffffffffffffffffffffffffffffffffffff161461189b576040517f08c379a000000000000000000000000000000000000000000000000000000000815260040161189290612ef4565b60405180910390fd5b8160045f8281526020019081526020015f205f9054906101000a900460ff166118f9576040517f08c379a00000000000000000000000000000000000000000000000000000000081526004016118f090612f5c565b60405180910390fd5b5f60035f8581526020019081526020015f20905082816002018190555050505050565b6119246125da565b8160045f8281526020019081526020015f205f9054906101000a900460ff16611982576040517f08c379a000000000000000000000000000000000000000000000000000000000815260040161197990612f5c565b60405180910390fd5b5f60035f8581526020019081526020015f206040518060c00160405290815f82015481526020016001820154815260200160028201548152602001600382015f9054906101000a900473ffffffffffffffffffffffffffffffffffffffff1673ffffffffffffffffffffffffffffffffffffffff1673ffffffffffffffffffffffffffffffffffffffff1681526020016004820154815260200160058201548152505090508092505050919050565b611a39611f76565b73ffffffffffffffffffffffffffffffffffffffff163373ffffffffffffffffffffffffffffffffffffffff1614611aa6576040517f08c379a0000000000000000000000000000000000000000000000000000000008152600401611a9d90612ef4565b60405180910390fd5b5f600581905550565b6001602052805f5260405f205f91509050805f015f9054906101000a900473ffffffffffffffffffffffffffffffffffffffff1690806001015490806002015490806003018054611aff90613270565b80601f0160208091040260200160405190810160405280929190818152602001828054611b2b90613270565b8015611b765780601f10611b4d57610100808354040283529160200191611b76565b820191905f5260205f20905b815481529060010190602001808311611b5957829003601f168201915b505050505090806004015f9054906101000a900473ffffffffffffffffffffffffffffffffffffffff16908060040160149054906101000a900467ffffffffffffffff1690806005018054611bca90613270565b80601f0160208091040260200160405190810160405280929190818152602001828054611bf690613270565b8015611c415780601f10611c1857610100808354040283529160200191611c41565b820191905f5260205f20905b815481529060010190602001808311611c2457829003601f168201915b5050505050905087565b5f60015f8381526020019081526020015f2090505f611c68611f91565b73ffffffffffffffffffffffffffffffffffffffff166317861f87846040518263ffffffff1660e01b8152600401611ca09190612788565b5f60405180830381865afa158015611cba573d5f803e3d5ffd5b505050506040513d5f823e3d601f19601f82011682018060405250810190611ce29190613966565b90505f815111611d27576040517f08c379a0000000000000000000000000000000000000000000000000000000008152600401611d1e906139f7565b60405180910390fd5b5f73ffffffffffffffffffffffffffffffffffffffff16826004015f9054906101000a900473ffffffffffffffffffffffffffffffffffffffff1673ffffffffffffffffffffffffffffffffffffffff1614611f03575f611d86610b90565b83600101548385600501604051602401611da293929190613a15565b604051602081830303815290604052907bffffffffffffffffffffffffffffffffffffffffffffffffffffffff19166020820180517bffffffffffffffffffffffffffffffffffffffffffffffffffffffff838183161783525050505090505f80846004015f9054906101000a900473ffffffffffffffffffffffffffffffffffffffff1673ffffffffffffffffffffffffffffffffffffffff168560040160149054906101000a900467ffffffffffffffff1667ffffffffffffffff1684604051611e6e91906133b2565b5f604051808303815f8787f1925050503d805f8114611ea8576040519150601f19603f3d011682016040523d82523d5f602084013e611ead565b606091505b509150915081611ef2576040517f08c379a0000000000000000000000000000000000000000000000000000000008152600401611ee990613412565b60405180910390fd5b81611eff57805160208201fd5b5050505b8060025f8581526020019081526020015f209081611f21919061379d565b50823373ffffffffffffffffffffffffffffffffffffffff167fec2650f3d0548c85cc72c3ecef74483fd06aed05d55ea3ff47edc79cadafe04483604051611f699190612e7a565b60405180910390a3505050565b5f73f5aeb5a4b35be7af7dbfdb765f99bcf479c917bd905090565b5f73a8a416519cd5dd60c1dc97b195443d3263a6cb60905090565b611fb4611f76565b73ffffffffffffffffffffffffffffffffffffffff163373ffffffffffffffffffffffffffffffffffffffff1614612021576040517f08c379a000000000000000000000000000000000000000000000000000000000815260040161201890612ef4565b60405180910390fd5b60065f61202e9190612626565b565b6002602052805f5260405f205f91509050805461204c90613270565b80601f016020809104026020016040519081016040528092919081815260200182805461207890613270565b80156120c35780601f1061209a576101008083540402835291602001916120c3565b820191905f5260205f20905b8154815290600101906020018083116120a657829003601f168201915b505050505081565b6120d3611f76565b73ffffffffffffffffffffffffffffffffffffffff163373ffffffffffffffffffffffffffffffffffffffff1614612140576040517f08c379a000000000000000000000000000000000000000000000000000000000815260040161213790612ef4565b60405180910390fd5b60045f8781526020019081526020015f205f9054906101000a900460ff161561219e576040517f08c379a000000000000000000000000000000000000000000000000000000000815260040161219590613aa2565b60405180910390fd5b60648111156121e2576040517f08c379a00000000000000000000000000000000000000000000000000000000081526004016121d990613161565b60405180910390fd5b600160045f8881526020019081526020015f205f6101000a81548160ff021916908315150217905550600686908060018154018082558091505060019003905f5260205f20015f90919091909150555f60035f8881526020019081526020015f20905085815f018190555084816001018190555083816002018190555082816003015f6101000a81548173ffffffffffffffffffffffffffffffffffffffff021916908373ffffffffffffffffffffffffffffffffffffffff1602179055508181600401819055506122b2611f91565b73ffffffffffffffffffffffffffffffffffffffff16635c3d151987876040518363ffffffff1660e01b81526004016122ec929190613ac0565b5f604051808303815f87803b158015612303575f80fd5b505af1158015612315573d5f803e3d5ffd5b5050505050505050505050565b5f600680549050905090565b5f602052805f5260405f205f915054906101000a900460ff1681565b5f73f5aeb5a4b35be7af7dbfdb765f99bcf479c917bd905090565b60055481565b8360045f8281526020019081526020015f205f9054906101000a900460ff166123c9576040517f08c379a00000000000000000000000000000000000000000000000000000000081526004016123c090612f5c565b60405180910390fd5b825f808273ffffffffffffffffffffffffffffffffffffffff1673ffffffffffffffffffffffffffffffffffffffff1681526020019081526020015f205f9054906101000a900460ff1615612453576040517f08c379a000000000000000000000000000000000000000000000000000000000815260040161244a90613b31565b60405180910390fd5b5f60035f8881526020019081526020015f2090508367ffffffffffffffff1660055461247f9190612fa7565b816002015461248e9190612fe8565b3410156124d0576040517f08c379a00000000000000000000000000000000000000000000000000000000081526004016124c790613b99565b60405180910390fd5b6064816004015482600201546124e69190612fa7565b6124f09190613be4565b816005015f8282546125029190612fe8565b925050819055505f86511161254c576040517f08c379a000000000000000000000000000000000000000000000000000000000815260040161254390613c5e565b60405180910390fd5b5f8073ffffffffffffffffffffffffffffffffffffffff168673ffffffffffffffffffffffffffffffffffffffff161490505f8567ffffffffffffffff16141515811515146125d0576040517f08c379a00000000000000000000000000000000000000000000000000000000081526004016125c790613cc6565b60405180910390fd5b5050505050505050565b6040518060c001604052805f80191681526020015f80191681526020015f81526020015f73ffffffffffffffffffffffffffffffffffffffff1681526020015f81526020015f81525090565b5080545f8255905f5260205f20908101906126419190612644565b50565b5b8082111561265b575f815f905550600101612645565b5090565b5f604051905090565b5f80fd5b5f80fd5b5f819050919050565b61268281612670565b811461268c575f80fd5b50565b5f8135905061269d81612679565b92915050565b5f73ffffffffffffffffffffffffffffffffffffffff82169050919050565b5f6126cc826126a3565b9050919050565b6126dc816126c2565b81146126e6575f80fd5b50565b5f813590506126f7816126d3565b92915050565b5f806040838503121561271357612712612668565b5b5f6127208582860161268f565b9250506020612731858286016126e9565b9150509250929050565b5f806040838503121561275157612750612668565b5b5f61275e8582860161268f565b925050602061276f8582860161268f565b9150509250929050565b61278281612670565b82525050565b5f60208201905061279b5f830184612779565b92915050565b5f602082840312156127b6576127b5612668565b5b5f6127c38482850161268f565b91505092915050565b5f8115159050919050565b6127e0816127cc565b82525050565b5f6020820190506127f95f8301846127d7565b92915050565b5f6020828403121561281457612813612668565b5b5f612821848285016126e9565b91505092915050565b5f7fffffffff0000000000000000000000000000000000000000000000000000000082169050919050565b61285e8161282a565b82525050565b5f6020820190506128775f830184612855565b92915050565b5f819050919050565b61288f8161287d565b8114612899575f80fd5b50565b5f813590506128aa81612886565b92915050565b5f805f805f8060c087890312156128ca576128c9612668565b5b5f6128d789828a0161268f565b96505060206128e889828a0161289c565b95505060406128f989828a0161289c565b945050606061290a89828a0161268f565b935050608061291b89828a016126e9565b92505060a061292c89828a0161268f565b9150509295509295509295565b5f80fd5b5f80fd5b5f80fd5b5f8083601f84011261295a57612959612939565b5b8235905067ffffffffffffffff8111156129775761297661293d565b5b60208301915083600182028301111561299357612992612941565b5b9250929050565b5f805f604084860312156129b1576129b0612668565b5b5f6129be8682870161268f565b935050602084013567ffffffffffffffff8111156129df576129de61266c565b5b6129eb86828701612945565b92509250509250925092565b5f80fd5b5f601f19601f8301169050919050565b7f4e487b71000000000000000000000000000000000000000000000000000000005f52604160045260245ffd5b612a41826129fb565b810181811067ffffffffffffffff82111715612a6057612a5f612a0b565b5b80604052505050565b5f612a7261265f565b9050612a7e8282612a38565b919050565b5f67ffffffffffffffff821115612a9d57612a9c612a0b565b5b612aa6826129fb565b9050602081019050919050565b828183375f83830152505050565b5f612ad3612ace84612a83565b612a69565b905082815260208101848484011115612aef57612aee6129f7565b5b612afa848285612ab3565b509392505050565b5f82601f830112612b1657612b15612939565b5b8135612b26848260208601612ac1565b91505092915050565b5f67ffffffffffffffff82169050919050565b612b4b81612b2f565b8114612b55575f80fd5b50565b5f81359050612b6681612b42565b92915050565b5f805f805f60a08688031215612b8557612b84612668565b5b5f612b928882890161268f565b955050602086013567ffffffffffffffff811115612bb357612bb261266c565b5b612bbf88828901612b02565b9450506040612bd0888289016126e9565b9350506060612be188828901612b58565b925050608086013567ffffffffffffffff811115612c0257612c0161266c565b5b612c0e88828901612b02565b9150509295509295909350565b612c248161287d565b82525050565b612c3381612670565b82525050565b612c42816126c2565b82525050565b60c082015f820151612c5c5f850182612c1b565b506020820151612c6f6020850182612c1b565b506040820151612c826040850182612c2a565b506060820151612c956060850182612c39565b506080820151612ca86080850182612c2a565b5060a0820151612cbb60a0850182612c2a565b50505050565b5f60c082019050612cd45f830184612c48565b92915050565b612ce3816126c2565b82525050565b5f81519050919050565b5f82825260208201905092915050565b5f5b83811015612d20578082015181840152602081019050612d05565b5f8484015250505050565b5f612d3582612ce9565b612d3f8185612cf3565b9350612d4f818560208601612d03565b612d58816129fb565b840191505092915050565b612d6c81612b2f565b82525050565b5f60e082019050612d855f83018a612cda565b612d926020830189612779565b612d9f6040830188612779565b8181036060830152612db18187612d2b565b9050612dc06080830186612cda565b612dcd60a0830185612d63565b81810360c0830152612ddf8184612d2b565b905098975050505050505050565b5f602082019050612e005f830184612cda565b92915050565b5f819050919050565b5f612e29612e24612e1f846126a3565b612e06565b6126a3565b9050919050565b5f612e3a82612e0f565b9050919050565b5f612e4b82612e30565b9050919050565b612e5b81612e41565b82525050565b5f602082019050612e745f830184612e52565b92915050565b5f6020820190508181035f830152612e928184612d2b565b905092915050565b5f82825260208201905092915050565b7f4e6f7420746865206f776e6572000000000000000000000000000000000000005f82015250565b5f612ede600d83612e9a565b9150612ee982612eaa565b602082019050919050565b5f6020820190508181035f830152612f0b81612ed2565b9050919050565b7f6d6f64656c20646f6573206e6f742065786973740000000000000000000000005f82015250565b5f612f46601483612e9a565b9150612f5182612f12565b602082019050919050565b5f6020820190508181035f830152612f7381612f3a565b9050919050565b7f4e487b71000000000000000000000000000000000000000000000000000000005f52601160045260245ffd5b5f612fb182612670565b9150612fbc83612670565b9250828202612fca81612670565b91508282048414831517612fe157612fe0612f7a565b5b5092915050565b5f612ff282612670565b9150612ffd83612670565b925082820190508082111561301557613014612f7a565b5b92915050565b613024816127cc565b811461302e575f80fd5b50565b5f8151905061303f8161301b565b92915050565b5f6020828403121561305a57613059612668565b5b5f61306784828501613031565b91505092915050565b7f4e487b71000000000000000000000000000000000000000000000000000000005f52603260045260245ffd5b5f6130a782612670565b91507fffffffffffffffffffffffffffffffffffffffffffffffffffffffffffffffff82036130d9576130d8612f7a565b5b600182019050919050565b5f6130ee82612670565b91506130f983612670565b925082820390508181111561311157613110612f7a565b5b92915050565b7f70657263656e746167652073686f756c64206265203c3d2031303000000000005f82015250565b5f61314b601b83612e9a565b915061315682613117565b602082019050919050565b5f6020820190508181035f8301526131788161313f565b9050919050565b7f4f6e6c79207365727665720000000000000000000000000000000000000000005f82015250565b5f6131b3600b83612e9a565b91506131be8261317f565b602082019050919050565b5f6020820190508181035f8301526131e0816131a7565b9050919050565b5f6131f28385612cf3565b93506131ff838584612ab3565b613208836129fb565b840190509392505050565b5f6040820190506132265f830186612779565b81810360208301526132398184866131e7565b9050949350505050565b7f4e487b71000000000000000000000000000000000000000000000000000000005f52602260045260245ffd5b5f600282049050600182168061328757607f821691505b60208210810361329a57613299613243565b5b50919050565b5f819050815f5260205f209050919050565b5f81546132be81613270565b6132c88186612cf3565b9450600182165f81146132e257600181146132f85761332a565b60ff19831686528115156020028601935061332a565b613301856132a0565b5f5b8381101561332257815481890152600182019150602081019050613303565b808801955050505b50505092915050565b5f6060820190506133465f830187612779565b81810360208301526133598185876131e7565b9050818103604083015261336d81846132b2565b905095945050505050565b5f81905092915050565b5f61338c82612ce9565b6133968185613378565b93506133a6818560208601612d03565b80840191505092915050565b5f6133bd8284613382565b915081905092915050565b7f6661696c656420746f2063616c6c2073656c6563746f720000000000000000005f82015250565b5f6133fc601783612e9a565b9150613407826133c8565b602082019050919050565b5f6020820190508181035f830152613429816133f0565b9050919050565b5f82905092915050565b5f6020601f8301049050919050565b5f82821b905092915050565b5f600883026134847fffffffffffffffffffffffffffffffffffffffffffffffffffffffffffffffff82613449565b61348e8683613449565b95508019841693508086168417925050509392505050565b5f6134c06134bb6134b684612670565b612e06565b612670565b9050919050565b5f819050919050565b6134d9836134a6565b6134ed6134e5826134c7565b848454613455565b825550505050565b5f90565b6135016134f5565b61350c8184846134d0565b505050565b5b8181101561352f576135245f826134f9565b600181019050613512565b5050565b601f82111561357457613545816132a0565b61354e8461343a565b8101602085101561355d578190505b6135716135698561343a565b830182613511565b50505b505050565b5f82821c905092915050565b5f6135945f1984600802613579565b1980831691505092915050565b5f6135ac8383613585565b9150826002028217905092915050565b6135c68383613430565b67ffffffffffffffff8111156135df576135de612a0b565b5b6135e98254613270565b6135f4828285613533565b5f601f831160018114613621575f841561360f578287013590505b61361985826135a1565b865550613680565b601f19841661362f866132a0565b5f5b8281101561365657848901358255600182019150602085019450602081019050613631565b86831015613673578489013561366f601f891682613585565b8355505b6001600288020188555050505b50505050505050565b5f6020820190508181035f8301526136a28184866131e7565b90509392505050565b7f616363756d756c61746520726576656e756520697320300000000000000000005f82015250565b5f6136df601783612e9a565b91506136ea826136ab565b602082019050919050565b5f6020820190508181035f83015261370c816136d3565b9050919050565b61371c8161287d565b82525050565b5f6060820190506137355f830186613713565b6137426020830185613713565b81810360408301526137548184612d2b565b9050949350505050565b5f8151905061376c81612679565b92915050565b5f6020828403121561378757613786612668565b5b5f6137948482850161375e565b91505092915050565b6137a682612ce9565b67ffffffffffffffff8111156137bf576137be612a0b565b5b6137c98254613270565b6137d4828285613533565b5f60209050601f831160018114613805575f84156137f3578287015190505b6137fd85826135a1565b865550613864565b601f198416613813866132a0565b5f5b8281101561383a57848901518255600182019150602085019450602081019050613815565b868310156138575784890151613853601f891682613585565b8355505b6001600288020188555050505b505050505050565b5f60a08201905061387f5f830188612779565b81810360208301526138918187612d2b565b90506138a06040830186612cda565b6138ad6060830185612d63565b81810360808301526138bf8184612d2b565b90509695505050505050565b7f4e487b71000000000000000000000000000000000000000000000000000000005f52603160045260245ffd5b5f61390a61390584612a83565b612a69565b905082815260208101848484011115613926576139256129f7565b5b613931848285612d03565b509392505050565b5f82601f83011261394d5761394c612939565b5b815161395d8482602086016138f8565b91505092915050565b5f6020828403121561397b5761397a612668565b5b5f82015167ffffffffffffffff8111156139985761399761266c565b5b6139a484828501613939565b91505092915050565b7f6f7574707574206e6f742075706c6f61646564000000000000000000000000005f82015250565b5f6139e1601383612e9a565b91506139ec826139ad565b602082019050919050565b5f6020820190508181035f830152613a0e816139d5565b9050919050565b5f606082019050613a285f830186612779565b8181036020830152613a3a8185612d2b565b90508181036040830152613a4e81846132b2565b9050949350505050565b7f6d6f64656c20616c7265616479206578697374730000000000000000000000005f82015250565b5f613a8c601483612e9a565b9150613a9782613a58565b602082019050919050565b5f6020820190508181035f830152613ab981613a80565b9050919050565b5f604082019050613ad35f830185613713565b613ae06020830184613713565b9392505050565b7f496e20626c61636b6c69737400000000000000000000000000000000000000005f82015250565b5f613b1b600c83612e9a565b9150613b2682613ae7565b602082019050919050565b5f6020820190508181035f830152613b4881613b0f565b9050919050565b7f696e73756666696369656e7420666565000000000000000000000000000000005f82015250565b5f613b83601083612e9a565b9150613b8e82613b4f565b602082019050919050565b5f6020820190508181035f830152613bb081613b77565b9050919050565b7f4e487b71000000000000000000000000000000000000000000000000000000005f52601260045260245ffd5b5f613bee82612670565b9150613bf983612670565b925082613c0957613c08613bb7565b5b828204905092915050565b7f696e707574206e6f742075706c6f6164656400000000000000000000000000005f82015250565b5f613c48601283612e9a565b9150613c5382613c14565b602082019050919050565b5f6020820190508181035f830152613c7581613c3c565b9050919050565b7f6761734c696d69742063616e6e6f7420626520300000000000000000000000005f82015250565b5f613cb0601483612e9a565b9150613cbb82613c7c565b602082019050919050565b5f6020820190508181035f830152613cdd81613ca4565b905091905056fea2646970667358221220e77c7116fa1c3fe6b4b65754f4dfd2d8304a78364e62e02950df4ff48e33278564736f6c63430008150033",
  "immutableReferences": {},
  "source": "// SampleContract.sol\r\n// SPDX-License-Identifier: MIT\r\npragma solidity ^0.8.9;\r\n\r\nimport \"./interfaces/IOpml.sol\";\r\nimport \"./interfaces/IAIOracle.sol\";\r\n\r\ncontract AIOracle is IAIOracle {\r\n\r\n    function opml() public pure returns (IOpml) {\r\n        return IOpml(0xa8a416519CD5dd60c1Dc97B195443D3263a6cb60);\r\n    }\r\n\r\n    function owner() public pure returns (address) {\r\n        return 0xf5aeB5A4B35be7Af7dBfDb765F99bCF479c917BD;\r\n    }\r\n\r\n    function server() public pure returns (address) {\r\n        return 0xf5aeB5A4B35be7Af7dBfDb765F99bCF479c917BD;\r\n    }\r\n\r\n    function callbackFunctionSelector() public pure returns (bytes4) {\r\n        return bytes4(0xb0347814);\r\n    }\r\n\r\n    modifier onlyOwner() {\r\n        require(msg.sender == owner(), \"Not the owner\");\r\n        _;\r\n    }\r\n\r\n    modifier onlyServer() {\r\n        require(msg.sender == server(), \"Only server\");\r\n        _;\r\n    }\r\n\r\n    // avoid calling special callback contracts\r\n    mapping(address => bool) public blacklist;\r\n\r\n    struct AICallbackRequestData{\r\n        address account;\r\n        uint256 requestId;\r\n        uint256 modelId;\r\n        bytes input;\r\n        address callbackContract;\r\n        uint64 gasLimit;\r\n        bytes callbackData;\r\n    }\r\n\r\n    mapping(uint256 => AICallbackRequestData) public requests;\r\n    mapping(uint256 => bytes) public outputOfRequest;\r\n\r\n    struct ModelData {\r\n        bytes32 modelHash;\r\n        bytes32 programHash;\r\n        uint256 fee;\r\n        address receiver;\r\n        uint256 receiverPercentage;\r\n        uint256 accumulateRevenue;\r\n    }\r\n\r\n    mapping (uint256 => ModelData) models;\r\n    mapping (uint256 => bool) modelExists;\r\n\r\n    uint256 public gasPrice;\r\n\r\n    uint256[] public modelIDs;\r\n\r\n    function addToBlacklist(address _address) external onlyOwner {\r\n        blacklist[_address] = true;\r\n    }\r\n\r\n    function removeFromBlacklist(address _address) external onlyOwner {\r\n        blacklist[_address] = false;\r\n    }\r\n\r\n    modifier notBlacklisted(address callbackContract) {\r\n        require(!blacklist[callbackContract], \"In blacklist\");\r\n        _;\r\n    }\r\n\r\n    modifier ifModelExists(uint256 modelId) {\r\n        require(modelExists[modelId], \"model does not exist\");\r\n        _;\r\n    }\r\n\r\n    // set the gasPrice = 0 initially\r\n    function resetGasPrice() external onlyOwner {\r\n        gasPrice = 0;\r\n    }\r\n\r\n    // reset modelIDs initially\r\n    function resetModelIDs() external onlyOwner {\r\n        delete modelIDs;\r\n    }\r\n\r\n    function numberOfModels() external view returns (uint256) {\r\n        return modelIDs.length;\r\n    }\r\n\r\n    // remove the model from OAO, so OAO would not serve the model \r\n    function removeModel(uint256 modelId) external onlyOwner ifModelExists(modelId) {\r\n        modelExists[modelId] = false;\r\n        // remove from modelIDs\r\n        for (uint i = 0; i < modelIDs.length; i++) {\r\n            uint256 id = modelIDs[i];\r\n            if (id == modelId) {\r\n                // Replace the element at index with the last element\r\n                modelIDs[i] = modelIDs[modelIDs.length - 1];\r\n                // Remove the last element by reducing the array's length\r\n                modelIDs.pop();\r\n                break;\r\n            }\r\n        }\r\n    }\r\n\r\n    function withdraw() external onlyOwner {\r\n        uint256 modelRevenue;\r\n        for (uint i = 0; i < modelIDs.length; i++) {\r\n            uint256 id = modelIDs[i];\r\n            ModelData memory model = models[id];\r\n            modelRevenue += model.accumulateRevenue;\r\n        }\r\n        uint256 ownerRevenue = address(this).balance - modelRevenue;\r\n        payable(msg.sender).transfer(ownerRevenue);\r\n    }\r\n\r\n    function setModelFee(uint256 modelId, uint256 _fee) external onlyOwner ifModelExists(modelId) {\r\n        ModelData storage model = models[modelId];\r\n        model.fee = _fee;\r\n    }\r\n\r\n    function setModelReceiver(uint256 modelId, address receiver) external onlyOwner ifModelExists(modelId) {\r\n        ModelData storage model = models[modelId];\r\n        model.receiver = receiver;\r\n    }\r\n\r\n    function setModelReceiverPercentage(uint256 modelId, uint256 receiverPercentage) external onlyOwner ifModelExists(modelId) {\r\n        require(receiverPercentage <= 100, \"percentage should be <= 100\");\r\n        ModelData storage model = models[modelId];\r\n        model.receiverPercentage = receiverPercentage;\r\n    }\r\n\r\n    function getModel(uint256 modelId) external view ifModelExists(modelId) returns (ModelData memory) {\r\n        ModelData memory model = models[modelId];\r\n        return model;\r\n    }\r\n\r\n    function estimateFee(uint256 modelId, uint256 gasLimit) public view ifModelExists(modelId) returns (uint256) {\r\n        ModelData storage model = models[modelId];\r\n        return model.fee + gasPrice * gasLimit;\r\n    }\r\n\r\n    function uploadModel(uint256 modelId, bytes32 modelHash, bytes32 programHash, uint256 fee, address receiver, uint256 receiverPercentage) external onlyOwner {\r\n        require(!modelExists[modelId], \"model already exists\");\r\n        require(receiverPercentage <= 100, \"percentage should be <= 100\");\r\n        modelExists[modelId] = true;\r\n        modelIDs.push(modelId);\r\n        ModelData storage model = models[modelId];\r\n        model.modelHash = modelHash;\r\n        model.programHash = programHash;\r\n        model.fee = fee;\r\n        model.receiver = receiver;\r\n        model.receiverPercentage = receiverPercentage;\r\n        opml().uploadModel(modelHash, programHash);\r\n    }\r\n\r\n    function updateModel(uint256 modelId, bytes32 modelHash, bytes32 programHash, uint256 fee, address receiver, uint256 receiverPercentage) external onlyOwner ifModelExists(modelId) {\r\n        require(receiverPercentage <= 100, \"percentage should be <= 100\");\r\n        ModelData storage model = models[modelId];\r\n        model.modelHash = modelHash;\r\n        model.programHash = programHash;\r\n        model.fee = fee;\r\n        model.receiver = receiver;\r\n        model.receiverPercentage = receiverPercentage;\r\n    }\r\n    \r\n    function isFinalized(uint256 requestId) external view returns (bool) {\r\n        return opml().isFinalized(requestId);\r\n    }\r\n\r\n    // view function\r\n    function _validateParams(\r\n        uint256 modelId,\r\n        bytes memory input, \r\n        address callbackContract, \r\n        uint64 gasLimit\r\n    ) internal ifModelExists(modelId) notBlacklisted(callbackContract) {\r\n        ModelData storage model = models[modelId];\r\n        require(msg.value >= model.fee + gasPrice * gasLimit, \"insufficient fee\");\r\n        model.accumulateRevenue += model.fee * model.receiverPercentage / 100;\r\n        require(input.length > 0, \"input not uploaded\");\r\n        bool noCallback = callbackContract == address(0);\r\n        require(noCallback == (gasLimit == 0), \"gasLimit cannot be 0\");\r\n    }\r\n\r\n    function requestCallback(\r\n        uint256 modelId,\r\n        bytes memory input,\r\n        address callbackContract,\r\n        uint64 gasLimit,\r\n        bytes memory callbackData\r\n    ) external payable returns (uint256) {\r\n        // validate params\r\n        _validateParams(modelId, input, callbackContract, gasLimit);\r\n\r\n        ModelData memory model = models[modelId];\r\n\r\n        // init opml request\r\n        uint256 requestId = opml().initOpmlRequest(model.modelHash, model.programHash, input);\r\n\r\n        // store the request so that anyone can update the result according to the opml\r\n        AICallbackRequestData storage request = requests[requestId];\r\n        request.account = msg.sender;\r\n        request.requestId = requestId;\r\n        request.modelId = modelId;\r\n        request.input = input;\r\n        request.callbackContract = callbackContract;\r\n        request.gasLimit = gasLimit;\r\n        request.callbackData = callbackData;\r\n\r\n        // Emit event\r\n        emit AICallbackRequest(msg.sender, requestId, modelId, input, callbackContract, gasLimit, callbackData);\r\n\r\n        return requestId;\r\n    }\r\n\r\n    // any can call this function\r\n    function claimModelRevenue(uint256 modelId) external ifModelExists(modelId) {\r\n        ModelData storage model = models[modelId];\r\n        require(model.accumulateRevenue > 0, \"accumulate revenue is 0\");\r\n        payable(model.receiver).transfer(model.accumulateRevenue);\r\n        model.accumulateRevenue = 0;\r\n    }\r\n\r\n\r\n    // call this function if the opml result is challenged and updated!\r\n    // anyone can call it!\r\n    function updateResult(uint256 requestId) external {\r\n        // read request of requestId\r\n        AICallbackRequestData storage request = requests[requestId];\r\n\r\n        // get Latest output of request\r\n        bytes memory output = opml().getOutput(requestId);\r\n        require(output.length > 0, \"output not uploaded\");\r\n\r\n        // invoke callback\r\n        if(request.callbackContract != address(0)) {\r\n            bytes memory payload = abi.encodeWithSelector(callbackFunctionSelector(), request.requestId, output, request.callbackData);\r\n            (bool success, bytes memory data) = request.callbackContract.call{gas: request.gasLimit}(payload);\r\n            require(success, \"failed to call selector\");\r\n            if (!success) {\r\n                assembly {\r\n                    revert(add(data, 32), mload(data))\r\n                }\r\n            }\r\n        }\r\n\r\n        // store the result\r\n        outputOfRequest[requestId] = output;\r\n        emit AICallbackResult(msg.sender, requestId, output);\r\n    }\r\n\r\n    // payload includes (function selector, input, output)\r\n    function invokeCallback(uint256 requestId, bytes calldata output) external onlyServer {\r\n        // read request of requestId\r\n        AICallbackRequestData storage request = requests[requestId];\r\n        \r\n        // others can challenge if the result is incorrect!\r\n        opml().uploadResult(requestId, output);\r\n\r\n        // invoke callback\r\n        if(request.callbackContract != address(0)) {\r\n            bytes memory payload = abi.encodeWithSelector(callbackFunctionSelector(), request.requestId, output, request.callbackData);\r\n            (bool success, bytes memory data) = request.callbackContract.call{gas: request.gasLimit}(payload);\r\n            require(success, \"failed to call selector\");\r\n            if (!success) {\r\n                assembly {\r\n                    revert(add(data, 32), mload(data))\r\n                }\r\n            }\r\n        }\r\n\r\n        // store the result\r\n        outputOfRequest[requestId] = output;\r\n        emit AICallbackResult(msg.sender, requestId, output);\r\n\r\n        gasPrice = tx.gasprice;\r\n    }\r\n}\r\n",
  "sourcePath": "D:\\GitHub\\ethtaipei2024\\OAO\\contracts\\AIOracle.sol",
  "compiler": {
    "name": "solc",
    "version": "0.8.21+commit.d9974bed.Emscripten.clang"
  },
  "schemaVersion": "3.4.16",
  "updatedAt": "2024-03-23T03:09:42.067Z",
  "devdoc": {
    "kind": "dev",
    "methods": {
      "requestCallback(uint256,bytes,address,uint64,bytes)": {
        "params": {
          "callbackContract": "address of callback contract",
          "callbackData": "optional, user-defined data, will send back to the callback function",
          "gasLimit": "gas limitation of calling the callback function",
          "input": "input for AI model",
          "modelId": "ID for AI model"
        },
        "returns": {
          "_0": "requestID"
        }
      }
    },
    "version": 1
  },
  "userdoc": {
    "events": {
      "AICallbackRequest(address,uint256,uint256,bytes,address,uint64,bytes)": {
        "notice": "Event emitted upon receiving a callback request through requestCallback."
      },
      "AICallbackResult(address,uint256,bytes)": {
        "notice": "Event emitted when the result is uploaded or update."
      }
    },
    "kind": "user",
    "methods": {
      "requestCallback(uint256,bytes,address,uint64,bytes)": {
        "notice": "initiate a request in OAO"
      }
    },
    "version": 1
  }
}