{
  "contractName": "OAOCircle",
  "abi": [
    {
      "inputs": [
        {
          "internalType": "contract IAIOracle",
          "name": "_aiOracle",
          "type": "address"
        }
      ],
      "stateMutability": "nonpayable",
      "type": "constructor"
    },
    {
      "inputs": [
        {
          "internalType": "contract IAIOracle",
          "name": "expected",
          "type": "address"
        },
        {
          "internalType": "contract IAIOracle",
          "name": "found",
          "type": "address"
        }
      ],
      "name": "UnauthorizedCallbackSource",
      "type": "error"
    },
    {
      "anonymous": false,
      "inputs": [
        {
          "indexed": false,
          "internalType": "uint256",
          "name": "requestId",
          "type": "uint256"
        },
        {
          "indexed": false,
          "internalType": "address",
          "name": "sender",
          "type": "address"
        },
        {
          "indexed": false,
          "internalType": "string",
          "name": "prompt",
          "type": "string"
        }
      ],
      "name": "promptRequest",
      "type": "event"
    },
    {
      "anonymous": false,
      "inputs": [
        {
          "indexed": false,
          "internalType": "uint256",
          "name": "requestId",
          "type": "uint256"
        },
        {
          "indexed": false,
          "internalType": "string",
          "name": "input",
          "type": "string"
        },
        {
          "indexed": false,
          "internalType": "string",
          "name": "output",
          "type": "string"
        },
        {
          "indexed": false,
          "internalType": "bytes",
          "name": "callbackData",
          "type": "bytes"
        }
      ],
      "name": "promptsUpdated",
      "type": "event"
    },
    {
      "inputs": [],
      "name": "AIORACLE_CALLBACK_GAS_LIMIT",
      "outputs": [
        {
          "internalType": "uint64",
          "name": "",
          "type": "uint64"
        }
      ],
      "stateMutability": "view",
      "type": "function"
    },
    {
      "inputs": [],
      "name": "aiOracle",
      "outputs": [
        {
          "internalType": "contract IAIOracle",
          "name": "",
          "type": "address"
        }
      ],
      "stateMutability": "view",
      "type": "function"
    },
    {
      "inputs": [
        {
          "internalType": "uint256",
          "name": "requestId",
          "type": "uint256"
        }
      ],
      "name": "isFinalized",
      "outputs": [
        {
          "internalType": "bool",
          "name": "",
          "type": "bool"
        }
      ],
      "stateMutability": "view",
      "type": "function"
    },
    {
      "inputs": [
        {
          "internalType": "string",
          "name": "",
          "type": "string"
        }
      ],
      "name": "prompts",
      "outputs": [
        {
          "internalType": "string",
          "name": "",
          "type": "string"
        }
      ],
      "stateMutability": "view",
      "type": "function"
    },
    {
      "inputs": [
        {
          "internalType": "uint256",
          "name": "",
          "type": "uint256"
        }
      ],
      "name": "requests",
      "outputs": [
        {
          "internalType": "address",
          "name": "sender",
          "type": "address"
        },
        {
          "internalType": "bytes",
          "name": "input",
          "type": "bytes"
        },
        {
          "internalType": "bytes",
          "name": "output",
          "type": "bytes"
        }
      ],
      "stateMutability": "view",
      "type": "function"
    },
    {
      "inputs": [
        {
          "internalType": "string",
          "name": "prompt",
          "type": "string"
        }
      ],
      "name": "getAIResult",
      "outputs": [
        {
          "internalType": "string",
          "name": "",
          "type": "string"
        }
      ],
      "stateMutability": "view",
      "type": "function"
    },
    {
      "inputs": [
        {
          "internalType": "uint256",
          "name": "requestId",
          "type": "uint256"
        },
        {
          "internalType": "bytes",
          "name": "output",
          "type": "bytes"
        },
        {
          "internalType": "bytes",
          "name": "callbackData",
          "type": "bytes"
        }
      ],
      "name": "aiOracleCallback",
      "outputs": [],
      "stateMutability": "nonpayable",
      "type": "function"
    },
    {
      "inputs": [
        {
          "internalType": "uint256",
          "name": "modelId",
          "type": "uint256"
        }
      ],
      "name": "estimateFee",
      "outputs": [
        {
          "internalType": "uint256",
          "name": "",
          "type": "uint256"
        }
      ],
      "stateMutability": "view",
      "type": "function"
    },
    {
      "inputs": [
        {
          "internalType": "string",
          "name": "prompt",
          "type": "string"
        }
      ],
      "name": "calculateAIResult",
      "outputs": [],
      "stateMutability": "payable",
      "type": "function"
    }
  ],
  "bytecode": "0x60a0604052600b5f5534801562000014575f80fd5b50604051620019ab380380620019ab83398181016040528101906200003a9190620000ef565b808073ffffffffffffffffffffffffffffffffffffffff1660808173ffffffffffffffffffffffffffffffffffffffff168152505050506200011f565b5f80fd5b5f73ffffffffffffffffffffffffffffffffffffffff82169050919050565b5f620000a6826200007b565b9050919050565b5f620000b9826200009a565b9050919050565b620000cb81620000ad565b8114620000d6575f80fd5b50565b5f81519050620000e981620000c0565b92915050565b5f6020828403121562000107576200010662000077565b5b5f6200011684828501620000d9565b91505092915050565b6080516118506200015b5f395f8181610252015281816102f50152818161031a0152818161060c01528181610813015261086601526118505ff3fe608060405260043610610085575f3560e01c806381d12c581161005857806381d12c581461016757806389b1e798146101a5578063a2677754146101cf578063aff0396b146101eb578063b03478141461022757610085565b8063127e8e4d1461008957806331b221cd146100c557806333727c4d146100ef5780636a3af9031461012b575b5f80fd5b348015610094575f80fd5b506100af60048036038101906100aa91906109ad565b61024f565b6040516100bc91906109e7565b60405180910390f35b3480156100d0575f80fd5b506100d96102f3565b6040516100e69190610a7a565b60405180910390f35b3480156100fa575f80fd5b50610115600480360381019061011091906109ad565b610317565b6040516101229190610aad565b60405180910390f35b348015610136575f80fd5b50610151600480360381019061014c9190610c02565b6103b7565b60405161015e9190610cc3565b60405180910390f35b348015610172575f80fd5b5061018d600480360381019061018891906109ad565b61046a565b60405161019c93929190610d55565b60405180910390f35b3480156101b0575f80fd5b506101b96105bb565b6040516101c69190610dba565b60405180910390f35b6101e960048036038101906101e49190610e30565b6105c2565b005b3480156101f6575f80fd5b50610211600480360381019061020c9190610e30565b61075c565b60405161021e9190610cc3565b60405180910390f35b348015610232575f80fd5b5061024d60048036038101906102489190610ed0565b61080d565b005b5f7f000000000000000000000000000000000000000000000000000000000000000073ffffffffffffffffffffffffffffffffffffffff1662e1d8d083624c4b406040518363ffffffff1660e01b81526004016102ad929190610f91565b602060405180830381865afa1580156102c8573d5f803e3d5ffd5b505050506040513d601f19601f820116820180604052508101906102ec9190610fcc565b9050919050565b7f000000000000000000000000000000000000000000000000000000000000000081565b5f7f000000000000000000000000000000000000000000000000000000000000000073ffffffffffffffffffffffffffffffffffffffff166333727c4d836040518263ffffffff1660e01b815260040161037191906109e7565b602060405180830381865afa15801561038c573d5f803e3d5ffd5b505050506040513d601f19601f820116820180604052508101906103b09190611021565b9050919050565b6002818051602081018201805184825260208301602085012081835280955050505050505f9150905080546103eb90611079565b80601f016020809104026020016040519081016040528092919081815260200182805461041790611079565b80156104625780601f1061043957610100808354040283529160200191610462565b820191905f5260205f20905b81548152906001019060200180831161044557829003601f168201915b505050505081565b6001602052805f5260405f205f91509050805f015f9054906101000a900473ffffffffffffffffffffffffffffffffffffffff16908060010180546104ae90611079565b80601f01602080910402602001604051908101604052809291908181526020018280546104da90611079565b80156105255780601f106104fc57610100808354040283529160200191610525565b820191905f5260205f20905b81548152906001019060200180831161050857829003601f168201915b50505050509080600201805461053a90611079565b80601f016020809104026020016040519081016040528092919081815260200182805461056690611079565b80156105b15780601f10610588576101008083540402835291602001916105b1565b820191905f5260205f20905b81548152906001019060200180831161059457829003601f168201915b5050505050905083565b624c4b4081565b5f82828080601f0160208091040260200160405190810160405280939291908181526020018383808284375f81840152601f19601f8201169050808301925050505050505090505f7f000000000000000000000000000000000000000000000000000000000000000073ffffffffffffffffffffffffffffffffffffffff16635b953806345f548530624c4b406040518663ffffffff1660e01b815260040161066e94939291906110cc565b60206040518083038185885af115801561068a573d5f803e3d5ffd5b50505050506040513d601f19601f820116820180604052508101906106af9190610fcc565b90505f60015f8381526020019081526020015f209050828160010190816106d691906112bd565b5033815f015f6101000a81548173ffffffffffffffffffffffffffffffffffffffff021916908373ffffffffffffffffffffffffffffffffffffffff1602179055507f3048471fd20f47ab7542c9a11c26cf561f3a1a599136995c602dc9a4c100e9698233878760405161074d94939291906113b8565b60405180910390a15050505050565b606060028383604051610770929190611424565b9081526020016040518091039020805461078990611079565b80601f01602080910402602001604051908101604052809291908181526020018280546107b590611079565b80156108005780601f106107d757610100808354040283529160200191610800565b820191905f5260205f20905b8154815290600101906020018083116107e357829003601f168201915b5050505050905092915050565b5f3390507f000000000000000000000000000000000000000000000000000000000000000073ffffffffffffffffffffffffffffffffffffffff168173ffffffffffffffffffffffffffffffffffffffff16146108c3577f0000000000000000000000000000000000000000000000000000000000000000816040517f865c066e0000000000000000000000000000000000000000000000000000000081526004016108ba92919061143c565b60405180910390fd5b5f60015f8881526020019081526020015f20905085858260020191826108ea92919061146d565b50858560028360010160405161090091906115cc565b9081526020016040518091039020918261091b929190611644565b507fffdb7f50df453a01154ddfe7d084a16e04da131d32de01add1e88c122759d6fe878260010188888888604051610958969594939291906117be565b60405180910390a150505050505050565b5f604051905090565b5f80fd5b5f80fd5b5f819050919050565b61098c8161097a565b8114610996575f80fd5b50565b5f813590506109a781610983565b92915050565b5f602082840312156109c2576109c1610972565b5b5f6109cf84828501610999565b91505092915050565b6109e18161097a565b82525050565b5f6020820190506109fa5f8301846109d8565b92915050565b5f73ffffffffffffffffffffffffffffffffffffffff82169050919050565b5f819050919050565b5f610a42610a3d610a3884610a00565b610a1f565b610a00565b9050919050565b5f610a5382610a28565b9050919050565b5f610a6482610a49565b9050919050565b610a7481610a5a565b82525050565b5f602082019050610a8d5f830184610a6b565b92915050565b5f8115159050919050565b610aa781610a93565b82525050565b5f602082019050610ac05f830184610a9e565b92915050565b5f80fd5b5f80fd5b5f601f19601f8301169050919050565b7f4e487b71000000000000000000000000000000000000000000000000000000005f52604160045260245ffd5b610b1482610ace565b810181811067ffffffffffffffff82111715610b3357610b32610ade565b5b80604052505050565b5f610b45610969565b9050610b518282610b0b565b919050565b5f67ffffffffffffffff821115610b7057610b6f610ade565b5b610b7982610ace565b9050602081019050919050565b828183375f83830152505050565b5f610ba6610ba184610b56565b610b3c565b905082815260208101848484011115610bc257610bc1610aca565b5b610bcd848285610b86565b509392505050565b5f82601f830112610be957610be8610ac6565b5b8135610bf9848260208601610b94565b91505092915050565b5f60208284031215610c1757610c16610972565b5b5f82013567ffffffffffffffff811115610c3457610c33610976565b5b610c4084828501610bd5565b91505092915050565b5f81519050919050565b5f82825260208201905092915050565b5f5b83811015610c80578082015181840152602081019050610c65565b5f8484015250505050565b5f610c9582610c49565b610c9f8185610c53565b9350610caf818560208601610c63565b610cb881610ace565b840191505092915050565b5f6020820190508181035f830152610cdb8184610c8b565b905092915050565b5f610ced82610a00565b9050919050565b610cfd81610ce3565b82525050565b5f81519050919050565b5f82825260208201905092915050565b5f610d2782610d03565b610d318185610d0d565b9350610d41818560208601610c63565b610d4a81610ace565b840191505092915050565b5f606082019050610d685f830186610cf4565b8181036020830152610d7a8185610d1d565b90508181036040830152610d8e8184610d1d565b9050949350505050565b5f67ffffffffffffffff82169050919050565b610db481610d98565b82525050565b5f602082019050610dcd5f830184610dab565b92915050565b5f80fd5b5f80fd5b5f8083601f840112610df057610def610ac6565b5b8235905067ffffffffffffffff811115610e0d57610e0c610dd3565b5b602083019150836001820283011115610e2957610e28610dd7565b5b9250929050565b5f8060208385031215610e4657610e45610972565b5b5f83013567ffffffffffffffff811115610e6357610e62610976565b5b610e6f85828601610ddb565b92509250509250929050565b5f8083601f840112610e9057610e8f610ac6565b5b8235905067ffffffffffffffff811115610ead57610eac610dd3565b5b602083019150836001820283011115610ec957610ec8610dd7565b5b9250929050565b5f805f805f60608688031215610ee957610ee8610972565b5b5f610ef688828901610999565b955050602086013567ffffffffffffffff811115610f1757610f16610976565b5b610f2388828901610e7b565b9450945050604086013567ffffffffffffffff811115610f4657610f45610976565b5b610f5288828901610e7b565b92509250509295509295909350565b5f610f7b610f76610f7184610d98565b610a1f565b61097a565b9050919050565b610f8b81610f61565b82525050565b5f604082019050610fa45f8301856109d8565b610fb16020830184610f82565b9392505050565b5f81519050610fc681610983565b92915050565b5f60208284031215610fe157610fe0610972565b5b5f610fee84828501610fb8565b91505092915050565b61100081610a93565b811461100a575f80fd5b50565b5f8151905061101b81610ff7565b92915050565b5f6020828403121561103657611035610972565b5b5f6110438482850161100d565b91505092915050565b7f4e487b71000000000000000000000000000000000000000000000000000000005f52602260045260245ffd5b5f600282049050600182168061109057607f821691505b6020821081036110a3576110a261104c565b5b50919050565b50565b5f6110b75f83610d0d565b91506110c2826110a9565b5f82019050919050565b5f60a0820190506110df5f8301876109d8565b81810360208301526110f18186610d1d565b90506111006040830185610cf4565b61110d6060830184610dab565b818103608083015261111e816110ac565b905095945050505050565b5f819050815f5260205f209050919050565b5f6020601f8301049050919050565b5f82821b905092915050565b5f600883026111857fffffffffffffffffffffffffffffffffffffffffffffffffffffffffffffffff8261114a565b61118f868361114a565b95508019841693508086168417925050509392505050565b5f6111c16111bc6111b78461097a565b610a1f565b61097a565b9050919050565b5f819050919050565b6111da836111a7565b6111ee6111e6826111c8565b848454611156565b825550505050565b5f90565b6112026111f6565b61120d8184846111d1565b505050565b5b81811015611230576112255f826111fa565b600181019050611213565b5050565b601f8211156112755761124681611129565b61124f8461113b565b8101602085101561125e578190505b61127261126a8561113b565b830182611212565b50505b505050565b5f82821c905092915050565b5f6112955f198460080261127a565b1980831691505092915050565b5f6112ad8383611286565b9150826002028217905092915050565b6112c682610d03565b67ffffffffffffffff8111156112df576112de610ade565b5b6112e98254611079565b6112f4828285611234565b5f60209050601f831160018114611325575f8415611313578287015190505b61131d85826112a2565b865550611384565b601f19841661133386611129565b5f5b8281101561135a57848901518255600182019150602085019450602081019050611335565b868310156113775784890151611373601f891682611286565b8355505b6001600288020188555050505b505050505050565b5f6113978385610c53565b93506113a4838584610b86565b6113ad83610ace565b840190509392505050565b5f6060820190506113cb5f8301876109d8565b6113d86020830186610cf4565b81810360408301526113eb81848661138c565b905095945050505050565b5f81905092915050565b5f61140b83856113f6565b9350611418838584610b86565b82840190509392505050565b5f611430828486611400565b91508190509392505050565b5f60408201905061144f5f830185610a6b565b61145c6020830184610a6b565b9392505050565b5f82905092915050565b6114778383611463565b67ffffffffffffffff8111156114905761148f610ade565b5b61149a8254611079565b6114a5828285611234565b5f601f8311600181146114d2575f84156114c0578287013590505b6114ca85826112a2565b865550611531565b601f1984166114e086611129565b5f5b82811015611507578489013582556001820191506020850194506020810190506114e2565b868310156115245784890135611520601f891682611286565b8355505b6001600288020188555050505b50505050505050565b5f819050815f5260205f209050919050565b5f815461155881611079565b61156281866113f6565b9450600182165f811461157c5760018114611591576115c3565b60ff19831686528115158202860193506115c3565b61159a8561153a565b5f5b838110156115bb5781548189015260018201915060208101905061159c565b838801955050505b50505092915050565b5f6115d7828461154c565b915081905092915050565b5f82905092915050565b5f819050815f5260205f209050919050565b601f82111561163f57611610816115ec565b6116198461113b565b81016020851015611628578190505b61163c6116348561113b565b830182611212565b50505b505050565b61164e83836115e2565b67ffffffffffffffff81111561166757611666610ade565b5b6116718254611079565b61167c8282856115fe565b5f601f8311600181146116a9575f8415611697578287013590505b6116a185826112a2565b865550611708565b601f1984166116b7866115ec565b5f5b828110156116de578489013582556001820191506020850194506020810190506116b9565b868310156116fb57848901356116f7601f891682611286565b8355505b6001600288020188555050505b50505050505050565b5f815461171d81611079565b6117278186610c53565b9450600182165f8114611741576001811461175757611789565b60ff198316865281151560200286019350611789565b6117608561153a565b5f5b8381101561178157815481890152600182019150602081019050611762565b808801955050505b50505092915050565b5f61179d8385610d0d565b93506117aa838584610b86565b6117b383610ace565b840190509392505050565b5f6080820190506117d15f8301896109d8565b81810360208301526117e38188611711565b905081810360408301526117f881868861138c565b9050818103606083015261180d818486611792565b905097965050505050505056fea26469706673582212204ef75b0df91278ac4c401d174c8bbf318145f3f2bd5ac8b3c9e0d692153dd6f764736f6c63430008150033",
  "immutableReferences": {
    "1029": [
      {
        "length": 32,
        "start": 594
      },
      {
        "length": 32,
        "start": 757
      },
      {
        "length": 32,
        "start": 794
      },
      {
        "length": 32,
        "start": 1548
      },
      {
        "length": 32,
        "start": 2067
      },
      {
        "length": 32,
        "start": 2150
      }
    ]
  },
  "source": "// SampleContract.sol\r\n// SPDX-License-Identifier: MIT\r\npragma solidity ^0.8.9;\r\n\r\nimport \"../OAO/contracts/interfaces/IAIOracle.sol\";\r\nimport \"../OAO/contracts/AIOracle.sol\";\r\nimport \"../OAO/contracts/AIOracleCallbackReceiver.sol\";\r\n\r\n// this contract is for ai.hyperoracle.io websie\r\ncontract OAOCircle is AIOracleCallbackReceiver {\r\n\r\n    event promptsUpdated(\r\n        uint256 requestId,\r\n        string input,\r\n        string output,\r\n        bytes callbackData\r\n    );\r\n\r\n    event promptRequest(\r\n        uint256 requestId,\r\n        address sender, \r\n        string prompt\r\n    );\r\n\r\n    struct AIOracleRequest {\r\n        address sender;\r\n        bytes input;\r\n        bytes output;\r\n    }\r\n\r\n    uint256 _modelID = 11;\r\n    // requestId => AIOracleRequest\r\n    mapping(uint256 => AIOracleRequest) public requests;\r\n\r\n    /// @notice Initialize the contract, binding it to a specified AIOracle.\r\n    constructor(IAIOracle _aiOracle) AIOracleCallbackReceiver(_aiOracle) {}\r\n\r\n    /// @notice Gas limit set on the callback from AIOracle.\r\n    /// @dev Should be set to the maximum amount of gas your callback might reasonably consume.\r\n    uint64 public constant AIORACLE_CALLBACK_GAS_LIMIT = 5000000;\r\n\r\n    // uint256: modelID => (string: prompt => string: output)\r\n    mapping(string => string) public prompts;\r\n\r\n\r\n    function getAIResult(string calldata prompt) external view returns (string memory) {\r\n        return prompts[prompt];\r\n    }\r\n\r\n    // the callback function, only the AI Oracle can call this function\r\n    function aiOracleCallback(uint256 requestId, bytes calldata output, bytes calldata callbackData) external override onlyAIOracleCallback() {\r\n        // since we do not set the callbackData in this example, the callbackData should be empty\r\n        AIOracleRequest storage request = requests[requestId];\r\n        request.output = output;\r\n        prompts[string(request.input)] = string(output);\r\n        emit promptsUpdated(requestId, string(request.input), string(output), callbackData);\r\n    }\r\n\r\n    function estimateFee(uint256 modelId) public view returns (uint256) {\r\n        return aiOracle.estimateFee(modelId, AIORACLE_CALLBACK_GAS_LIMIT);\r\n    }\r\n\r\n    function calculateAIResult(string calldata prompt) payable external {\r\n        bytes memory input = bytes(prompt);\r\n        // we do not need to set the callbackData in this example\r\n        uint256 requestId = aiOracle.requestCallback{value: msg.value}(\r\n            _modelID, input, address(this), AIORACLE_CALLBACK_GAS_LIMIT, \"\"\r\n        );\r\n        AIOracleRequest storage request = requests[requestId];\r\n        request.input = input;\r\n        request.sender = msg.sender;\r\n        emit promptRequest(requestId, msg.sender, prompt);\r\n    }\r\n}\r\n",
  "sourcePath": "D:\\GitHub\\ethtaipei2024\\contracts\\OAOCircle.sol",
  "compiler": {
    "name": "solc",
    "version": "0.8.21+commit.d9974bed.Emscripten.clang"
  },
  "schemaVersion": "3.4.16",
  "updatedAt": "2024-03-23T09:38:12.247Z",
  "devdoc": {
    "kind": "dev",
    "methods": {
      "aiOracleCallback(uint256,bytes,bytes)": {
        "details": "the callback function in OAO, should add the modifier onlyAIOracleCallback!",
        "params": {
          "callbackData": "user-defined data (The same as when the user call aiOracle.requestCallback)",
          "output": "AI model's output",
          "requestId": "Id for the request in OAO (unique per request)"
        }
      }
    },
    "stateVariables": {
      "AIORACLE_CALLBACK_GAS_LIMIT": {
        "details": "Should be set to the maximum amount of gas your callback might reasonably consume."
      }
    },
    "version": 1
  },
  "userdoc": {
    "kind": "user",
    "methods": {
      "AIORACLE_CALLBACK_GAS_LIMIT()": {
        "notice": "Gas limit set on the callback from AIOracle."
      },
      "constructor": {
        "notice": "Initialize the contract, binding it to a specified AIOracle."
      }
    },
    "version": 1
  }
}